:020000040800F2
:1000000000800020D9240008FD23000801240008F6
:1000100005240008092400080D2400080000000041
:100020000000000000000000000000001124000893
:100030001524000800000000192400081D240008F1
:100040002925000829250008292500082925000858
:100050002925000829250008292500082925000848
:100060002925000829250008292500082925000838
:100070002925000829250008292500082925000828
:100080002925000800000000212400082925000877
:100090002925000829250008292500082925000808
:1000A00029250008292500082925000829250008F8
:1000B00029250008292500082925000829250008E8
:1000C00029250008292500082925000829250008D8
:1000D00029250008292500082925000829250008C8
:1000E00029250008292500082925000829250008B8
:1000F00029250008292500082925000800000000FE
:100100000000000029250008000000002925000843
:1001100029250008000000002925000829250008DD
:100120002925000829250008292500082925000877
:100130002925000800000000000000002925000813
:100140002925000829250008000000000000000003
:10015000000000000000000000000000000000009F
:100160000000000000000000000000002925000839
:100170002925000800000000000000000000000029
:100180000000000029250008000000000000000019
:10019000000000000000000000000000000000005F
:1001A00000000000000000002925000829250008A3
:1001B000292500082925000829250008000000003D
:1001C00000000000292500080000000000000000D9
:0801D00029250008292500087B
:1001E00010B5054C237833B9044B13B10448AFF371
:1001F00000800123237010BD980000200000000043
:10020000986F000808B5034B1BB103490348AFF3CF
:10021000008008BD000000009C000020986F0008CE
:1002200001F0FF01102A2BDB10F0070F08D010F8A7
:10023000013B013A8B422DD010F0070F42B3F6D1AB
:10024000F0B441EA012141EA014122F007047FF0C4
:1002500000070023F0E80256083C85EA010586EA1B
:10026000010685FA47F5A3FA87F586FA47F6A5FA57
:1002700087F68EB9EED1F0BC01F0FF0102F0070263
:1002800032B110F8013B013A83EA010313B1F8D10E
:100290000020704701387047002D06BF35460338EF
:1002A000073815F0010F07D1013015F4807F02BF28
:1002B000013015F4C03F0130F0BC0138704700BF79
:1002C00053B94AB9002908BF00281CBF4FF0FF31BD
:1002D0004FF0FF3000F088B9ADF1080C6DE904CEA5
:1002E00000F006F8DDF804E0DDE9022304B0704711
:1002F0002DE9F047089D0F4604468C46002B48D157
:100300008A42164661D9B2FA82F34BB1C3F1200298
:1003100001FA03FC20FA02F29E4042EA0C0C9C40D7
:100320004FEA164EB7B2BCFBFEF1220C0EFB11CC0D
:1003300042EA0C4201FB07F0904209D9B21801F1E0
:10034000FF3C80F0EE80904240F2EB800239324474
:10035000121AA4B2B2FBFEF00EFB102244EA0244D1
:1003600000FB07F7A74209D9341900F1FF3280F0EA
:10037000DA80A74240F2D7803444023840EA014094
:10038000E41B00211DB1DC400023C5E90043BDE8AA
:10039000F0878B4206D90DB1C5E90001002108465E
:1003A000BDE8F087B3FA83F1002948D1BB4202D3FC
:1003B000824200F20781841A67EB0302012094460F
:1003C000002DE4D0C5E9004CE1E7002A00F092805E
:1003D000B2FA82F3002B40F0A8808A1A4FEA164E38
:1003E0001FFA86FC0121200CB2FBFEF70EFB172240
:1003F00040EA02420CFB07F0904207D9B21807F11D
:10040000FF3802D2904200F2E2804746121AA4B2AC
:10041000B2FBFEF00EFB102244EA02440CFB00FC8F
:10042000A44507D9341900F1FF3202D2A44500F2E5
:10043000CB801046A4EB0C0440EA0740A2E7C1F1D0
:1004400020068B4022FA06FC4CEA030C07FA01F462
:1004500020FA06F3F7404FEA1C49234300FA01F85B
:100460001FFA8CFEB7FBF9F01C0C09FB107744EA6D
:10047000074400FB0EF7A74202FA01F20AD91CEB6F
:10048000040400F1FF3A80F09B80A74240F298807C
:1004900002386444E41B9FB2B4FBF9F309FB134434
:1004A00047EA044403FB0EFEA64509D91CEB0404ED
:1004B00003F1FF3780F08280A6457FD9023B644478
:1004C00043EA0040A4EB0E04A0FB02E7BC427346E3
:1004D000B94663D360D05DB1B8EB030264EB0904A5
:1004E00004FA06F622FA01F31E43CC40C5E9006483
:1004F00000214CE76208480842EAC1710B0C43EA4C
:1005000000438AB242EA0342B3FBF6F1E407B44681
:100510003746B6461F23B0FBF6F0D21B41EA004136
:1005200061E7614614E7104628E7C3F1200120FA8D
:1005300001F29E4027FA01F19F403A434FEA164EDE
:100540001FFA86FCB1FBFEF70EFB1710110C41EAF7
:10055000004107FB0CF8884504FA03F43AD97118F6
:1005600007F1FF3001D288451FD8A1EB0801B1FB8C
:10057000FEF808FB0CF70EFB181192B242EA01429A
:10058000BA422FD2B21808F1FF31C6D2BA42C4D251
:10059000A8F102013244C0E7F0459CD2BEEB020351
:1005A00067EB0C070138B94695E7A6EB080841440C
:1005B000B81EB1FBFEF808FB0CF7DCE73B467FE713
:1005C000504667E70846FBE63444023832E7023F0C
:1005D00032441BE7A1EB08013846B1FBFEF808FBEB
:1005E0000CF7C8E7414698E7704700BFDFED577A40
:1005F000574B60EEA70ABEEE006AB0EE607AA0EE3E
:10060000067A1B68D0EE060A10B5B4EEC07AF1EE99
:1006100010FAB4EEC70AD4BFF0EE407AF0EE477A93
:10062000F1EE10FAD4BFF0EE406AF0EE476AF4EE55
:10063000E06AF1EE10FAF4EEE70AC8BFF0EE606A85
:10064000F1EE10FAC8BFF0EE607A76EEA76AF6EE29
:10065000005A30EE250A66EE866AD3ED0B7A30EE4C
:10066000260AB5EEC00AF1EE10FA6CD4F7EE005A85
:10067000B4EEE50AF1EE10FAD8BFF0EE405AB6EE4D
:10068000006A37EE067A37EE267AB5EEC07AF1EEDA
:1006900010FA55D4B7EE006AB4EEC67AF1EE10FA4D
:1006A000C8BFB0EE467AB6EE006A70EE860A70EE0B
:1006B000A60AF5EEC00AF1EE10FA3ED4B7EE006AD3
:1006C000F4EEC60AF1EE10FAD8BFB0EE606AF8EEAA
:1006D000677ADB6A1F4867EEA56A27EE877AFCEE29
:1006E000E66A67EE867ABCEEC77A16EE901AFCEEE2
:1006F000E77A17EE102A994217EE904A28BF19465A
:100700009A4228BF1A469C42416328BF1C461249A0
:100710008263C4630B7803B110BD104C01F048FF35
:100720002268821AB2F5FA7F0346F5D323600C489B
:10073000BDE81040022103F035BD9FED0A6AC6E70F
:100740009FED087AAFE7DFED075A98E7D7B35D3F33
:100750000C0D0020002C014055090020B4000020A1
:100760000004004800000000F8B5134D134C2B782E
:10077000C3EBC3039F000A460646E159104805F043
:1007800037FD2B780F49104A0133DBB22B700F4D28
:1007900000200D2B08701070287005D83C440C4ABE
:1007A000238B33441360F8BD0A4B0B4801221A70A7
:1007B000BDE8F84005F084BDF70800205C7700082C
:1007C000B06F0008F5080020F4080020F3080020AE
:1007D000EC080020F2080020D06F000800000000A4
:1007E00010B500248CB02422214602A88DF80740C1
:1007F00005F044FE104803F07BF980B19FED0C7BBF
:100800000D480A940DF1070202A98DED027B8DEDD2
:10081000047B8DED067B8DED087B03F063F80748C4
:100820000749084A002303700B7013700CB010BD09
:100830000000000000000000740E002004000020F2
:10084000F5080020F40800202DE9F04F04682DED94
:10085000068BB4F1A04F97B004D017B0BDEC068B57
:10086000BDE8F08FA24BA3495B680393A24B4422DF
:1008700005A81E7805F07DFED4F880109F48D4F8B6
:100880008420D4F888300478DFED9D7A9DED0B4A02
:10089000DDED0C4A9DED0D5ADDED126ADDF84CC020
:1008A00088B2A0F5006008EE900A90B2A0F5006052
:1008B00009EE100AF8EEE88AB8EEC99A68EEA78A3F
:1008C00029EE279AF6B289B292B21FFA83FA002C67
:1008D0003AD08C48D0ED007A79EE677A8A4D9BB297
:1008E000A3F5006307EE103A2B6C686BAC6BED6BF5
:1008F00096349C4200F1960005F196098CBF0024C5
:1009000001249842B8EEC78A8CBF4FF000084FF020
:1009100001089FED7B7A99458CBF0025012508EBE6
:10092000040E984228EE078AAE4410D8994500F28A
:10093000E18178EE889A012538EEE97AB0EE48AA8E
:10094000F1EE699AA84613E0F0EE497AC6E7BEF1E7
:10095000020F00F0DE81BEF1010F38EEA77AB0EE93
:1009600048AAF0EE679A40F2D08101252C46A846AD
:10097000A1F10909A2F109001FFA89F780B2AAF1D1
:100980000909029000971FFA89F70197029F40F624
:10099000ED708742009F94BF4FF0000B4FF0010BAA
:1009A00000238742019F68F307034FF000096BF3B0
:1009B000070964F30F2394BF4FF0000B4FF0010BB6
:1009C000874265F3174394BF0020012037EE0A7A6F
:1009D0006BF31F6360F30F29002E44D1BCF1000FAD
:1009E00000F0A781BEF1010F0DD99FED486A38EEE6
:1009F000C43A79EEE43A7AEE455AA3EE064AE3EEBB
:100A0000864AA5EE865AF5EEC08AF1EE10FAF5EEAA
:100A1000C09A4CBFB1EE686AB0EE686AF1EE10FAA7
:100A20004CBFF1EE695AF0EE695AF4EEC65AF1EE97
:100A300010FAB5EEC0AAD8BFF0EE465AF1EE10FAA1
:100A40004CBFB1EE4A6AB0EE4A6AB4EEE56AF1EE26
:100A500010FAD8BFB0EE656AB4EEE66AF1EE10FAAD
:100A6000C8BFF0EE466A14930CF1010313934FF0E4
:100A70000823ADF83C10ADF83E20CDF842301D48BB
:100A8000ADF840A04FF4006305A94422ADF846300C
:100A9000ADF85490CDED058ACDED069A8DED07AAFF
:100AA0008DED089ACDED097A8DED0A8A8DED0B4A10
:100AB000CDED0C4A8DED0D5A8DED0E7ACDED126A0D
:100AC00005F057FD0C4B1B7823BB002E3FF4C5AE41
:100AD000074B0F4A5B68039811681B1A9942BFF4D1
:100AE000BCAE136017B0BDEC068BBDE8F08F00BF45
:100AF000001000E0580900205509002018090020C6
:100B00004F0A253D1C090020002C01400000803DBB
:100B100000090020A14B1B689BB3A14AA149526860
:100B2000A14B09681B68521AA049A1FB03139B0C37
:100B30004FF4966101FB03F39A4200F21B8107EE2A
:100B4000902A9B4B9FED9B7A93ED006A9A4BF8EEAF
:100B5000E76ADFED9A7A66EEA76AD3ED007AE6EEF1
:100B6000867AF4EEC77AF1EE10FAC0F2FD8077EEE5
:100B7000C77AF4EEC77AF1EE10FAF8DA904BC3EDCB
:100B8000007A08EB04032B44012B40F2D980B8F122
:100B9000000F05D0009A40F6ED739A4200F2D08023
:100BA0002CB1029A40F6ED739A4200F2C9802DB141
:100BB000019A40F6ED739A4200F2C280804A9FED9E
:100BC0007D7AD2ED007AF4EEC77AF1EE10FAC0F237
:100BD000DC8077EEC77A9FED7B7ADFED7B5A7B4B2B
:100BE00067EE877AF0EE006ABCEEE76AB0EE687AEC
:100BF000B8EE466AA9EEA67A77EEC67ADFED746A99
:100C0000E7EEA66A27EE257A68EEA65A67EE267A00
:100C100093ED007A35EEA76AB4EEC76AF1EE10FAEA
:100C200000F3AD8093ED005A37EEE57AB4EEC75A83
:100C3000F1EE10FA00F1A380F5EEC08AF1EE10FAA1
:100C4000F5EEC09A4CBFF1EE685AF0EE685AF1EE3C
:100C500010FA4CBFF1EE697AF0EE697AF4EEE57ABB
:100C6000F1EE10FAB5EEC0AAD8BFF0EE657AF1EE5B
:100C700010FA4CBFB1EE4A5AB0EE4A5AB4EEE75AF7
:100C8000F1EE10FAD8BFB0EE675A002C00F04081A8
:100C9000B5EEC09AF1EE10FA48BFB1EE499AB4EE43
:100CA000C59AF1EE10FAD8BFB0EE459A6DB1B5EE27
:100CB000C08AF1EE10FA48BFB1EE488AB4EEC98A94
:100CC000F1EE10FAC8BFB0EE489A424BD3ED007A6D
:100CD000F4EEC97AF1EE10FA40F186803E490B78C5
:100CE000FF2B01D001330B703C4B12683C4A0221B0
:100CF000197029E0BEF1020F7FF42DAE38EEA77A0D
:100D0000F0EE679AB1EE47AA32E600252C46A846D7
:100D10002EE678EE278A994537EEE87AF1EE688A72
:100D2000ECD8B0EE48AAF0EE679A01244FF0000824
:100D30001EE6B0EE4A5AF0EE694AB0EE684A62E644
:100D4000264B01221A70264A264900230B70536C49
:100D500023F400435364136A23F4AA6323F00503C6
:100D60001362B2E677EE877AF5EEC07AF1EE10FA0A
:100D7000F8D403E7194B08221A70194AE4E7174B15
:100D80001268174A09211970DEE7F5EEC07AF1EE14
:100D900010FA48BF77EE877A1DE700BF28090020C8
:100DA000001000E02C0900201000002083DE1B430F
:100DB00030090020DB0FC940340900204664193295
:100DC0005009002083F922433ACD133F0800002048
:100DD000000000000C000020FF0800205409002043
:100DE000002C0140550900206A4B6B4A93ED004AE4
:100DF000DFED6A5AD2ED007A694BDFED6A4AD3ED36
:100E0000003A694B34EE464A0021E4EE257A197027
:100E100073EEC73AF4EEE47AF1EE10FA08D4DFED9F
:100E2000634AF4EEE47AF1EE10FAD8BFF0EE674AC6
:100E30005F4B9FED5A3AD3ED005ADFED5A7AC2ED7F
:100E4000004AE3EE835AF4EEE75AF1EE10FA08D4C2
:100E5000DFED567AF4EEE75AF1EE10FAD8BFF0EE75
:100E6000657A9FED543ADFED542AC3ED007AB0EE77
:100E7000670AA3EE830AF0EE645AE4EE035A20EE0A
:100E8000004AA5EEA54AB4EEE24AF1EE10FA42DCC1
:100E90004A4A4B4B82ED006A4A494B4A83ED007A3D
:100EA0004A4BC1ED005A82ED000AD3ED004A484A90
:100EB00036EE246A69EEA97A83ED006AE8EEA87A34
:100EC000444B92ED006A36EE077AEAEE0A7A82ED3A
:100ED000007A93ED007A404A77EE877A20EE260A70
:100EE000C3ED007AD2ED007AB4EEE75AF1EE10FAD3
:100EF000C8BF82ED005A394A1368F0EE400A013348
:100F0000E5EEA60A136095EEA60AFFF76FFBDCE597
:100F1000B0EE459ACAE6B1EEC43ADFED243A83EE6C
:100F2000834A25EE843A20EE044A73EE655A75EE44
:100F3000A45ADFED1C4AF4EEE45AF1EE10FA23D481
:100F4000F4EEE35AF1EE10FAD8BFF0EE653A74EE23
:100F5000404ADFED145AC2ED003A74EEA74AF4EEAF
:100F6000E54AF1EE10FA12D4DFED107AF4EEE74A1A
:100F7000F1EE10FAD8BFF0EE647AB0EE440AF0EE6B
:100F8000435AC3ED007A83E7F0EE643ADFE7F0EE10
:100F9000657AF2E74C0900202409002017B7513880
:100FA00048090020D7A3F0BEFF080020D7A3F03ED9
:100FB00020090020A69B443B9C33623E440900204C
:100FC000400900203C0900203809002014090020B5
:100FD000100900200C090020080900200409002045
:100FE00010B588B00A46069001210120CDE9040120
:100FF00000231848079202A9CDE9023302F00CFC45
:1010000008B172B6FEE7012440F2812240F20133BA
:101010001048039402A9CDE9062302F0FDFB08B1B4
:1010200072B6FEE702220B4800942346114602F0F6
:101030001FFC08B172B6FEE7064802F03BFC08B19F
:1010400072B6FEE7044A137843F00103137008B048
:1010500010BD00BF740E0020FE08002070B58AB0DD
:10106000044615460E462422002101A805F006FA82
:10107000B4F5006F01D2082D02D900200AB070BD6E
:101080000C4802F035FD0028F7D00023324601A9B4
:1010900008480993CDE90143CDE90335CDE905338E
:1010A000CDE9073302F01EFCB0FA80F040090AB027
:1010B00070BD00BF740E00202F4B1B780D2B00D984
:1010C00070472DE9F04FDFF8CC90C3EBC30309EB79
:1010D00083089C00D8F804A098F808B004F1090728
:1010E0004F4485B006465A4639465046FFF7B6FF8C
:1010F000E0B1224A224B157859F804100135EDB2BF
:101100001570204A166001221A70BBF1000F2AD018
:1011100040F20122924598F809300AD098F80A2046
:10112000009219480195524605F062F805B0BDE8F5
:10113000F08FB87897F801E098F80FC098F80D6034
:10114000000440EA0E201843FB78CDE901C54C4469
:1011500040EA0363A07B46EA0026524600960B480D
:1011600005F046F8E2E70A482B46524605B0BDE8CE
:10117000F04F05F03DB800BFF7080020F30800204D
:10118000F5080020E8080020E870000888700008D2
:101190004C7000085C77000870B58AB015460646AA
:1011A00028220C466846002105F068F90E484021C7
:1011B00002F094FC10B900200AB070BD0A48234622
:1011C0006A46402102F0F0FB0028F4D1DDE901324B
:1011D0001343F0D1039B009A3260082B28BF0823E9
:1011E00001202B700AB070BD740E002010B5144B96
:1011F00082B01B780190C3B11249134B0A88B3F82F
:1012000000C0531CC3F30A039C4504D00F4C0B8051
:10121000A05402B010BD0E4A13884FF6FF718B42E6
:10122000F7D00133138002B010BD4FF0FF3301221D
:1012300001A9084804F06AFB019802B010BD00BF84
:10124000B8000020BE000020BC000020C00000202C
:10125000BA000020780C002000B595B0382200219B
:1012600006A805F00BF900234FF40070CDE9013317
:10127000CDE90333059303F0B5F822214FF48072D2
:10128000069109924021012202230A910C921C210D
:10129000042206A8CDE90D33CDE90F31CDE9113295
:1012A000139303F019F908B172B6FEE70346032160
:1012B0000F2201A8CDE90121CDE90333059303F005
:1012C00085FB08B172B6FEE715B000BD2DE9804878
:1012D000ABB001F051F9342200211BA805F0CEF883
:1012E0001BA802F0FBFD219B03F04063B3F1006FEC
:1012F00022D002F003FC08B172B6FEE702F01EFC39
:1013000020B102F02FFC02F00DFCF5E704214FF4B0
:10131000C0424FF000631BA8CDE920231B9102F0CF
:1013200063FC0028EDD102F053FC044602F01AFCE5
:1013300002F0F8FB002CDFD10024FFF78DFFCDE990
:101340001B44CDE91D44B34B1F94D96C41F02001DF
:10135000D964D96C01F0200108910899D96C41F049
:101360000401D964D96C01F0040109910999D96C7F
:1013700041F00101D964D96C01F001010A910A9987
:10138000D96C41F00201D964DB6C03F00203224600
:101390000B9302214FF090400B9B02F0FDFE0122C7
:1013A00010214FF0904002F0F7FE22469A480321A8
:1013B00002F0F2FE01254FF090401BA90227CDE973
:1013C0001B541D9402F0EAFD1BA94FF0904010261B
:1013D000CDE91B75CDE91D4402F0E0FD1BA94FF0DE
:1013E0009040CDE91B65CDE91D4702F0D7FD0323F1
:1013F00089481B931BA9CDE91C541E9402F0CEFD15
:1014000085481D941BA9CDE91B6402F0C7FD8349E3
:10141000834A0A604FF416534B6008460C23C1E917
:101420000244C1E90443C1E90644C1E908448C62AD
:1014300004F03EFD08B172B6FEE70146774804F0BD
:10144000A9FD014608B172B6FEE7744804F0C8FD74
:1014500008B172B6FEE7714804F07EFD08B172B6BD
:10146000FEE705246F496D484FF47A73372204F084
:101470004DFA6D4969484FF47A73112204F046FA27
:10148000013C4FF4FA7001F099F814F0FF04E9D12F
:1014900013AD0FAF202221460F942846C7E901441F
:1014A000624E04F0EBFF3C2221461BA804F0E6FF4D
:1014B0004FF400334FF0A04E4FF00108C6E900E3AF
:1014C00030460823C6E90244C6E90B443461B483BC
:1014D00086F82440F46386F84040C6F81480C6F8C5
:1014E0002080B36186F8384001F07AF808B172B60E
:1014F000FEE7394630460F9401F0C8FF08B172B6D6
:10150000FEE7DFF844A115947F2204234FF0060B79
:1015100029463046CDE91623CDE913AB189401F0E6
:1015200081FA04237F2208B172B6FEE7CDE91E23BB
:10153000032323934FF0A00C8023CDE925C3CDF8DE
:101540006CA009234FF0020A1BA930462094ADF885
:1015500090408DF892408DF89C40CDF874A01C937B
:1015600001F0BCFC08B172B6FEE7314940F20F133E
:10157000CDE91B1330461BA901F0B0FC08B172B6CF
:10158000FEE72C4A40F2152330461BA9CDE91B2368
:1015900001F0A4FC08B172B6FEE72748274B0360B0
:1015A0000E23C0E90144C0E90888C0E90A88C0E9FF
:1015B0000E448474C0F81CB0C0F834A0C460A0F815
:1015C0001080C0F81880C0F83080436102F036F80F
:1015D00008B172B6FEE71A4E1A4B3360A3F1F95305
:1015E000A3F56E23A3F22B533046C6E90248C6E9A1
:1015F0000444C6E906443462736002F0DDFD08B1BC
:1016000072B6FEE72146304602F030FEF0B172B607
:10161000FEE700BF0010024000040048780C0020E4
:10162000003801402477000824710008D80E0020FB
:101630008000501D00018021740E002000640040D5
:10164000200E002000780040400020197048002142
:1016500002F036FE034608B172B6FEE76D48C0E9F7
:101660000833C0E90C338360036183626A4B4FF433
:10167000827AC0E9003A4FF4706938234FF00108CC
:101680004FF400760724C361C0E90586C0F80C90CA
:10169000C46203F013FC034608B172B6FEE75F486C
:1016A000C0E90833C0E90C338360036183625C4B9B
:1016B00003601823C462C0E90586C0F804A0C0F81E
:1016C0000C90C36103F0FAFB044608B172B6FEE762
:1016D0000DF13008534E13900F90C5E90100C7E992
:1016E0000100C5E90300C5E90500C8E90100F8608B
:1016F0000C90014634221BA804F0C0FE4A4B336014
:10170000304640F6EF23C6E90144C6E90444B4611B
:10171000F36003F0C1FE08B172B6FEE74FF48053E8
:10172000394630460F9303F0A3FD08B172B6FEE7C9
:10173000304603F0E3FE08B172B6FEE70C900E905F
:101740004FF4E003414630460D9304F009F8024699
:1017500008B172B6FEE7CDE91500CDE91700199082
:101760006023322429463046CDE9133403F074FF58
:1017700008B172B6FEE7149004222946304603F001
:101780006BFF08B172B6FEE7304608222946149472
:1017900003F062FF08B172B6FEE7702240F69F23A5
:1017A000CDE913231F480C22294603F01DFF08B181
:1017B00072B6FEE70B22CDE91D024FF40052CDE9CF
:1017C0001F024FF00072CDE91B00CDE92100CDE9E9
:1017D0002302CDE9250027901BA9124804F012F836
:1017E000044608B172B6FEE70E4800F045FD0F480A
:1017F0000F4BC472036002244FF402738380C0F85D
:10180000074002F087FD0246A0B172B6FEE700BFB6
:10181000200E0020BC0D002000300140580D00209B
:10182000003C00400C0D0020002C01409C090020D1
:10183000005C004021469E4C9E4BD4F8FC009E4E1E
:10184000DFF82883DFF828B340F08070C4F8FC008C
:101850005A601868994C40F001001860984B586C19
:1018600020F400405864186A204018623270954E87
:1018700000203060944E30609448954E0280954828
:101880000280586C20F400405864186A20401862A6
:101890004FF0904002F080FC8F4A137840F28111A3
:1018A00023F0040381201370FFF79AFB00F080FE01
:1018B0008A4B643818608A4B8A48012281211A7049
:1018C00004F096FC884804F0FBFC884804F0F8FC1F
:1018D000874804F0F5FC00F06BFE8649864B0A88C9
:1018E0001B88934282460AD08448C3691C0606D5E9
:1018F000834C531CC3F30A03A25C82620B80814BAE
:101900001B782BB1754B1B68AAEB0303632B25D8FF
:1019100054463A461BA92846FFF73EFC002837D01C
:101920009DF83C30082B12D1139B40F28112934258
:1019300000F0948240F28122934200F0E58140F26F
:101940000132934200F0D282812B00F013816E4A63
:101950001378FF2BDDD001331370DAE76B4A5F4B4E
:10196000C3F800A013788DF86D30013313701BA9F4
:101970000523022280208DF86C30FFF76FFB0028D2
:10198000C6D1634A1378FF2BC2D001331370BFE76F
:10199000604A9BF8003012781343A2469BD15E4BFD
:1019A0001B78002B35D05D4B1B7883B15C4B1B68DB
:1019B000E31AB3F57A7F0AD3D8F80030E31AB3F507
:1019C0007A7F04D3574804F07BFCC8F80040564B9C
:1019D0001A78002A3BD1554B1B786BB3544B1B68CC
:1019E000AAEB0303B3F5FA7FFFF475AF514B1B78F5
:1019F000022B1BD9504B51481B781C2202FB03F3CE
:101A0000F15804F0F5FBFEF7EBFE01238BF80030F4
:101A100061E7D8F80030E31AB3F57A7FFFF45BAFE3
:101A2000474804F04DFCC8F8004054E73F4B50468F
:101A30001A70FFF741FB4EE7424B1B68AAEB03030A
:101A4000002BFFF648AF5046FFF736FB43E73E4B0F
:101A50001B68AAEB0303B3F57A5FFFF43CAF364B88
:101A60003A481B781C2202FB03F34FF47A52F158D8
:101A7000374B1B780593374B1B780493364BB3F9E0
:101A800000300393354BB3F900300293344BB3F974
:101A900000300193334B1B680093334B1B6804F0F9
:101AA000A7FBFEF79DFE01238BF8003013E700BF74
:101AB00000ED00E0001000E055090020AAFAFFFF49
:101AC000002C01404C09002048090020F8080020A3
:101AD0005C770008FA080020FE080020DC080020DF
:101AE000B80000203871000884710008B87100083F
:101AF00040720008BC000020BE00002000380140F9
:101B0000C000002004000020FC080020D4080020B1
:101B1000FD080020F2080020F6080020F008002050
:101B2000E40800200C750008F4080020F5080020E7
:101B3000E8080020F3080020F7080020F4750008EA
:101B4000CC740008EC080020D80800204475000878
:101B5000C0080020C1080020C8080020CA080020D2
:101B6000CC080020C4080020D0080020E008002095
:101B7000F1080020A04B9DF86D201C609F4BA048F1
:101B800019789DF871C00123914203709DF86E3061
:101B90009DF8700004D19B490978994200F0B28108
:101BA0009DF8731004919DF8721003919DF86F10C9
:101BB0000091CDE9010C9DF86C10934804F018FBDE
:101BC0008E4A9DF86D3013708E4A9DF86E301370FA
:101BD0008E4A9DF8703013708D4A9DF87130C8F8A8
:101BE000004013709DF86C20052A0CD09BF8003043
:101BF0001BB98848052104F0FBFAFEF7F1FD01232B
:101C00008BF8003085E6844B1B78002B42D0834B49
:101C1000834A1B7812780D2B03D89DF86D10042988
:101C200050D07F4B1B78002B3FF473AE7B4B1B785F
:101C30001C2202FB036393F8169093F811E093F8CB
:101C400012C0D87C1A7D597DB9F1000F7FF461AEC6
:101C50009DF86D3073457FF45CAE9DF86E30634542
:101C60007FF457AE9DF8713083427FF452AE9DF8F9
:101C70006F30C3F380038B427FF44BAEFF2A04D056
:101C80009DF8703093427FF444AE66492046FEF7DB
:101C90006BFD3EE69DF86D30012BC2D19DF86E20A4
:101CA000002ABED19DF86F209106BAD55207B8D44C
:101CB000594A5D4813705D4A04F5FA73136004F0E5
:101CC000FFFAAEE72AB11C2202FB03625268002A27
:101CD000ACD01C2202FB03F39DF86E10F258544B5B
:101CE0005448B3F900300393534BB3F900300293D7
:101CF000524BB3F900300193514B1B680093514B89
:101D00001B6804F075FA78E74E491B9A0A604B4944
:101D10004D4BBDF9700008804C4993F800C09DF808
:101D200072E04B4B81F800E09DF873100791197039
:101D3000BCF1000F3FF4EDAD384B93F800C0BCF19F
:101D40000D0F3FF6E6AD1C2303FB0CF306EB030976
:101D500099F8161001297FF4DCAD0933F11899F8D0
:101D600009908B7891F801A01B0443EA0A2343EA07
:101D70000909CB7849EA0369B2EB09034FEAE2713A
:101D800061EBE9710029069303DA5B42069361EB8C
:101D900041014FF01C0909FB0CFA06EB0A0C80EA22
:101DA000E0799CF814C0A9EBE079F4451FFA89F9B1
:101DB0007FF4AFAD079B03F0170CBCF1170F7FF456
:101DC000A8AD069BFB2B71F10001BFF6A2ADB9F1E6
:101DD000020F3FF69EAD184B0090B3F9003001930F
:101DE000174B56F80A101B681A4804F001FA1A49F2
:101DF0002046FEF7B9FC8CE5E40800200300002033
:101E0000F0080020020000204073000801000020BC
:101E100000000020B4730008F6080020F708002036
:101E2000F5080020C07400087C740008EC0800204D
:101E3000C8080020E8730008CA080020CC08002069
:101E4000C4080020D0080020F4080020C1080020A9
:101E5000C0080020D07200082C7300089DF8733071
:101E60000093BDF870209DF872301B992E4804F045
:101E7000BFF92E4B1B78002B3FF44BAD2C4B1A783F
:101E80001C2302FB03F3F118887D01287FF441AD88
:101E9000087A08287FF43DADC97C9DF8730088421C
:101EA0007FF437AD083333441BA94FF0070911F80D
:101EB000010B13F801CF844509F1FF397FF429ADF7
:101EC00019F0FF09F3D11C2303FB02F21948B158A2
:101ED00004F08EF9154B184A83F80090174B83F8DD
:101EE0000090174B1C600123137012E5154ABDF8D2
:101EF0006C301380144ABDF86E301380134A1C9B5B
:101F0000136006E51249097881427FF449AE114910
:101F1000097861457FF444AED8F80010611AB1F534
:101F20007A7FFFF45FAE3BE674720008F50800208C
:101F3000F70800203C760008F4080020F308002091
:101F4000D8080020CA080020C8080020C4080020C3
:101F5000010000200000002072B6FEE70B4B1A6E55
:101F600042F0010282B01A661A6E02F0010200927B
:101F7000009A9A6D42F080529A659B6D03F08053EF
:101F80000193019B02B002F09FBA00BF0010024013
:101F900010B5044698B00021442207A8CDE90211EB
:101FA000CDE90411069104F069FA2368B3F1A04F5A
:101FB00001D018B010BD4FF400424FF0005307A8F5
:101FC0000792169302F02AFE30BB174B1748DA6CC3
:101FD00042F40052DA64DA6C02F400520092009A81
:101FE000DA6C42F00402DA64DB6C9FED0D7B03F0E7
:101FF000040302A9019300248DED027B019B04944C
:1020000001F0CCFF22460121122001F0B5FA122086
:1020100001F0ECFA18B010BDFFF79EFFD5E700BF46
:102020000700000003000000001002400008004804
:1020300010B5044698B00021442207A8CDE902114A
:10204000CDE90411069104F019FA1F4B22689A4257
:1020500001D018B010BD4FF480524FF0007307A8A4
:102060000792139302F0DAFD10BB184B18489A6DD3
:1020700042F000729A659A6D02F000720092009A26
:10208000DA6C9FED0D7B42F00202DA64DB6C8DEDC1
:10209000027B9FED0B7B03F00203019302A909234E
:1020A0008DED047B019A069301F078FF18B010BD06
:1020B000FFF752FFD9E700BF000300000200000055
:1020C0000000000003000000006400400010024017
:1020D000000400480000000010B5044698B000213C
:1020E000442207A8CDE90211CDE90411069104F0BC
:1020F000C5F91B4B22689A4201D018B010BD4FF4AD
:10210000807307A8079302F089FD10BB154C164891
:10211000E36C43F00403E364E36C9FED0F7B03F097
:10212000040300930823009A06930022002302A9C7
:10213000CDE904238DED027B01F030FFA36D43F068
:102140008043A365A36D03F080430193019B18B006
:1021500010BDFFF701FFD9E70003000012000000E7
:102160000078004000100240000800480000000015
:1021700010B5026832498CB000238A42CDE906339B
:10218000CDE908330A9304D02E4B9A4226D00CB0E6
:1021900010BD03F1804303F504339FED257B1A6ED8
:1021A00042F480521A661A6E02F480520192019A29
:1021B000DA6C42F00102DA64DB6C03F00103029393
:1021C0000322052306A94FF090408DED067BCDE953
:1021D0000923029C01F0E2FE0CB010BD03F5EA33C6
:1021E0009FED157B9A6D184842F400429A659A6DEE
:1021F00002F400420392039ADA6C42F00102DA64BC
:10220000DA6C02F001020492049ADA6C42F00402E1
:10221000DA64DB6C03F00403059306A906238DED55
:10222000067B059A0A9301F0B9FE0CB010BD00BF01
:10223000E000000002000000001C0000020000009E
:1022400000300140003C004000080048094B026893
:102250009A4200D0704703F5644382B01A6E42F48C
:1022600000621A661B6E03F400630193019B02B0C7
:10227000704700BF002C014070B5234B026888B046
:1022800000249A42CDE90244CDE90444069401D0E9
:1022900008B070BD03F564430625DA6C1B4842F0B4
:1022A0000202DA64DA6C02F002020092009ADA6C3E
:1022B00042F00102DA64DB6C069503F001034FF48F
:1022C000C042019302A90223CDE902230226019B09
:1022D00001F064FE4FF40043CDE9023602A9042365
:1022E0000A480693CDE9044401F058FE4FF4E06338
:1022F00002A94FF09040CDE90364CDE90545029372
:1023000001F04CFE08B070BD002C014000040048F4
:1023100010B5044698B00021442207A8CDE9021167
:10232000CDE90411069104F0A9F81D4B22689A42E8
:1023300001D018B010BD012307A8079302F06EFC6E
:1023400010BB184B18481A6E42F480421A661A6E77
:1023500002F480420092009ADA6C9FED0D7B42F00D
:102360000402DA64DB6C8DED027B9FED0B7B03F0E6
:102370000403019302A907238DED047B019A0693C0
:1023800001F00CFE18B010BDFFF7E6FDD9E700BF65
:10239000300000000200000000000000000000000B
:1023A00000380140001002400008004810B5044603
:1023B00092B04422002101A804F060F80D4B22687D
:1023C0009A4201D012B010BD4FF4005301A80193FE
:1023D00002F024FC58B9084B9A6D42F400029A6549
:1023E0009B6D03F400030093009B12B010BDFFF738
:1023F000B3FDF0E7005C004000100240FEE700BFC4
:10240000FEE700BFFEE700BFFEE700BFFEE700BF3C
:10241000704700BF704700BF704700BF00F0BCB8F6
:10242000014800F0DDB900BFD80E002070B5161EBF
:1024300007DD0C468D19AFF3008004F8010BA542AF
:10244000F9D1304670BD00BF70B5161E07DD0C46D1
:102450008D1914F8010BFEF7C9FEA542F9D13046DB
:1024600070BD00BF4FF0FF30704700BF4FF4005306
:102470004B600020704700BF01207047002070476C
:102480000C490D4A0B6810B50C4C121B2BB11844AB
:10249000904207D80860184610BD094B0B601844DD
:1024A0009042F7D904F038F80C2303604FF0FF3363
:1024B000184610BD440F00200080002000040000DA
:1024C00098100020034AD2F8883043F47003C2F811
:1024D0008830704700ED00E00D488546FFF7F2FFB9
:1024E0000C480D490D4A002302E0D458C45004336F
:1024F000C4188C42F9D30A4A0A4C002301E0136045
:102500000432A242FBD304F00DF8FEF7DFFEFEE733
:10251000008000200000002098000020787900084A
:102520009800002098100020FEE7000038B50F4BFF
:102530001B680BB9012038BD0D494FF47A7205466E
:10254000B2FBF3F30868B0FBF3F001F05DF804466A
:102550000028EFD10F2DEDD8024629464FF0FF306D
:1025600001F00AF8034B20461D6038BD140000201E
:10257000100000201800002010B5032000F0EAFF32
:102580000F20FFF7D3FF10B10124204610BD0446F1
:10259000FFF7E4FC204610BD034A044913680968AC
:1025A0000B441360704700BF480F00201400002048
:1025B000014B1868704700BF480F002038B504462B
:1025C000FFF7F6FF631C054602D0044B1B681C4452
:1025D000FFF7EEFF401BA042FAD338BD14000020E5
:1025E00030B583B000230193002800F0B180C56DA1
:1025F0000446002D00F0AF80226893689D0005D549
:10260000936823F0204323F03F0393609368D8003E
:1026100019D46B4B6B481B6891689B09A0FB0303A3
:1026200021F010419B0921F03F0101335B0041F093
:10263000805191600193019B2BB1019B013B019360
:10264000019B002BF9D19368D90076D4E36D43F058
:102650001003E365236E012003432366936813F0A0
:10266000040FE36D70D1DB066ED4E36D23F4817348
:1026700043F00203E3659368DD0709D44FF0A043FC
:102680009B6813F0010F504B9B6801D1D9077FD590
:10269000E568E36B94F824102B43A5682B43657F12
:1026A000012943EA453343EA01435AD0E16A21B1A3
:1026B000256B01F4787129430B43D56843492940C0
:1026C0001943D1601369616B23F040630B431361BD
:1026D00093681B0722D4D16894F83830257F21F401
:1026E00080415B0021F0020143EA85330B432169FD
:1026F000D3601369002941D043F480331361D2F8C9
:10270000C0306FF30D030B43C2F8C03094F8403073
:10271000012B45D0136923F0010313616369012B79
:1027200024D0136B23F00F031363E36D23F0030333
:1027300043F00103E36503B030BD936813F0040F69
:102740004FF00000E36D8ED0E36D43F01003E365BE
:10275000012003B030BDFFF71BFC256684F85850FC
:102760004AE7A16A013943EA41439FE7116B236AB3
:1027700021F00F01013B0B431363D6E723F48033B1
:102780001361D2F8C0306FF30D03C2F8C030BDE75B
:102790000F4965688B6823F47C132B438B6077E7C4
:1027A0001169636CA56C6FF38A012B430B43E16CD9
:1027B0000B43216D0B4343F001031361AEE700BFF0
:1027C00010000020632D3E05000100500740F0FF7F
:1027D00000030050704700BF704700BF704700BF44
:1027E000F8B503688D4A1D685E689768A9070446B6
:1027F00007F01F0702D5B20700F19F80690779D55E
:10280000720777D5E26DD20603D4E26D42F400720E
:10281000E265DA6812F4406F1CD1814A934200F0FD
:10282000DD80DA68910415D41A68120712D59A6807
:10283000500700F1E1805A6822F00C025A60E36D03
:1028400023F48073E365E36DD90403D4E36D43F0AF
:102850000103E3652046FFF7BDFF23680C221A60E1
:10286000AA064DD5B0064BD5E26DD00603D4E26D75
:1028700042F40052E2656A49DA6CD8688B4202F48D
:10288000C07268D0D968D2B98A0100F19F801A68F5
:10289000500614D5890212D49A68120700F1B58047
:1028A0005A6822F060025A60E36D23F48053E365B6
:1028B000E36DD80503D4E36D43F00103E3652046DF
:1028C000FDF7C2FF236860221A60290601D532068F
:1028D00055D4E80501D5F1055CD4AA0501D5B005AC
:1028E00041D4E90601D5F2060FD4690501D5720578
:1028F0005CD4F8BD2807B3D5310783D4AA06B1D478
:102900006906E2D57206E0D5AEE7E26B32B1002F80
:102910006ED0424A926812F4604F0BD0E36D43F4DC
:102920008063E365236E43F0020323662046FFF7CE
:1029300055FF236810221A60D7E7C36DD80603D469
:10294000E36D43F40063E365204600F0C5FA2368B5
:1029500002221A6052E7C121F940C90792D44FF010
:10296000A041C9688FE7E36D43F48023E365204607
:1029700000F0B0FA23684FF400721A60B1E7E36D1B
:1029800043F48033E3652046FFF726FF2368802267
:102990001A609EE7E36D43F40033E365204600F0E0
:1029A00097FA23684FF480721A6096E7E26D42F45A
:1029B0008042E265226E4FF4806142F00802226696
:1029C00020461960BDE8F84000F080BA00F440608D
:1029D00001F4005202437FF472AF58E740F2212223
:1029E000FA40D0073FF51DAF4FF0A042D26819E77B
:1029F000DA68D0079ED591E7E36D43F01003E365F5
:102A0000236E43F00103236624E7E36D43F01003D4
:102A1000E365236E43F00103236650E70003005093
:102A200000010050F0B590F8582083B00346012A09
:102A30004FF00000019000F05E811A68012083F8D9
:102A400058009468640708D5DA6D42F02002DA6510
:102A5000002283F8582003B0F0BD48684FEA901E6A
:102A600000F01F0C0EF00C0E086802F13004C0F3E9
:102A7000846054F80E501F2600FA0CF006FA0CFC85
:102A800025EA0C0C40EA0C0044F80E00906810F0A7
:102A9000040F906840F09D8010F0080F08684AD13C
:102AA0008D68C0F304560724C00DB440B5F1004F43
:102AB00000F004006FEA040400F0408102F1140702
:102AC000B5403E5834402C433C50506920F0004003
:102AD00050610F69D4680868042F48D0C4F3C1045A
:102AE000650002F16004B54E54F827C000F0F840CC
:102AF0000CEA060606434869A840304340F000400F
:102B000044F827000D698E6954F8250020F0807084
:102B1000304344F825000E690D7F54F82600A5F1D6
:102B20000105B5FA85F56D0920F0007040EA4560B1
:102B300044F8260008689468E707064612D4CF6870
:102B40009F4CD2F8B05007F0180C24FA0CF4C0F3E4
:102B5000120C044025EA0C052C43C2F8B040994CF5
:102B6000A74279D098490E4235D1002070E7146E03
:102B7000146EC0F31205C4F38464002D40F0E880A5
:102B8000C0F38466B44200F06681546E556E02F163
:102B90006004C5F3846502F1640CB54200F07081F5
:102BA000A568A56804F10807C5F38465C0F38466C9
:102BB000AE4200F03E81E568E56804F10C06C5F31D
:102BC0008464C0F38465A542B5D1306820F000402C
:102BD00030600868AFE77D487D4C8168A64201F00F
:102BE000E07516D07B4CA64213D07B4CA64200F079
:102BF00085807A4CA642B8D14902B6D478498A4237
:102C0000B3D0826822F0E0722A4342F480028260EC
:102C1000ABE70E02A9D4B2F1A04FA6D16B4971481F
:102C20008A6822F0E0722A4342F400028A60026855
:102C30006D499209A1FB02129209013202EB420294
:102C400092000192019A002A8FD0019A013A0192D2
:102C5000019A002AF9D188E7BCF1000F5DD090FA03
:102C6000A0F4002C00F0C280B4FA84F4013404F023
:102C70001F04092C40F2BA8090FAA0F4002C00F056
:102C80001781B4FA84F40134A40604F0F84490FAED
:102C9000A0F5002D00F00A81B5FA85F5013505F0A3
:102CA0001F05012606FA05F52C4390FAA0F000282E
:102CB00000F0FA80B0FA80F0013000F01F0000EB65
:102CC00040001E38000540F000700443E50D8868A0
:102CD00002F1140605F00405C4F3045400FA04F7E5
:102CE0004FF0070C70590CFA04F420EA0400384342
:102CF00070510E6836E7022003B0F0BDCC013FF5FD
:102D000034AF37498A423FF430AF826822F0E07234
:102D10002A4342F08072826027E7800E013000F083
:102D20001F050124800600F0F840AC40092D44EA5C
:102D3000000405EB4500C4D80005C6E702F11406FF
:102D400035582C403450506940F000405061C0E686
:102D500090FAA0F51DB1B5FA85F5AC427BD0546E62
:102D6000556E02F16004C5F3846502F1640C90FABB
:102D7000A0F604F10807BE4626B1B6FA86F6AE42C2
:102D800000F08080A568A568C5F3846590FAA0FC72
:102D900004F10C06B646BCF1000F03D0BCFA8CFC63
:102DA000AC4548D0E568E468C4F3846490FAA0F5C3
:102DB000002D3FF4C0AEB5FA85F504E700F0FF033F
:102DC000FFFF070000007F40000008800003005064
:102DD000000021C31000C090000052C7000084CB47
:102DE0000001005010000020632D3E0590FAA0F471
:102DF000002C65D0B4FA84F40134A40604F0F8443D
:102E000090FAA0F5002D59D0B5FA85F5013505F0F9
:102E10001F05012606FA05F52C4390FAA0F00028BC
:102E200049D0B0FA80F0013000F01F0000EB400004
:102E300082E704F10C0E386820F000403860E0684A
:102E40000868E468C0F312057646C4F38464002D74
:102E50003FF4B7AEAAE7106E144620F0004044F8E5
:102E6000600F506E0868556EC0F3120602F1640CD4
:102E7000C5F38465002E7FF47AAFC0F384668CE6D8
:102E800004F1080EDCF8000020F00040CCF800004F
:102E9000A0680868A568C0F312067746C5F3846584
:102EA000002E3FF483AE71E707480EE70225FBE6EC
:102EB0004FF08064EBE64FF4401006E70225ABE7E5
:102EC0004FF080649CE700BF000050FE704700BFD9
:102ED000704700BF704700BF704700BF2DE9F04149
:102EE00090F8583082B00022012B019200F0A881A6
:102EF0008446012380F85830DCF81440DCF80030B8
:102F0000D1E90020002C72D00C6A012C6FD0DCF8C3
:102F1000686000F01F00C2F384658540002E40F019
:102F20001581886A013C002800F01382CE6A00F007
:102F30007C00204330432843CCE9190498680707F4
:102F400010D491F8260091F825404005002C40F05F
:102F5000F280DC6891F8245024F4401440EA0550D3
:102F60002043D860986810F0040057D0986800207B
:102F70009C68E50713D4CE68B34CD3F8B05006F084
:102F80001807FC40C2F31207144025EA070E44EA72
:102F90000E04C3F8B040AD4CA64200F0F580AC4939
:102FA0000A421ED0AB4DAC4CA968A24201F0E076BB
:102FB00000F09B80A94CA24200F09780A84CA2424E
:102FC00000F05C81A74CA2420BD14A0209D4A64A68
:102FD000934206D0AB6823F0E073334343F480039D
:102FE000AB6000238CF8583002B0BDE8F0810928AE
:102FF000A4D1886A540C04F4785420B1CD6A00F04E
:103000007C0028430443D86C984D28402043D86462
:103010009868CCF864400707A4D492E79C68260718
:10302000A6D48C6A91F82500002C40F0A4800128D9
:10303000D86800F0908120F00070D860002091F8EE
:103040003040012C00F07A811C6924F002041C61DC
:103050008D68C2F304560724D20DB440B5F1004F79
:1030600002F004026FEA040400F05E8103F1140729
:10307000B540BE5834402C43BC505A6922F000423F
:103080005A610F69DC680A68042F00F00681C4F3F6
:10309000C104660003F16004754D54F827E002F0A6
:1030A000F8420EEA05052A434D69B540154345F03F
:1030B000004544F827500E698D6954F8262022F007
:1030C00080722A4344F826200E690D7F54F826208A
:1030D000A5F10105B5FA85F56D0922F0007242EA05
:1030E000456244F826200A6842E70C023FF579AFB2
:1030F000B3F1A04F7FF475AF564A5E49936823F051
:10310000E073334343F4000393600B685A4A9B090E
:10311000A2FB03239B0903EB43039B00183301939A
:10312000019B002B3FF45DAF019B013B0193019B91
:10313000002BF9D155E7DC6824F440142043D86013
:10314000986810F004003FF469AF0FE7DCF86440C2
:10315000013E2C43CCF86860CCF86440002E7FF42C
:10316000EDAED86C414D28402043D86498680707DD
:103170003FF5F8AEE5E6CC6A002C3FF458AF0128E5
:1031800000F03181D86856E747BB940E013404F053
:103190001F050122A406AA4004F0F844092D44EAC0
:1031A000020405EB450249D91E3A120542F00072AD
:1031B0001443E50D8A6805F0040503F11406C4F311
:1031C000045402FA04F74FF0070E72590EFA04F491
:1031D00022EA04023A4372510A68E0E692FAA2F443
:1031E0003CB1B4FA84F4013404F01F04092C00F259
:1031F000D78092FAA2F4002C00F04181B4FA84F452
:103200000134A40604F0F84492FAA2F5002D00F06F
:103210003481B5FA85F5013505F01F05012606FA5A
:1032200005F52C4392FAA2F2002A00F02381B2FAAB
:1032300082F2013202F01F0202EB42021205B7E7EE
:10324000022002B0BDE8F081FFFF070000007F40D0
:103250000000088000030050000021C31000C0904F
:10326000000052C7000084CB000100500040100451
:1032700000F0FF0310000020632D3E05C9013FF55B
:10328000B0AE804A93423FF4ACAEAB6823F0E0733B
:10329000334343F08073AB60A3E61C6E1C6EC2F335
:1032A0001205C4F38464002D59D092FAA2F525B119
:1032B000B5FA85F5AC4200F0AE805C6E5D6E03F150
:1032C0006004C5F3846503F1640E92FAA2F604F17A
:1032D0000807B84626B1B6FA86F6AE4200F0B280CC
:1032E000A568A568C5F3846592FAA2FE04F10C06F0
:1032F000B046BEF1000F03D0BEFA8EFEAE457BD0C5
:10330000E568E468C4F3846492FAA2F5002D3FF402
:103310002FAEB5FA85F5A5427FF42AAE326822F0C9
:10332000004232600A6823E603F11406B5582C40C7
:10333000B4505A6942F000425A61A2E6D1E90D4602
:103340001D69344325F4FF752C4344F002041C61CD
:103350007EE62046EFE540F00070D8606EE6C2F3EE
:103360008466B44257D05C6E5D6E03F16004C5F3B1
:10337000846503F1640EB54262D0A568A56804F1C6
:103380000807C5F38465C2F38466AE4232D0E568AF
:10339000E56804F10C06C5F38464C2F38465BAE7FA
:1033A00092FAA2F4002C60D0B4FA84F40134A4069A
:1033B00004F0F84492FAA2F5002D54D0B5FA85F540
:1033C000013505F01F05012606FA05F52C4392FA92
:1033D000A2F2002A4CD0B2FA82F2013202F01F02AD
:1033E00002EB4202E0E6DCF85C4044F02004CCF85A
:1033F0005C4024E604F10C083A6822F000423A608E
:10340000E2680A68E468C2F312054646C4F38464BD
:10341000002DC2D078E71A6E1C4622F0004244F814
:10342000602F5A6E0A685D6EC2F31206C5F384659A
:1034300003F1640E002E7FF448AFC2F384669AE76E
:1034400004F10808DEF8002022F00042CEF8002047
:10345000A2680A68A568C2F312064746C5F38465E8
:10346000002E90D040E70225B0E74FF08064A1E73E
:10347000054A9DE64FF440129AE60225D1E64FF048
:103480008064C1E600010050000050FE90F8582012
:10349000012A46D0F0B404689CB003460022012003
:1034A000B4F1A04F189283F85800199208D0D96D42
:1034B00083F8582041F02001D9651CB0F0BC70475A
:1034C000224A906840070BD5A268DA6D42F02002CC
:1034D0000120DA65002283F858201CB0F0BC704748
:1034E000A0684507F1D40D68EDB1194E4F68B0687A
:1034F00093F838C020F46040384340EA4C30B06064
:10350000A0689268C0070AD4D70708D4B26889684F
:1035100022F471620D4322F00F021543B5600020C2
:10352000D8E7022070470A48816821F46041816031
:10353000A1689268CD07F2D4D407F0D4826822F44F
:10354000716222F00F028260E9E700BF00010050C3
:10355000000300500749CA6803024FF6FF0003F456
:10356000E0630240134343F0BF6343F40033CB6096
:10357000704700BF00ED00E01A4BDB68C3F3022385
:1035800000B5C3F1070EBEF1040F03F1040C28BF10
:103590004FF0040EBCF1060F1BD9A3F1030C4FF042
:1035A000FF3303FA0CF322EA03024FF0FF3303FA6E
:1035B0000EF321EA030303FA0CF313431B01002863
:1035C000DBB209DB00F1604000F5614080F80033B8
:1035D00000BD00229446E8E7034A00F00F000244D1
:1035E000137600BD00ED00E0FCEC00E0002807DBF6
:1035F000044A4109012300F01F00834042F82130B2
:10360000704700BF00E100E00138B0F1807F01D3D6
:103610000120704710B44FF0E023074C58614FF081
:10362000F00C84F823C00022072110469A615DF84F
:10363000044B1961704700BF00ED00E0002800F066
:10364000D98038B590F85C30044603F0FF02002BB7
:1036500071D02268936923F010039361FEF7A8FFED
:10366000054604E0FEF7A4FF401B0A285AD8236849
:103670009A691107F6D49A6942F001029A61FEF73D
:1036800097FF054604E0FEF793FF401B0A2849D840
:1036900023689A69D207F6D59A69594942F002021D
:1036A0008B429A6100F0A180227C012A9A690CBFAA
:1036B00022F0400242F040029A61627C012A9A693B
:1036C0000CBF42F4804222F480429A61A27C012A1B
:1036D0009A690CBF22F4805242F480529A619A692E
:1036E000A068E16822F4407202439A619A6922F06C
:1036F000A4029A611A69012922F010021A611FD0EE
:1037000011B302299A6977D042F080029A611A694E
:10371000032942F010021A6116D19A6942F0200280
:103720009A6111E0236E032243F00103236684F8BB
:103730005C20012038BD80F85D20FEF779FC88E729
:103740009A6942F004029A61D4E90612013A0139F9
:10375000120242EA4162216A01390A436169013970
:1037600042EA0142B0F5407FDA610ED1D4E90B02A2
:10377000A16A013A01381201013942EA00220A43E2
:10378000616A013942EA0142DA60D3F8C020E06B95
:10379000616BA56B0243C3F8C020D3F880201948A1
:1037A000206422F4F81242EA0142C3F88020D3F8E0
:1037B00080201549616422F0706242EA0562C3F814
:1037C0008020124B124A4031C4E91213F033C4E98D
:1037D000142300214FF4547202F050FE0020012304
:1037E000206684F85C30A06538BD0A4A6168C2F87A
:1037F000001559E70120704742F020029A61A3E7C3
:103800000064004000A4004070A4004088A500406F
:1038100060A600400060004090F85C20013A012A58
:10382000034605D9026E42F0020201201A66704773
:1038300070B48A684869D1E90354D1E900619207FC
:1038400056B942EAC56202431B6C42EA04420020B8
:1038500070BC43F8212070475B6C44EA457443F820
:10386000314003EBC1031043586070BC0020704727
:10387000844690F85C00012807D0DCF8603043F003
:1038800004030120CCF86030704710B40198DCF8D4
:10389000004040EA4303D4F8800043EA820242EA4F
:1038A000011120F03F030B43C4F8803000205DF885
:1038B000044B704790F85C20012A034605D0026E45
:1038C00042F0040201201A6670470068022283F861
:1038D0005C208269002122F001028261084619669B
:1038E000704700BFF0B590F85C30022B86460BD1D4
:1038F0000568D5F8C43013F4001C0BD0036E43F4F4
:10390000007303660120F0BD036E43F008030366F5
:103910000120F0BDD5F8C4604B680F6988680C6859
:10392000C6F30146002B37D1074347EA8447D1E964
:10393000060303434869CC680343086A43EA00630B
:1039400043EA0443DEF8540006EBC60440F8347042
:1039500000EBC400134C4360CB68E35CA3B19378E5
:10396000D7781B0443EA076317783B43577843EA49
:1039700007230CEB00070CF1040CBB60CB68E35C85
:103980009C4502F10402EAD30123B340C5F8CC30D0
:103990000020CEF85830F0BD2743074347F080475A
:1039A000C5E700BFFC7800082DE9F04190F85C40C5
:1039B000022C64D1402905686DD0D5F898402707BE
:1039C00064D0D5F89870D5F89840E601C7F301287F
:1039D00007D5D5F88040E40544BF08F1010707F09A
:1039E0000308C46C08EBC80604EBC604266806F09E
:1039F00080465660D4F800C0002E66D1CCF38A46CB
:103A00001660266806F000569660266806F00046A6
:103A10001661A688D661B4F806C00CF00F0CC2F887
:103A20000CC0666806F480165661666806F40016D7
:103A30009661E67906F07F061662274E676816F8EB
:103A40000CE04FEAD77CC2F824C0BEF1000F10D0C2
:103A5000013B04F1070EF4461EF8015F03F8015F15
:103A6000D568ACF1060C755DACEB040C6545F2D87D
:103A7000056840292CD0C5F89C80002004E0036E26
:103A800043F0080303660120BDE8F081036E43F4B0
:103A900080730366F7E7D5F890402707F6D0D5F88E
:103AA0009070D5F89040E601C7F3012807D5D5F806
:103AB0008040A40544BF08F1010707F00308846CA7
:103AC00008EBC80604EBC60490E72CF0604697E7C5
:103AD000C5F89480D1E700BFFC780008036840294E
:103AE0000CBFD3F89000D3F8980000F00F00704797
:103AF0000368D3F8C40000F007007047064B5A690A
:103B0000002A01DB002070470449054A99609A6049
:103B10005869C00F704700BF00200240230167456D
:103B2000AB89EFCD044B5A6942F000425A615869A3
:103B3000C043C00F704700BF00200240064B5869C9
:103B400010F0804006D00549054AD960DA6058690E
:103B5000C0F38070704700BF002002403B2A190864
:103B60007F6E5D4C054B5A6942F080425A6158693C
:103B700080F08040C0F38070704700BF002002409A
:103B800070B50546FEF714FD0F4E044604E0FEF73F
:103B90000FFD001BA8420ED83369DA03F7D433694E
:103BA0004CF2FA32134008D13369DB0744BF0123DA
:103BB0003361002070BD032070BD04494A681A4378
:103BC0004A600120336170BD002002401C000020CB
:103BD000044A536943F000634FF47A705361FFF76E
:103BE000CFBF00BF002002402DE9F843A74E337835
:103BF000012B00F06481012535700368002213EA6F
:103C000005070446726040F002819D0700F1F680CE
:103C100058076BD4190708D49A063BD4DB065BD44B
:103C2000002333703846BDE8F883D4E90885A845F9
:103C3000F2D04FF47A70D4F81C90FFF7A1FF00285F
:103C400040F00C8119F0010F0FD09149914A4B6A55
:103C500008F17848134043EAD8034B628B6A05F1B8
:103C60007845134043EAD5038B62894A916A4B46F3
:103C700061F31E039362536943F4003353614FF4BD
:103C80007A70FFF77DFF2368002818BF47F001070F
:103C90009A06C3D54FF47A70D4E90B58FFF770FF3A
:103CA000002840F0D880012D06D1794A136F23F007
:103CB0007F0343EA08031367754A536943F40033EB
:103CC00053614FF47A70FFF75BFF2368002818BF39
:103CD00047F00107DB06A3D54FF47A70A46AFFF71B
:103CE0004FFF002800F0D880012799E74FF47A7041
:103CF000D4E90558FFF744FF002840F0A98015F0EB
:103D000001031ABF08F4E0634FF4E0621A46A90702
:103D100004D508F4805142F480520B43680704D55F
:103D200008F4005142F400520B43E90404D508F4AE
:103D3000804142F480420B43280704D508F48031C7
:103D400042F480320B43E90604D508F4003142F412
:103D500000320B43A80604D508F4802142F48022E7
:103D60000B43690604D508F4002142F400220B43FA
:103D7000A80504D508F4000142F400020B436905CC
:103D800004D508F0807142F080720B43280504D5F9
:103D900008F0007142F000720B43A90404D508F04A
:103DA000806142F080620B43680404D508F0006132
:103DB00042F000620B43290404D508F0405142F060
:103DC00040520B43E80305D508F0804843EA080356
:103DD00042F080422E4D296A21EA020213432B62EF
:103DE0006B6943F400336B614FF47A70FFF7C8FEE0
:103DF0002368002818BF47F001070BE74FF47A70DB
:103E00002569FFF7BDFE60B32368012700E7D0E90D
:103E100001874FF47A70D4F80C90FFF7B1FEA0B987
:103E2000B8F1000F4FD11A4B47EA0947DF62184A31
:103E3000536943F4003353614FF47A70FFF7A0FEE7
:103E4000071E236818BF0127DFE623682F46DCE63C
:103E500023680127DEE623680127DFE623680127C0
:103E6000DAE60B4A136A23F0FF032B43136253690C
:103E700043F4003353614FF47A70FFF781FE2368F7
:103E8000002818BF47F00107C2E600BF1C00002051
:103E90000020024000C0FFFF0F4A136F23F480335D
:103EA00023431367536943F400334FF47A7053612B
:103EB000FFF766FE002818BF47F00107B0E60227AB
:103EC0003846BDE8F883B8F1010FB0D1024B47EA9C
:103ED00009471F63ABE700BF00200240426806238A
:103EE000012A10B4036027D91A462A4B1B6ADBB299
:103EF000AA2B03D0CC2B0CBFCC23BB2325490361B9
:103F00000B6A23F0FF038361C369012B22D042F0C7
:103F10001003204903600B6F03F480338362C36A8C
:103F2000012B06D142F0300202600B6F03F07F03D9
:103F300003635DF8044B70470723036002BB154A17
:103F4000D36A03F03F038360D36AC3F30543C360BE
:103F50000722CAE74C6A104B03EAC40404F1006468
:103F600004628C6A03EAC40303F1006343628B6A50
:103F700003F0004343F0010342F00802C361C6E7C7
:103F8000044A136B03F03F038360136BC3F30543D1
:103F9000C360DDE700200240F8FF01002DE9F04F8B
:103FA0000C6885B0002C00F09080744F0023894687
:103FB000012202FA03F515EA040800F08180D9F81D
:103FC000041001F0030E032603FA02F20EF1FF3A89
:103FD00006FA02FCBAF1010FD9F808606FEA0C0C7E
:103FE00076D9BEF1030F01D1012E05D0C5689640E8
:103FF00005EA0C052E43C66005680EFA02F205EAD2
:104000000C052A4311F4403F026059D05C4D2A6EE2
:1040100042F001022A662A6E02F001020392039A1C
:1040200023F0030202F1804202F5803203F003061E
:104030009568B6004FF00F0C0CFA06FCB0F1904FEB
:1040400025EA0C0E1CD04F4DA84200F082804E4D48
:10405000A84200F08580DFF834C1604572D0DFF8F7
:1040600030C1604500F08380DFF828C160450CBF97
:104070004FF0050C4FF0060C0CFA06F64EEA060E51
:10408000C2F808E0BA686FEA0805CE0254BF2A40B9
:1040900048EA0202BA60FA688E0254BF2A4048EA2F
:1040A0000202FA607A688E0354BF2A4048EA02028C
:1040B0007A603A68C90354BF2A4048EA02023A606B
:1040C000013334FA03F27FF473AF05B0BDE8F08F2B
:1040D0009640D0F808B00196D9F80C600BEA0C0BAA
:1040E00006FA02FA4AEA0B0AC0F808A0D0F804A0BF
:1040F000019E2AEA050AC1F300159D4045EA0A051A
:104100004560C56805EA0C052E43BEF1020FC66086
:104110007FF472AFD9F810504FEAD30A03F00706C4
:1041200000EB8A0AB600B540DAF820B001950F25F9
:1041300005FA06F6019D2BEA060B45EA0B05CAF8BF
:10414000205059E74FF0030C0CFA06F64EEA060E23
:1041500096E74FF0010C0CFA06F64EEA060E8FE7D2
:104160004FF0020C0CFA06F64EEA060E88E74FF006
:10417000040C0CFA06F64EEA060E81E70004014034
:10418000001002400004004800080048000C0048ED
:1041900000100048001400480AB181617047816234
:1041A000704700BF436901EA030221EA030141EAC3
:1041B00002418161704700BF002854D010B590F8CB
:1041C0004130044603F0FF02002B47D0236824222D
:1041D00084F841201968626821F0010122F07062C0
:1041E00019601A619A68E16822F4004201299A6014
:1041F000A26809D042F4044202299A6007D15A68A1
:1042000042F400625A6006E042F400429A605A6842
:1042100022F400625A605968226941F0007141F449
:10422000004159606169D8680A43A16920F40040DF
:1042300042EA0122E169D860206ADA60014319602C
:10424000196841F00101196000222023626484F89A
:104250004130226384F84220104610BD80F840208F
:10426000FDF73AFFB2E70120704700BF90F8412008
:10427000202A22D15FFA82FC90F84020012A0346CE
:104280001BD00268242000B583F84100106820F09C
:1042900001001060106820F4805010601068014325
:1042A000116011684FF0000E41F00101116083F8B8
:1042B00041C083F840E0704600BD0220704700BF57
:1042C00090F84120202A21D100B55FFA82FE90F8B3
:1042D0004020012A03461BD00268242083F84100B5
:1042E000106820F001001060106820F4706040EA4F
:1042F0000121116011684FF0000C41F001011160C3
:1043000083F841E083F840C0604600BD022070475A
:10431000022000BD002844D070B590F891320646C6
:1043200003F0FF02C3B30323306886F8913201F033
:104330007DFE3579FDB100213346324601200C4621
:1043400011740131A942C2E908445074D47442F88E
:10435000284FF5D100210A4683F850110131A942B6
:10436000C3E9582283F8512183F85321C3F8682107
:1043700003F12803F0D1334653F8040B93E8060009
:1043800001F05EFEB37A012200219342317386F878
:10439000912208D0002070BD80F89022FEF706F828
:1043A000C1E701207047304600F002F8002070BDE0
:1043B00002460020116810B482F8C802B1F85430E7
:1043C00001249BB22343C2F8D042A1F85430B1F883
:1043D00054305DF8044B9BB243F00203A1F8543013
:1043E000704700BF354A136860B903F4C063B3F582
:1043F000806FD2F880301CD023F48073C2F88030F4
:1044000000207047B0F5007F06D023F4C06343F46A
:10441000806313600020704703F4C063B3F5806FBE
:10442000D2F880302AD043F48073C2F88030002064
:10443000704723F48073C2F8803013682048214904
:1044400023F4C06343F4007313600368322000FB5D
:1044500003F35069A1FB03139B0C400503F1010317
:1044600006D55169490503F1FF3301D5002BF8D179
:10447000124B5B695B05CDD50320704743F4807315
:10448000C2F8803013680E480E4923F4C06343F429
:10449000007313600368322000FB03F35069A1FB33
:1044A00003139B0C400503F10103E1D55169490554
:1044B00003F1FF33DCD5002BF8D1D9E700700040C1
:1044C0001000002083DE1B43024A936843F48043BC
:1044D0009360704700700040002800F039822DE999
:1044E000F0410368D90782B004462DD5A5498A68F2
:1044F000C96802F00C020C2A00F00281082A00F0C0
:1045000004816368B3F5803F00F02981B3F5A02FE3
:1045100000F092819B4D2A6822F480322A602A683A
:1045200022F480222A60002B40F01E81FEF740F822
:10453000064605E0FEF73CF8801B642800F239814E
:104540002B689903F6D423689A0728D58D4A936877
:10455000D26803F00C030C2B00F0E280042B00F077
:10456000E480E368874D002B00F014812B6843F44E
:1045700080732B60FEF71CF8064605E0FEF718F87E
:10458000801B022800F215812B685F05F6D56B6849
:10459000226923F0FE4343EA02636B6023681A0733
:1045A00019D56369774D002B00F09680D5F89430CB
:1045B00043F00103C5F89430FDF7FAFF064605E025
:1045C000FDF7F6FF801B022800F2F380D5F8943047
:1045D0009B07F5D523685D0741D56A4B9A6DD000DE
:1045E00000F1EB809A6D42F080529A659B6D03F06A
:1045F00080530193019B0125634E3368D90540F137
:104600000A81A368012B00F0DA80052B00F05E819F
:104610005C4ED6F8902022F00102C6F89020D6F821
:10462000902022F00402C6F89020002B40F0CE80AB
:10463000FDF7BEFF41F28838074605E0FDF7B8FFF9
:10464000C01B404500F2B580D6F890309907F5D4EC
:1046500025B14C4A936D23F08053936523689A06E5
:1046600018D5A369474D002B00F0C180D5F89830CC
:1046700043F00103C5F89830FDF79AFF064605E0C0
:10468000FDF796FF801B022800F29380D5F8983042
:104690009B07F5D5E369EBB13A4DAA6802F00C022D
:1046A0000C2A00F02181022B2B6823F080732B60F1
:1046B00000F0CF80FDF77CFF044604E0FDF778FFB3
:1046C000001B022875D82B689B01F7D4EA682F4B92
:1046D0001340EB6000206DE0D5F8943023F0010327
:1046E000C5F89430FDF764FF064604E0FDF760FF6F
:1046F000801B02285DD8D5F894309F07F6D469E76F
:1047000001F0030103297FF4FCAE1E4A12689203F4
:104710007FF51AAF6268002A7FF416AF012049E0E6
:1047200002F00302022A7FF41CAF164B1B685B05E4
:1047300002D5E368002BF1D0124A2069536814496E
:1047400023F0FE4343EA006353600868FDF7EEFE82
:104750000028E3D123681A077FF53DAF21E7094A16
:10476000136843F480331360FDF722FF054E0546BE
:1047700004E0FDF71DFF401B64281AD833689F032F
:10478000F7D5E0E60010024000700040FCFFEEFEAE
:10479000180000202B6823F480732B60FDF708FFBE
:1047A00006462B685905D5D5FDF702FF801B022868
:1047B000F7D9032002B0BDE8F08100251CE7654A67
:1047C000D2F8903043F00103C2F89030FDF7F0FECC
:1047D000604F064641F2883804E0FDF7E9FE801B91
:1047E0004045E6D8D7F890309B07F6D530E7D5F8A6
:1047F000983023F00103C5F89830FDF7D9FE06463E
:1048000004E0FDF7D5FE801B0228D2D8D5F89830F9
:104810009F07F6D43EE7336843F480733360FDF7B7
:10482000C7FE07463368DA053FF5EBAEFDF7C0FE7D
:10483000C01B0228F6D9BCE703F18043A3F53C3343
:104840001A6842F480221A601A6842F480321A60B0
:104850008AE7FDF7ADFE064604E0FDF7A9FE801BE2
:104860000228A6D82B689901F7D4E9683A4B226A46
:10487000606A0B401343D4E90A1243EA012343EA76
:10488000C263D4E90C120138490843EA0013013924
:10489000520843EA4153013A43EA4263EB602B6812
:1048A00043F080732B60EB6843F08073EB60FDF79F
:1048B0007FFE284D044605E0FDF77AFE001B022826
:1048C0003FF677AF2B689A01F6D503E7214BD3F873
:1048D000902042F00402C3F89020D3F8902042F0D8
:1048E0000102C3F8902071E7012B3FF417AFEB688A
:1048F000226A03F0030191427FF410AF616A03F072
:10490000F0020139B2EB011F7FF408AFA16A03F492
:10491000FE42B2EB012F7FF401AFE16A03F078426F
:10492000B2EBC16F7FF4FAAE226B520803F4C00100
:10493000013AB1EB425F7FF4F1AE626B520803F0D3
:10494000C063013AB3EB426F14BF0120002031E78E
:1049500001207047001002400C809F01184B9A689C
:1049600002F00C02042A26D09A6802F00C02082AEF
:1049700023D09A6802F00C020C2A01D00020704764
:10498000D968DA68D86801F003010329C2F3031279
:10499000C0F306200CBF0B4B0B4B0132B3FBF2F301
:1049A00003FB00F0064BDB68C3F3416301335B009C
:1049B000B0FBF3F07047044870470248704700BFEF
:1049C0000010024000127A000024F400002800F0D9
:1049D000EE80784A2DE9F843136803F00F038B4209
:1049E0000D4604460CD2136823F00F030B431360EB
:1049F000136803F00F038B4202D00120BDE8F88357
:104A00002368DF0769D56768032F00F0A0806A4B31
:104A1000022F1B6800F097805B05EED5FFF79EFF25
:104A2000664B984240F2C080634A936823F0F003DB
:104A300043F0800393604FF080095F4EB36823F02A
:104A400003033B43B360FDF7B3FD41F288380746EB
:104A500004E0FDF7ADFDC01B404571D8B368626846
:104A600003F00C03B3EB820FF3D123689F0736D416
:104A7000B9F1000F03D0B36823F0F003B3604D4EDB
:104A8000336803F00F03AB4246D823685A0706D5B4
:104A90004949E0688A6822F4E06202438A601B07A1
:104AA00007D5454A2169936823F4605343EAC1035B
:104AB0009360FFF753FF404A414C92684149C2F36B
:104AC00003120346A25C404802F01F02D3400B6071
:104AD0000068BDE8F843FDF729BD9E07CFD558070C
:104AE00004D535498A6842F4E0628A60190706D520
:104AF000314A936823F47C5343F4E06393602E4A75
:104B0000A16893682B4E23F0F0030B439360336846
:104B100003F00F03AB42B8D9336823F00F032B43E4
:104B20003360FDF745FD41F288380746336803F0EE
:104B30000F03AB42A9D0FDF73BFDC01B4045F5D9A3
:104B40000320BDE8F8839A033FF568AF55E71A4A9A
:104B5000116888017FF551AFD068D168D268174ECF
:104B600000F003000328C1F303110CBF17481848D5
:104B70000131B0FBF1F11048C2F3062201FB02F251
:104B8000C168C1F3416101314900B2FBF1F2B242A7
:104B90000AD9826812F0F00F3FF446AF990703D5A7
:104BA000A368002B3FF440AF4FF0000945E7012018
:104BB000704700BF002002400010024000B4C4044F
:104BC000EC780008100000201800002000127A0085
:104BD0000024F400054B064A9B680649C3F30223F0
:104BE0000868D35C03F01F03D840704700100240F0
:104BF000E478000810000020054B064A9B6806492F
:104C0000C3F3C2230868D35C03F01F03D840704786
:104C100000100240E4780008100000202DE9F04167
:104C20000368044613F4002082B042D0A14B9A6D71
:104C3000D50040F1F88000279F4D2B6843F4807326
:104C40002B60FDF7B5FC064605E0FDF7B1FC831BC4
:104C5000022B00F2F3802B68D805F6D5954D226C17
:104C6000D5F8903013F4407316D0934214D0D5F891
:104C70009010D5F8903043F48033C5F89030D5F8D3
:104C8000903023F48033C5F8903021F44073C90785
:104C9000C5F8903000F1FD808649D1F8903023F4BA
:104CA00040731343C1F8903023680020002F40F078
:104CB000CA80DE0708D57F496568D1F8882022F0D0
:104CC00003022A43C1F888209D0708D57949A568C1
:104CD000D1F8882022F00C022A43C1F88820590715
:104CE00008D57449E568D1F8882022F030022A43BB
:104CF000C1F888201A0708D56E492569D1F888209F
:104D000022F0C0022A43C1F888209F0608D56949CD
:104D10006569D1F8882022F440622A43C1F88820CE
:104D20005E0608D56349A569D1F8882022F440526F
:104D30002A43C1F888201D0608D55E49E569D1F8E7
:104D4000882022F440422A43C1F88820D90508D59A
:104D50005849256AD1F8882022F440322A43C1F804
:104D600088209A0508D55349656AD1F8882022F42D
:104D700040222A43C1F888205F050BD54D49A56A1A
:104D8000D1F8882022F440122A43B5F5801FC1F8DB
:104D900088205ED01E050BD54649E56AD1F88820EB
:104DA00022F440022A43B5F5800FC1F8882055D07F
:104DB000DD040BD53F49256BD1F8882022F04072E5
:104DC0002A43B5F1807FC1F888204CD099040BD5D7
:104DD0003849656BD1F8882022F040622A43B5F14A
:104DE000006FC1F8882043D05A040BD53149A56B18
:104DF000D1F8882022F040622A43B5F1006FC1F853
:104E000088203AD01B040BD52A4AE16BD2F88830AF
:104E100023F040530B43B1F1805FC2F8883031D0AA
:104E200002B0BDE8F0819A6D42F080529A659B6DA8
:104E300003F080530193019B0127FDE623680320C3
:104E4000002F3FF436AF1B498A6D22F080528A65ED
:104E50002FE7CA6842F48012CA609BE7CA6842F42E
:104E60008012CA60A4E7CA6842F48012CA60ADE743
:104E7000CA6842F48012CA60B6E7CA6842F4801277
:104E8000CA60BFE7D36843F48033D36002B0BDE8A3
:104E9000F081FDF78DFB41F28838064604E0FDF70E
:104EA00087FB801B4045C9D8D5F890309B07F6D5C5
:104EB000226CF1E60010024000700040002877D01C
:104EC000426A2DE9F0410446002A56D00023C0E989
:104ED000043394F85D300021A16203F0FF01002B40
:104EE00059D02168E768022384F85D300B68B7F574
:104EF000E06F23F040030B6045D853D04FF480504F
:104F00000025A562A368A66902F0100C626803F48C
:104F1000044302F482721A43236903F00203134329
:104F2000626902F001021A43636B07F4706703F0D1
:104F3000080343EA070EE36903F03808236A03F025
:104F4000800706F40073134343EA08033B43360C1F
:104F50002B4306F004060B604EEA060343EA0C03FB
:104F600003434B60CB69002023F400630122CB6133
:104F7000206684F85D20BDE8F0814368B3F5827F48
:104F8000A7D0C261A5E7B7F5706F13D1A56A00205D
:104F900005F40055B6E784F85C102046FDF7E8F804
:104FA000626A9EE7A56A4FF4805005F40055A9E7B0
:104FB000012070470020A3E7036A026A22F0010281
:104FC00070B40262446882690D6822F4803222F073
:104FD00073022A438D6823F002032B43144DA84229
:104FE0000FD005F50065A8420BD005F54065A84235
:104FF00007D005F58065A84203D005F58065A84275
:105000000FD1056A25F004050562CD6823F0080379
:105010002B43D1E9056524F4407446EA050C4CEABB
:10502000040449684460826170BC41630362704754
:10503000002C0140036A026A22F4807270B402629A
:105040004468C2690D6822F4803222F073022A4358
:105050008D6823F4007343EA0523154DA8420FD051
:1050600005F50065A8420BD0124DA84211D005F5F8
:105070008065A8420DD005F58065A84211D108E0F1
:10508000056A25F480650562CD6823F4006343EA70
:105090000523D1E9056524F4405446EA050C44EAA9
:1050A0000C1449684460C26170BCC16303627047FC
:1050B000002C014000400140036A026A22F4805241
:1050C00070B402624468C2690D6822F0807222F4F2
:1050D000E64242EA05228D6823F4005343EA053391
:1050E000154DA8420FD005F50065A8420BD0134D11
:1050F000A84211D005F58065A8420DD005F5806560
:10510000A84211D108E0056A25F480450562CD6802
:1051100023F4004343EA0533D1E9056524F4404410
:1051200046EA050C44EA8C1449684460C26170BCCC
:1051300001640362704700BF002C01400040014041
:10514000036A026A22F4803230B402624468026D5B
:105150000D6822F4803222F070022A438D6823F415
:10516000003343EA05430F4DA8420FD005F5006513
:10517000A8420BD005F54065A84207D005F580652B
:10518000A84203D005F58065A84204D14D6924F4F6
:10519000803444EA052449684460026530BC816477
:1051A00003627047002C0140036A026A22F48012F5
:1051B00030B402624468026D0D6822F0807222F4FD
:1051C000E04242EA05228D6823F4001343EA0553C6
:1051D0000F4DA8420FD005F50065A8420BD005F58C
:1051E0004065A84207D005F58065A84203D005F5C3
:1051F0008065A84204D14D6924F4802444EA8524C2
:1052000049684460026530BCC1640362704700BFF6
:10521000002C014010B4036A046A24F00104046203
:10522000114CA0420FD004F50064A0420BD004F54D
:105230004064A04207D004F58064A04203D004F586
:105240008064A04203D1046A24F0040404628469E7
:1052500023F00A0324F0F00C4CEA02121943826195
:105260005DF8044B01627047002C0140704700BF9D
:1052700038B590F83C30012B62D004460222006819
:1052800084F83D20012384F83C308568554A2A4043
:1052900082600A68702A72D019D8502A62D01FD84A
:1052A000402A40F08C80CA684968FFF7B3FF8368E2
:1052B00023F4401323F0700343F04703836000207E
:1052C0000122002384F83D2084F83C3038BDB2F53B
:1052D000005F37D028D8B2F5805018BF0120EFE723
:1052E000602A79D1036A026A4D68C96822F0100207
:1052F00002623D4A90426AD002F50062904266D056
:10530000826923F0A00322F4704243EA051342EAC3
:10531000013282610362836823F4401323F0700337
:1053200043F067038360CAE730498A423DD036D8EC
:10533000B2F1101F39D010398A4236D00120BFE7B0
:10534000022038BDD1E901538268C9682B4322F499
:105350007F4243EA012313438360836843F480431D
:105360008360ACE7CA684968FFF754FF836823F499
:10537000401323F0700343F0570383609FE7D1E9A4
:1053800001538268C9682B4322F47F4243EA012318
:1053900013438360836843F0770383608FE7144986
:1053A0008A4202D030318A4216D1836823F44013F6
:1053B00023F07003134343F0070383607FE70BD8A8
:1053C000202AF2D00AD832F01003B7D1EDE7026AF2
:1053D00022F04002026293E7184671E7302AE4D0D7
:1053E000ACE700BF8800CEFF002C01403000100069
:1053F0004000100070B4264E4A6903688D680C683E
:10540000B04235D0B0F1804F1CD0A6F59436B042F2
:1054100018D006F58066B04214D006F59636B04234
:1054200026D01C4EB04227D006F58066B04223D06D
:1054300006F58066B0421FD023F08003C5621A4390
:1054400084620CE04E68C968C56223F07003334380
:1054500023F440730B4323F080031A4384620368F0
:10546000012143F00403036070BC41610260704796
:105470004E6823F070033343CE68C56223F4407353
:10548000334323F0800384621A430B690363E6E726
:10549000002C01400040014070B310B590F83D3041
:1054A000044603F0FF0213B32146022384F83D3083
:1054B00051F8040BFFF79EFF012384F8483084F86D
:1054C0003E3084F83F3084F8403084F8413084F82E
:1054D000423084F8433084F8443084F8453084F80E
:1054E000463084F8473084F83D30002010BD80F805
:1054F0003C20FCF7ABFED7E70120704770B310B536
:1055000090F83D30044603F0FF0213B32146022316
:1055100084F83D3051F8040BFFF76CFF012384F849
:10552000483084F83E3084F83F3084F8403084F8C6
:10553000413084F8423084F8433084F8443084F8B1
:10554000453084F8463084F8473084F83D300020F8
:1055500010BD80F83C20FFF789FED7E70120704797
:10556000036A026A22F0100270B40262446882691F
:105570000D6822F0807222F4E64242EA05228D682C
:1055800023F0200343EA0513154DA8420FD005F57B
:105590000065A8420BD0134DA84211D005F58065D7
:1055A000A8420DD005F58065A84211D108E0056A32
:1055B00025F040050562CD6823F0800343EA05131A
:1055C000D1E9056524F4406446EA050C44EA8C04FC
:1055D00049684460826170BC81630362704700BFA8
:1055E000002C01400040014090F83C30012B31D0AC
:1055F00010B50446142A0CD8DFE802F0180B0B0B88
:105600001C0B0B0B200B0B0B240B0B0B280B0B0B8E
:105610001000002384F83C30012010BD0068FFF723
:10562000C3FD002384F83C30002010BD0068FFF764
:10563000C3FCF6E70068FFF793FFF2E70068FFF7A7
:10564000F9FCEEE70068FFF737FDEAE70068FFF7CF
:1056500077FDE6E70220704738B590F83C30012B23
:105660007CD0012304460D4680F83C30142A0CD827
:10567000DFE802F0220B0B0B320B0B0B430B0B0B77
:10568000530B0B0B640B0B0B10000120002384F851
:105690003C3038BD0068FFF787FD036D2A6943F48D
:1056A00000630365036D23F480630365036D43EAC0
:1056B000022303650020E9E70068FFF77DFC8369AA
:1056C0002A6943F008038361836923F0040383613B
:1056D000836913438361EDE70068FFF741FF836946
:1056E0002A6943F400638361836923F480638361DF
:1056F000836943EA02238361DCE70068FFF79AFCD1
:10570000C3692A6943F00803C361C36923F0040332
:10571000C361C3691343C361CCE70068FFF7CCFCE6
:10572000C3692A6943F40063C361C36923F48063D6
:10573000C361C36943EA0223C361BBE70068FFF7A3
:10574000FFFC036D2A6943F008030365036D23F032
:1057500004030365036D13430365ABE7022038BD03
:1057600090F83C30012B46D070B40246234E0068BE
:10577000022382F83D30B04243680D68846824D02B
:1057800006F50066B0422BD023F0007323F07003BF
:105790002B43B0F1804F43600AD0194B984207D099
:1057A00003F58063984203D003F59C33984204D1FB
:1057B0008B6824F080041C4384600020012382F85D
:1057C0003D3082F83C0070BC70474E6823F4700393
:1057D000334323F0007323F070032B434360E7E768
:1057E0004E6823F47003334323F0007323F07003F7
:1057F0001D434560DCE70220704700BF002C0140DC
:105800000004004090F83C30012B45D010B4D1E9A1
:10581000024323F440730246234348680C6823F490
:105820008063034323F400630869234323F4805314
:105830004C69034323F40053086B234323F4804350
:105840008C69034323F47023C86943EA044323F0BB
:105850008053124C03431068A0420BD004F500643F
:10586000A04207D00021436482F83C1008465DF84E
:10587000044B70478C6A23F4700343EA04530C6AA8
:1058800023F0807323434C6AC96A23F000732343D7
:1058900023F000530B43E5E702207047002C014042
:1058A00010B4026852E8003F23F4907342E80031DC
:1058B0000029F7D1144C02F1080353E8003F2340BC
:1058C00002F1080C4CE800310029F4D1C36E012B21
:1058D00008D000232022C0F88C205DF8044B4367D9
:1058E000C366704752E8003F23F0100342E80031DE
:1058F0000029EED052E8003F23F0100342E80031C7
:105900000029EFD1E5E700BFFEFFFFEF2DE9F843E7
:105910000446D0F8880020285ED1884609B1164692
:1059200012B90120BDE8F8831F464FF0000921237A
:10593000C4F89090C4F88830FCF73AFEA368A4F845
:105940005460B3F5805F0546A4F8566047D0B4F8BC
:105950005620236892B2F2B1DA69120604D4791C97
:1059600026D1DA691606FCD5B8F1000F2ED018F84A
:10597000012B9A62D4F8882002F02102212AD0D18A
:10598000B4F85620013A92B2A4F85620B4F8562042
:1059900092B2002AE0D1DA69560604D47A1C24D1E6
:1059A000DA695006FCD52023C4F888300020B9E716
:1059B000FCF7FEFD401B874223D317B323681A6808
:1059C000DA691006F4D5B8F1000FD0D139F8022BFE
:1059D000C2F308029A62CDE70220BDE8F88323698A
:1059E000002BB4D1C1469846B1E7FCF7E1FD431B5B
:1059F0009F4206D32FB123681A68DB695906F4D594
:105A0000D1E72023C4F888300320BDE8F88300BF25
:105A100070B5044603688268006961691D680243C5
:105A20000A43E0698E49024329400A431A605A68D2
:105A3000E168656A22F440520A438A495A608B42FF
:105A40009968A26921F06E4121F4306100F0B080C4
:105A5000266A32430A439A60DA6A22F00F022A4326
:105A6000DA62814A934235D0804A93420DD0804A0F
:105A7000934255D07F4A934240D0012000234FF0FB
:105A80000112C4E91D33A26670BD7B4BD3F8883088
:105A900003F00C030C2BF0D801A252F823F000BF46
:105AA000A55B00087B5A00087B5A00087B5A000857
:105AB000135B00087B5A00087B5A00087B5A0008D9
:105AC000675B00087B5A00087B5A00087B5A000875
:105AD000355B0008684BD3F8883003F00303022BD2
