:020000040800F2
:1000000000800020F94900081D4900082149000826
:1000100025490008294900082D4900080000000072
:10002000000000000000000000000000314900084E
:100030003549000800000000394900083D49000822
:10004000494A0008494A0008494A0008494A000844
:10005000494A0008494A0008494A0008494A000834
:10006000494A0008494A0008494A0008494A000824
:10007000494A0008494A0008494A0008494A000814
:10008000494A00080000000041490008494A0008A8
:10009000494A0008494A0008494A0008494A0008F4
:1000A000494A0008494A0008494A0008494A0008E4
:1000B000494A0008494A0008494A0008494A0008D4
:1000C000494A0008494A0008494A0008494A0008C4
:1000D000494A0008494A0008494A0008494A0008B4
:1000E000494A0008494A0008494A0008494A0008A4
:1000F000494A0008494A0008494A0008000000002F
:1001000000000000494A000800000000494A0008B9
:10011000494A000800000000494A0008494A00080E
:10012000494A0008494A0008494A0008494A000863
:10013000494A00080000000000000000494A000889
:10014000494A0008494A0008000000000000000079
:10015000000000000000000000000000000000009F
:10016000000000000000000000000000494A0008F4
:10017000494A0008000000000000000000000000E4
:1001800000000000494A00080000000000000000D4
:10019000000000000000000000000000000000005F
:1001A0000000000000000000494A0008494A000819
:1001B000494A0008494A0008494A0008000000006E
:1001C00000000000494A0008000000000000000094
:0801D000494A0008494A0008F1
:1001E00010B5054C237833B9044B13B10448AFF371
:1001F00000800123237010BDAC000020000000002F
:10020000B0AF000808B5034B1BB103490348AFF377
:10021000008008BD00000000B0000020B0AF000862
:1002200001F0FF01102A2BDB10F0070F08D010F8A7
:10023000013B013A8B422DD010F0070F42B3F6D1AB
:10024000F0B441EA012141EA014122F007047FF0C4
:1002500000070023F0E80256083C85EA010586EA1B
:10026000010685FA47F5A3FA87F586FA47F6A5FA57
:1002700087F68EB9EED1F0BC01F0FF0102F0070263
:1002800032B110F8013B013A83EA010313B1F8D10E
:100290000020704701387047002D06BF35460338EF
:1002A000073815F0010F07D1013015F4807F02BF28
:1002B000013015F4C03F0130F0BC0138704700BF79
:1002C00053B94AB9002908BF00281CBF4FF0FF31BD
:1002D0004FF0FF3000F088B9ADF1080C6DE904CEA5
:1002E00000F006F8DDF804E0DDE9022304B0704711
:1002F0002DE9F047089D0F4604468C46002B48D157
:100300008A42164661D9B2FA82F34BB1C3F1200298
:1003100001FA03FC20FA02F29E4042EA0C0C9C40D7
:100320004FEA164EB7B2BCFBFEF1220C0EFB11CC0D
:1003300042EA0C4201FB07F0904209D9B21801F1E0
:10034000FF3C80F0EE80904240F2EB800239324474
:10035000121AA4B2B2FBFEF00EFB102244EA0244D1
:1003600000FB07F7A74209D9341900F1FF3280F0EA
:10037000DA80A74240F2D7803444023840EA014094
:10038000E41B00211DB1DC400023C5E90043BDE8AA
:10039000F0878B4206D90DB1C5E90001002108465E
:1003A000BDE8F087B3FA83F1002948D1BB4202D3FC
:1003B000824200F20781841A67EB0302012094460F
:1003C000002DE4D0C5E9004CE1E7002A00F092805E
:1003D000B2FA82F3002B40F0A8808A1A4FEA164E38
:1003E0001FFA86FC0121200CB2FBFEF70EFB172240
:1003F00040EA02420CFB07F0904207D9B21807F11D
:10040000FF3802D2904200F2E2804746121AA4B2AC
:10041000B2FBFEF00EFB102244EA02440CFB00FC8F
:10042000A44507D9341900F1FF3202D2A44500F2E5
:10043000CB801046A4EB0C0440EA0740A2E7C1F1D0
:1004400020068B4022FA06FC4CEA030C07FA01F462
:1004500020FA06F3F7404FEA1C49234300FA01F85B
:100460001FFA8CFEB7FBF9F01C0C09FB107744EA6D
:10047000074400FB0EF7A74202FA01F20AD91CEB6F
:10048000040400F1FF3A80F09B80A74240F298807C
:1004900002386444E41B9FB2B4FBF9F309FB134434
:1004A00047EA044403FB0EFEA64509D91CEB0404ED
:1004B00003F1FF3780F08280A6457FD9023B644478
:1004C00043EA0040A4EB0E04A0FB02E7BC427346E3
:1004D000B94663D360D05DB1B8EB030264EB0904A5
:1004E00004FA06F622FA01F31E43CC40C5E9006483
:1004F00000214CE76208480842EAC1710B0C43EA4C
:1005000000438AB242EA0342B3FBF6F1E407B44681
:100510003746B6461F23B0FBF6F0D21B41EA004136
:1005200061E7614614E7104628E7C3F1200120FA8D
:1005300001F29E4027FA01F19F403A434FEA164EDE
:100540001FFA86FCB1FBFEF70EFB1710110C41EAF7
:10055000004107FB0CF8884504FA03F43AD97118F6
:1005600007F1FF3001D288451FD8A1EB0801B1FB8C
:10057000FEF808FB0CF70EFB181192B242EA01429A
:10058000BA422FD2B21808F1FF31C6D2BA42C4D251
:10059000A8F102013244C0E7F0459CD2BEEB020351
:1005A00067EB0C070138B94695E7A6EB080841440C
:1005B000B81EB1FBFEF808FB0CF7DCE73B467FE713
:1005C000504667E70846FBE63444023832E7023F0C
:1005D00032441BE7A1EB08013846B1FBFEF808FBEB
:1005E0000CF7C8E7414698E7704700BF1B4B1B88D4
:1005F000C01AB0F5005F2ADBA0F58040184BDFED94
:10060000197A93F900309FED187A00FB03F3C3EBDE
:10061000C3035B0000EE103AB8EEC00A20EE270AD2
:1006200020EE070AB4EEE70AF1EE10FA09DB30EE2D
:10063000670AB4EEE70AF1EE10FAF8DA704730EE26
:10064000270AB5EEC00AF1EE10FAF8D4704710F59B
:10065000005FB8BF00F58040D0E700BFF068002021
:1006600011000020DB0FC9400000803810B4EFF308
:10067000108172B6094C0A4A0A4B84ED000AC2ED99
:10068000000A1860BFF35F8F074A136801331360D5
:1006900001B962B65DF8044B704700BF08690020DD
:1006A0000469002000690020FC68002038B5114969
:1006B000114D1248124C002200232A700B60114980
:1006C0000360114822800A80436C23F40043436492
:1006D000036A23F4AA6323F00503036202214FF0A7
:1006E000904006F019FB094A137823F004031370B5
:1006F00038BD00BF20690020296900201C69002046
:100700006468002066680020002C01409868002082
:100710002DE9F04700222021454D81464FF09040C1
:1007200006F0FAFA002210214FF0904006F0F4FA99
:10073000404A2B684049A2FB0332920C486802EB06
:1007400082024B681B1A9A42FBD8DFF8ECA0394FA3
:1007500010264FF40048002409EA0802003A18BFA6
:10076000012240214FF0904006F0D6FA2A68DAF8CC
:100770000410A7FB0232920C02EB8202DAF804307A
:100780005B1A9A42FAD8012220214FF0904006F0DD
:10079000C3FA2A68DAF80410A7FB0232920C02EBC3
:1007A0008202DAF804305B1A9A42FAD880214FF0BC
:1007B000904006F0ABFA640001284FF000024FF0C1
:1007C0002001A4B24FF0904008BF44F0010406F0AD
:1007D000A3FA2A68DAF80410A7FB0232920C02EBA3
:1007E0008202DAF804305B1A9A42FAD8013E4FEAE4
:1007F0005808B1D1012210214FF0904006F08CFA38
:10080000324640214FF0904006F086FA094B2A68A4
:100810000948DAF80410A3FB0232920C02EB8202C0
:1008200043685B1A9A42FBD82046BDE8F08700BFB8
:100830002400002083DE1B43001000E0F8B50F46C3
:10084000E1B1C00200F4F04444F400442046FFF754
:100850005FFF0B4B0B4D1A680B4B6E68A3FB02320C
:10086000920C6B689B1B9A42FBD8084B084A1C8071
:10087000C0F30A0310803B800120F8BD0846F8BD94
:1008800024000020001000E083DE1B432C690020C0
:100890002A690020DFED577A574B60EEA70ABEEEBB
:1008A000006AB0EE607AA0EE067A1B68D0EE060A07
:1008B00010B5B4EEC07AF1EE10FAB4EEC70AD4BFA8
:1008C000F0EE407AF0EE477AF1EE10FAD4BFF0EE97
:1008D000406AF0EE476AF4EEE06AF1EE10FAF4EEE8
:1008E000E70AC8BFF0EE606AF1EE10FAC8BFF0EE9A
:1008F000607A76EEA76AF6EE005A30EE250A66EECA
:10090000866AD3ED0B7A30EE260AB5EEC00AF1EE18
:1009100010FA6CD4F7EE005AB4EEE50AF1EE10FAD4
:10092000D8BFF0EE405AB6EE006A37EE067A37EEE0
:10093000267AB5EEC07AF1EE10FA55D4B7EE006A19
:10094000B4EEC67AF1EE10FAC8BFB0EE467AB6EE53
:10095000006A70EE860A70EEA60AF5EEC00AF1EEA5
:1009600010FA3ED4B7EE006AF4EEC60AF1EE10FAC1
:10097000D8BFB0EE606AF8EE677ADB6A1F4867EEB0
:10098000A56A27EE877AFCEEE66A67EE867ABCEE09
:10099000C77A16EE901AFCEEE77A17EE102A994203
:1009A00017EE904A28BF19469A4228BF1A469C4221
:1009B000416328BF1C4612498263C4630B7803B1AC
:1009C00010BD104C04F084F82268821AB2F5FA7F48
:1009D0000346F5D323600C48BDE81040022106F021
:1009E000A1B99FED0A6AC6E79FED087AAFE7DFED90
:1009F000075A98E7D7B35D3FE46C0020002C014014
:100A000029690020C8000020000400480000000000
:100A100030B583B000230DF106010620ADF8063095
:100A2000FFF70CFF044648B3BDF80610C1F381136D
:100A3000032B1DD01E4ADFED1F7A32F81300DFEDC5
:100A40001E6A07EE100AB8EE477A142827EE277AB6
:100A5000C6EE877A0FD1194B0246194D28801948E6
:100A6000C0ED007A184808F0EDFC204603B030BD18
:100A7000DFED167A2820164B0246EEE7154808F0FF
:100A800049FD1548436C23F400434364036A23F48F
:100A9000AA6323F005032246036202214FF090402F
:100AA00006F03AF901220D48114606F035F9DCE767
:100AB00068BF00083E0A83403333534074B10008D6
:100AC000200000201C0000201CB000084F0AA53C9C
:100AD000C8AF0008F8AF0008002C0140000400482F
:100AE00070B5224D224E84B0034600224FF0904054
:100AF0000C464FF40041ADF80E3006F00DF92868B1
:100B00001C4B7268A3FB0030800C73689B1A9842E0
:100B1000FBD80A23224600930DF10E01012316484B
:100B200007F024F9134B2A687168114EA3FB0232B7
:100B30000446920C73685B1A9A42FBD801224FF468
:100B400000414FF0904006F0E7F80A4B2A68084849
:100B50007168A3FB0232920C43685B1A9A42FBD87D
:100B6000B4FA84F0400904B070BD00BF2400002036
:100B7000001000E083DE1B43306D002030B583B0F1
:100B8000002340F480400D46ADF80630044604F0E2
:100B90000102640883EA0203F9D140EAC3300DF18F
:100BA000060180B2FFF79CFF18B129462046FFF7E7
:100BB00097FF03B030BD00BF08B52DED048BB0EE3C
:100BC000608AB0EE409A09F06BFBF0EE408AB0EE1E
:100BD000490A09F02DFB9FED117A9FED116AA8EEED
:100BE000087AF0EE407AF1EEC76AF4EEC66AF1EEEA
:100BF00010FAC4BF86EE267A28EE078A9FED077AA0
:100C000067EE880A28EE680AE8EE870ABDEC048BD6
:100C1000A7EE870ABDE80840FFF73CBE00000000D1
:100C20003ACD133FDFED187A30EE670ADFED177A21
:100C3000B4EEE70AF1EE10FA18DB30EE670AB4EE14
:100C4000E70AF1EE10FAF8DAF5EEC00AF1EE10FA62
:100C500016D4DFED0F7AF4EEE70AF1EE10FAC8BF12
:100C6000F0EE670AFFF7A8BF30EE270AB5EEC00A1C
:100C7000F1EE10FAF8D4F5EEC00AF1EE10FAE8D56C
:100C8000DFED040AEEE700BFDB0FC93FDB0FC94011
:100C90003ACD133F0000000030B583B00022ADF81C
:100CA0000420B8B10546ADF806200F2447F6FF73BF
:100CB00003F00101013C82EA01024FEA5303F7D13C
:100CC00047F6FF7040EAC2300DF1060180B2FFF72F
:100CD00007FF10B9002003B030BD01A92046FFF77F
:100CE000FFFE0028F6D0BDF8041051B10B4603F00A
:100CF00001025B0884EA0204F9D1012CEAD04B041A
:100D0000E8D4C1F30D01298003B030BD30B5002413
:100D100061F30704090A61F30F2462F317448DB0ED
:100D200063F31F64CDE901042422002103A808F025
:100D3000CFFC114805F096FC38B9104A1378FF2B08
:100D400001D0013313700DB030BD002340F2811586
:100D5000082409480B9301AA03A9CDE90353CDE95F
:100D60000534CDE90733CDE9093305F075FB0028DB
:100D7000E3D10DB030BD00BF4C6E0020956800205F
:100D800030B5254B254C1B78247825482549264A23
:100D90000078097812788DB04FF0050C8DF801407D
:100DA0008DF80230214C224B8DF800C01B7894F84E
:100DB00000C08DF803008DF804108DF80520002187
:100DC000242202A88DF806C08DF8073008F080FCB8
:100DD000184805F047FC30B92378FF2B01D00133C8
:100DE00023700DB030BD81220023CDE90223002203
:100DF0000823CDE9042300220023CDE90623CDE911
:100E0000082300250B480A9502A96A4605F024FB31
:100E10000028E1D10DB030BD996800209A6800200B
:100E20009868002097680020966800209568002048
:100E3000946800204C6E002010B588B00023062175
:100E40007F22CDE90001CDE90533694607930224ED
:100E500004230C480493CDE9024204F0EFF809485A
:100E600004F024FC4FF0FF31064803F043FF05482F
:100E700003F0B8FF0446034804F0BCFCA0B208B07D
:100E800010BD00BFB06E002038B50446EFF31085EA
:100E900072B60449442208F096FC85F31088204677
:100EA00038BD00BF306900202DE9F04F04682DEDFA
:100EB000068BB4F1A04F99B004D019B0BDEC068BED
:100EC000BDE8F08FB34BB4495B680593B34B1B7817
:100ED0004422DBB207A8009308F075FCB04BB14880
:100EE000D4F88010D3F8008090ED007AAE48D4F8A2
:100EF0008420B3F80490D4F8883004789DED0D4A2E
:100F0000DDED0E4A9DED0F5ADDED146A88B21FFA31
:100F100088F50146401B08EE900A90B2A0EB1840FD
:100F200009EE100AF8EEE88AB8EEC99A1598019011
:100F300068EE878A29EE079A92B21FFA83FA002C8C
:100F400036D09A48D0ED007A79EE677A984D9BB208
:100F5000A3EB090306EE103A2B6C686BAC6BED6BE0
:100F600096349C4200F1960005F1960E8CBF002449
:100F7000012498428CBF00270127B8EEC68A9E45FF
:100F80008CBF0025012507EB040C984228EE078A48
:100F9000AC4410D89E4500F2DE8078EE889A012598
:100FA00038EEE97AB0EE48AAF1EE699A2F4613E0DE
:100FB000F0EE497ACAE7BCF1020F00F0DB80BCF129
:100FC000010F38EEA77AB0EE48AAF0EE679A40F229
:100FD000CD8001252C462F46A1F1090EA2F1090072
:100FE0001FFA8EF680B2AAF1090E049002961FFA3B
:100FF0008EF60396049E40F6ED708642029E94BFE4
:101000004FF0000B4FF0010B8642039E4FF0000E95
:101010006BF3070E4FF0000394BF4FF0000B4FF03F
:10102000010B864294BF0020012067F3070364F39D
:101030000F2360F30F2E009865F317433AEE077AFB
:101040006BF31F63002844D10198002800F0DB8176
:10105000BCF1010F0DD99FED576A38EEC43A79EE15
:10106000E43A7AEE455AA3EE064AE3EE864AA5EE46
:10107000865AF5EEC08AF1EE10FAF5EEC09A4CBF32
:10108000B1EE686AB0EE686AF1EE10FA4CBFF1EEAC
:10109000695AF0EE695AF4EEC65AF1EE10FAB5EE5E
:1010A000C0AAD8BFF0EE465AF1EE10FA4CBFB1EE2E
:1010B0004A6AB0EE4A6AB4EEE56AF1EE10FAD8BFB9
:1010C000B0EE656AB4EEE66AF1EE10FAC8BFF0EE73
:1010D000466A1693019BADF844100133ADF84620E3
:1010E0002D48159307A94422ADF848A0CDF84A80B1
:1010F000ADF84E90ADF85CE0CDED078ACDED089AE5
:101100008DED09AA8DED0A9ACDED0B7A8DED0C8A45
:101110008DED0D4ACDED0E4A8DED0F5A8DED107A05
:10112000CDED146A08F04FFB1C4B1B78002B45D10A
:10113000009B002B3FF4C1AE164B1F4A5B6805981D
:1011400011681B1A9942BFF4B8AE136019B0BDEC18
:10115000068BBDE8F08FBCF1020F7FF430AF38EEA4
:10116000A77AF0EE679AB1EE47AA35E700252C463C
:101170002F4631E778EE278A9E4537EEE87AF1EE82
:10118000688AECD8B0EE48AAF0EE679A01240027EE
:1011900022E700BF001000E030690020296900202C
:1011A000140000201C000020E8680020EC680020EB
:1011B000002C01400000803D9C680020AC4B1B6867
:1011C000A3B3AC4AAC495268AC4B09681B68521ACD
:1011D000AB49A1FB03139B0C4FF4966101FB03F396
:1011E0009A4200F2318107EE902AA64B9FEDA67A33
:1011F000F8EEE76AD3ED007AA44B93ED006AA44BB6
:1012000066EEA76AD3ED007AE6EE867AF4EEC77A48
:10121000F1EE10FAC0F2128177EEC77AF4EEC77AD7
:10122000F1EE10FAF8DA9B4BC3ED007A3B192B4430
:10123000012B40F2EF802FB1029A40F6ED739A42F3
:1012400000F2E8802CB1049A40F6ED739A4200F265
:10125000E1802DB1039A40F6ED739A4200F2DA80F4
:101260008C489FED897AD0ED007AF4EEC77AF1EEE2
:1012700010FAC0F2F48077EEC77ADFED876A874A0A
:10128000874992F900209FED876A67EEA67AB0EE53
:10129000007AF0EE686AE9EE876ABCEEE77AF8EE6B
:1012A000475A17EE103A07EE102AB8EEC77AC3F382
:1012B000090367EE266A01EB830797ED005A66EE95
:1012C000866A97ED016A03F5807277EEE57A36EE6D
:1012D000456AC2F3090201EB8207A7EE865A724BF8
:1012E000D7ED005A97ED016A36EE656A66EE854ADB
:1012F000E7EE865A28EE877AB0EE646AA7EE256A92
:10130000D3ED004AB5EEC06AF1EE10FA4CBFF1EE33
:10131000467AF0EE467AF4EEE74AF1EE10FA00F182
:10132000988027EE457AA6EEA57AD3ED006AB5EE51
:10133000C07AF1EE10FA4CBFF1EE477AF0EE477A40
:10134000F4EEE76AF1EE10FA00F18380F5EEC08A60
:10135000F1EE10FAF5EEC09A4CBFF1EE686AF0EECD
:10136000686AF1EE10FA4CBFF1EE697AF0EE697A34
:10137000F4EEE67AF1EE10FAB5EEC0AAD8BFF0EEC0
:10138000667AF1EE10FA4CBFB1EE4A4AB0EE4A4A24
:10139000B4EEE74AF1EE10FAD8BFB0EE674A002C7F
:1013A00000F02281B5EEC09AF1EE10FA48BFB1EE1E
:1013B000499AB4EEC49AF1EE10FAD8BFB0EE449A4E
:1013C0006DB1B5EEC08AF1EE10FA48BFB1EE488AB1
:1013D000B4EEC98AF1EE10FAC8BFB0EE489A334BAA
:1013E000D3ED007AF4EEC97AF1EE10FA68D5304AFE
:1013F0001378FF2B01D0013313702E4B02682E4A55
:10140000022119700AE0B0EE4A5AF0EE694AB0EED5
:10141000684A2EE6274B01221A70274A27490023E3
:101420000B70536C23F400435364136A23F4AA63D0
:1014300023F0050313627BE677EE877AF5EEC07A38
:10144000F1EE10FAF8D4EEE61A4B08221A701A4A96
:10145000E4E7184B0268184A09211970DEE7F5EE37
:10146000C07AF1EE10FA48BF77EE877A05E700BF41
:10147000FC680020001000E000690020240000202B
:1014800083DE1B4304000020DB0FC94004690020F9
:10149000086900202469002083F9224310000020FD
:1014A000545800203ACD133F080000200C000020C3
:1014B0009B68002028690020002C01402969002039
:1014C000684B694AD3ED003ADFED686AD2ED007AE5
:1014D000674B73EEC63A93ED003A664BE3EEA67A9D
:1014E00000211970DFED646AF4EEE67AF1EE10FA8D
:1014F00033EE473A08D4DFED616AF4EEE67AF1EEB6
:1015000010FAD8BFF0EE676A5D4BDFED582AD3EDD5
:10151000004ADFED597AC2ED006AE3EE224AF4EEAA
:10152000E74AF1EE10FA08D4DFED547AF4EEE74A18
:10153000F1EE10FAD8BFF0EE647ADFED522A9FED9B
:10154000522AC3ED007AF0EE670AE3EE220AF0EECB
:10155000664AE3EEA24A60EEA03AE4EEA43AF4EE64
:10156000C23AF1EE10FA42DC484A494B82ED006A79
:101570004849494A83ED007A484BC1ED004AC2ED23
:10158000000AD3ED006A464A76EE266A69EEA97A29
:10159000C3ED006AE8EEA87A424BD2ED006A37EE5E
:1015A000267AEAEE0A7A82ED007A93ED007A3E4AD4
:1015B00077EE877A25EE600AC3ED007AD2ED007AE5
:1015C000B4EEE74AF1EE10FAC8BF82ED004A374A9E
:1015D00060EEA50A1368E4EE850A01331360A4EEF9
:1015E000A50AFFF757F9A3E5B0EE449AE8E6F1EE55
:1015F000E32A9FED223AC3EE223A64EEA32A60EE7C
:10160000A33A72EEE44A74EEA66ADFED1B4AF4EEEA
:10161000E46AF1EE10FA08D4F4EEC36AF1EE10FABF
:10162000D4BFF0EE664AF0EE434A73EEE00ADFED17
:10163000126AC2ED004A70EEA77AF4EEE67AF1EE95
:1016400010FA08D4DFED0D6AF4EEE67AF1EE10FA46
:10165000D8BFF0EE676AF0EE630AF0EE624AC3EDBF
:10166000006A81E720690020F868002017B7513828
:101670001C6900209B680020D7A3F0BED7A3F03ED2
:10168000F4680020A69B443B9C33623E186900200E
:1016900014690020106900200C690020B068002047
:1016A000AC680020A8680020A4680020A068002082
:1016B00010B586B00023CDE90133CDE9033305939E
:1016C000009306F05FF86946044601A806F06CF83E
:1016D000059B03B164000D4AD2E90131D26821F0C3
:1016E0004000202803F1010302F101020BD0402940
:1016F0000CBF0221012102FB03F301FB03F3B4FB46
:10170000F3F006B010BD0221F5E700BFE46C002045
:101710002E4A2F4938B5536C23F400435364136A9F
:1017200023F4AA6323F0050313620B681A6A02F01C
:10173000113222F0885222B9186A44F2444210420F
:101740003ED0224C40F6EF2240F69F20DA62206421
:10175000D86ACA6040F27752824228BF024662636A
:10176000A263E26322681B4822F0700242F020026A
:101770002260626C007822F0FF0202430125002003
:101780006264586265611A6820202A4388601248A2
:101790001A6004F0A3F870B96561236A43F4AA6380
:1017A00043F005032362636C43F4004363642368DE
:1017B0002B43236038BD094807F0ACFE72B6FEE744
:1017C0001A6822F001021A60BBE700BF002C01403A
:1017D000E46C002012000020B06E00204CB0000825
:1017E00010B586B005F07AFE0146194807F02AFECA
:1017F00005F0B0FF0146174807F024FE05F0B0FFE2
:101800000146154807F01EFE05F0BCFF01461348CF
:1018100007F018FE0023CDE90033CDE90233CDE90E
:10182000043305F0AFFF6946044601A805F0BCFF8C
:10183000059B03B164002146094807F003FEFFF74A
:1018400037FF0146074806B0BDE8104007F0FABD73
:1018500090B00008A4B00008B8B00008CCB00008F0
:10186000E0B00008F4B0000810B588B00A46069051
:1018700001210120CDE9040100231748079202A9A4
:10188000CDE9023304F082FD08B172B6FEE701240F
:1018900040F2012280231048039402A9CDE90623D7
:1018A00004F074FD08B172B6FEE702220A48009403
:1018B0002346114604F096FD08B172B6FEE70648CD
:1018C00004F0B2FD08B172B6FEE7044A137843F0A3
:1018D0000103137008B010BD4C6E00209868002002
:1018E00070B58AB0044615460E462422002101A890
:1018F00007F0EEFEB4F5006F01D2082D02D90020EA
:101900000AB070BD0C4804F0ADFE0028F7D00023EB
:10191000324601A908480993CDE90143CDE90335D1
:10192000CDE90533CDE9073304F096FDB0FA80F038
:1019300040090AB070BD00BF4C6E002070B58AB07F
:101940001546064628220C466846002107F0C0FED0
:101950000E48402104F07CFE10B900200AB070BD92
:101960000A4823466A46402104F0D8FD0028F4D1F5
:10197000DDE901321343F0D1039B009A3260082B5A
:1019800028BF082301202B700AB070BD4C6E0020C8
:101990002DE9F04F80468BB028B1A54C94F900306A
:1019A000002B80F28A81DFF8E0A2DFF8E092A14DFF
:1019B000A14CDFF898B20DF10B0204A903A8FFF7C0
:1019C000BDFF002854D0039E86B140F201139E4211
:1019D00032D040F201239E4200F0DE80802E19D0EA
:1019E0002B78FF2BE7D001332B70E4E7FEF75EFE88
:1019F000924B8BF800601E708D4B914E01221A7035
:101A00000423337023788F4A43F012032370062394
:101A10001370D0E79DF80B30022BE1D19DF8103008
:101A2000052BDDD103F054F8834AC9F80000137880
:101A300063F07F031370BEE723789DF80B1043F02B
:101A400002020229227000F0DA807A4A7D4943F0CE
:101A50000A03237013780220FF2B087001D0013392
:101A6000137003F035F8CAF80000FFF789F9A2E710
:101A700003F02EF8D9F80030044683B1C31AB3F549
:101A8000AF7F0CD8DAF80030E31A632B23D86E4A04
:101A90001368E31A312B27D80BB0BDE8F08F664AE4
:101AA000674D137803F07F0313702B78032BE9D174
:101AB000FEF7FCFD654A00231370604A13705C4B0F
:101AC00002221A705F4A04232B701370DAF8003078
:101AD000E31A632BDBD9CAF80040FFF751F95A4AE1
:101AE0001368E31A312BD7D9594B58491B78097819
:101AF0001460003B18BF012309B143F002034E4AB2
:101B0000127852074D4A127848BF43F004030AB1D5
:101B100043F008034F4A12780AB143F010034E49CC
:101B20004E4A0D681188002208B260F307024C4843
:101B3000C1F30721007861F30F2260F3174249498E
:101B4000494863F31F62494B04880888ADF82200B6
:101B5000CDE906521B68ADF82040082206A940F2E4
:101B600081200993FFF7BCFE28B9414A1378FF2B67
:101B70001CBF01331370082208A940F20130FFF79F
:101B8000AFFE002888D13A4A1378FF2B84D0013366
:101B900013700BB0BDE8F08F9DF80B30DFF898C0E4
:101BA000082B9CF8001073D1324E9DF817309DF829
:101BB0001620049FBDF814E03270002B40F08B809B
:101BC0002D4E07F52F3303F54873B34200F2DF8043
:101BD0000EF1FF33B3F57A6F80F0D980274B1B7875
:101BE000002B00F01E81264B1B789A4200F0878163
:101BF000D31ADBB2012B00F0148109206CE09DF8B0
:101C000010101C4B9DF811701F70022976D01D4BCF
:101C100000931B78002B40F0CA804B1E032B00F270
:101C2000B081DFE813F09700AE018000910000BFA3
:101C30009968002094680020986800205C68002063
:101C40009A680020966800208C6800207F68002039
:101C500080680020816800206C680020686800208F
:101C60007E680020646800206668002060680020AC
:101C70009568002097680020407E05007C68002061
:101C80007D6800207168002090680020586800205E
:101C9000A24A137841F04A01FF2B18BF01338CF898
:101CA00000109F4918BF1370022000220870022301
:101CB00011461046FFF72AF87DE6FEF7F7FC994932
:101CC00099489A4A00230B700370042168F07F033F
:101CD0002370117067E6032041F04A01904B8CF8A5
:101CE00000108E4918700B78FF2B01D001330B7058
:101CF000034671463846FFF709F85CE6012F48D0E5
:101D00008B4B1B7843B18B4B1B789F4200F0838039
:101D1000FB1ADBB2012B53D1844E3378013B012BEC
:101D200006D8854B55E0814E3378023B012B7ED996
:101D3000042342F008027A492270784A0B70137823
:101D4000FF2B7FF48CAE8CE6B8F1000F00F0898099
:101D50000523EEE7754E01913378042BE9D0FEF7A9
:101D6000A5FC714A75496E4B002010700122087065
:101D700032701A70019922786E4B1F70704B197077
:101D8000009901230B7022F00802227069E60720F7
:101D9000A2E7664E3378012B14D0654800780028FE
:101DA000BCD0644B1B78012B35D04BB9B5E7614BE8
:101DB0001B789F422FD0FB1ADBB2012B3FF42DAFD3
:101DC0000923B6E75C4B187830B1594800780028F1
:101DD000E7D11B78002BABD15A4B1B78002BA7D037
:101DE0000191FEF763FC584A54494D4B4E484FF061
:101DF000000C82F800C0022281F800C03270534902
:101E000080F800C001221A70494B81F800C0227886
:101E100001990093B0E74A4B1B788B423DD00823D1
:101E200087E7424E3378032B3BD0042054E7424BE4
:101E30001B78002B7FF47CAF424B1B78002B3FF4C8
:101E400077AF10067FF574AF019102F041FED9F82B
:101E500000200199831AB3F5AF7F40F28780227882
:101E600066E70191FEF722FC344B304E83F8008088
:101E70002D4B227883F80080344B019983F8008041
:101E8000314B83F800802C4B83F80080244B0120D9
:101E900002F0EF02307018706EE7214B01211970CB
:101EA00071E7254B1B780093002BBED1284E294BA0
:101EB0001F60337801333370274B1B4EA3F800E0CB
:101EC000009B3370254E3270254E3760254EA6F8A4
:101ED00000E0254E3370194B01261E701B4B1E70FF
:101EE00021F008010E4B41F042018CF80010012155
:101EF0001970034671463846FEF708FF5BE5184B3C
:101F00001B689F4201D00820E6E6164B1B887345EC
:101F1000F9D1154B1B78002BE2D0F4E79468002030
:101F2000966800205C6800207F6800209A68002086
:101F30007168002070680020996800208068002087
:101F400000000020816800207E6800207C6800205E
:101F50008268002088680020846800207D68002056
:101F60007868002074680020726800200191FEF7F4
:101F70009DFB0322044B327001221A7001992278D2
:101F8000FAE60323D5E600BF9668002030B52DEDB4
:101F9000048B93B0B0EE408A02F09AFDDFED3E0A6A
:101FA000DFED3E9AB0EE480A0546FEF73BFE55E0EF
:101FB0000020FFF7EDFCEFF3108472B6384944229D
:101FC00001A807F000FC84F310889DED019ADDED77
:101FD000020A9DED030ADDED048A9DED068AB5EE49
:101FE000C09AF1EE10FAF5EEC00A48BFB1EE499A78
:101FF000F1EE10FAB5EEC00A48BFF1EE600AF1EE5C
:1020000010FA48BFB1EE400A08F084F9F0EE490A30
:1020100008F080F9F5EEC08AF1EE10FA48BFF1EE53
:10202000688AF0EE680A08F075F9B5EEC08AF1EE3C
:1020300010FA48BFB1EE488AF0EE480A08F06AF993
:10204000B4EEE90AF1EE10FA13DC01214FF09040F2
:1020500004F05CFEE0B1012002F040FD02F038FD2A
:10206000401BB0F57A7FA3D3012013B0BDEC048BE5
:1020700030BDDFED0C7A0C4820EE270A4CF25032CE
:10208000FDEEC07A17EE901A07F0DCF90020ECE7BD
:10209000064807F03FFAF9E78FC2F53C00004842D6
:1020A0003069002000007A4438B1000878B1000897
:1020B00000B583B04FF0FF330190012201A903481E
:1020C00006F04EFD019803B000BD00BF506C00202B
:1020D000F8B52648264C274E274D0022012104F052
:1020E0001BFE22480022022104F016FE636C23F43A
:1020F00000436364236A334023622B68D86AD96A39
:10210000DA6ADF6A40084908B8424FEA520228BF3B
:102110003846B94228BF3946BA4228BF3A466063BA
:10212000A163E2635A6C42F400425A6400212846DB
:1021300006F064F90021284606F03AFC04212846FE
:1021400006F05CF90421284606F032FC08212846F6
:1021500006F054F90821284606F02AFC636C23F4A3
:1021600000436364236A33402362F8BD00040048DF
:10217000002C0140AAFAFFFFE46C002000B595B0E6
:102180003822002106A807F0A3FA00234FF40070BC
:10219000CDE90133CDE90333059304F0E3FE2221B9
:1021A0004FF48072069109924021012202230A9184
:1021B0000C921C21042206A8CDE90D33CDE90F3184
:1021C000CDE91132139304F047FF08B172B6FEE770
:1021D000034603210F2201A8CDE90121CDE90333F4
:1021E000059305F0B3F908B172B6FEE715B000BD6E
:1021F0002DE98048BDB002F04FFC342200212BA80D
:1022000007F066FA2BA804F023FC319B03F040632F
:10221000B3F1006F22D004F02BFA08B172B6FEE7DA
:1022200004F046FA20B104F057FA04F035FAF5E765
:1022300004214FF4C0424FF000632BA8CDE93023B6
:102240002B9104F08BFA0028EDD104F07BFA0446C0
:1022500004F042FA04F020FA002CDFD10024FFF74A
:102260008DFFCDE92B44CDE92D44B34B2F94D96C90
:1022700041F02001D964D96C01F02001189118991E
:10228000D96C41F00401D964D96C01F004011991B1
:102290001999D96C41F00101D964D96C01F001019F
:1022A0001A911A99D96C41F00201D964DB6C03F0E0
:1022B000020322461B9302214FF090401B9B04F027
:1022C0002BFD012210214FF0904004F025FD224605
:1022D0009A48032104F020FD01254FF090402BA9DE
:1022E0000227CDE92B542D9404F012FC2BA94FF0BA
:1022F00090401026CDE92B75CDE92D4404F008FC63
:102300002BA94FF09040CDE92B65CDE92D4704F086
:10231000FFFB032389482B932BA9CDE92C542E9442
:1023200004F0F6FB85482D942BA9CDE92B6404F02D
:10233000EFFB8349834A0A604FF416534B6008460B
:102340000C23C1E90244C1E90443C1E90644C1E9DF
:1023500008448C6206F0D6FE08B172B6FEE701466C
:10236000774806F041FF014608B172B6FEE77448AF
:1023700006F060FF08B172B6FEE7714806F016FF7E
:1023800008B172B6FEE705266F496D484FF47A73BF
:10239000372206F0E5FB6D4969484FF47A73112244
:1023A00006F0DEFB013E4FF4FA7002F097FB16F0E8
:1023B000FF06E9D123AC1FAD202231461F962046EF
:1023C000C5E90166624F07F083F931463C222BA82C
:1023D00007F07EF94FF400334FF0A0414FF00108B1
:1023E000C7E9001338460823C7E90266C7E90B6648
:1023F0003E61BE8387F82460FE6387F84060C7F8BB
:102400001480C7F82080BB6187F8386002F078FB41
:1024100008B172B6FEE7294638461F9603F0F0FD74
:1024200008B172B6FEE7DFF840A125967F220423AB
:102430004FF0060B21463846CDE92623CDE923ABE4
:10244000289602F0FBFD04237F2208B172B6FEE756
:10245000CDE92E2303233393A0228023CDE9352316
:10246000CDF8ACA009234FF0020A2BA938463096CC
:10247000ADF8D0608DF8D2608DF8DC60CDF8B4A0F6
:102480002C9303F0E5FA08B172B6FEE7DFF8DCC082
:1024900040F20F132BA93846CDE92BC303F0D8FA2D
:1024A00008B172B6FEE738462A4F40F215232BA931
:1024B000CDE92B7303F0CCFA08B172B6FEE72648DB
:1024C000264B03600E23C0E90166C0E90888C0E915
:1024D0000A88C0E90E668674C0F81CB0C0F834A043
:1024E000C660A0F81080C0F81880C0F83080436142
:1024F00003F05EFE08B172B6FEE7194F194B3B6060
:10250000A3F1F953A3F56E23A3F22B533846C7E981
:102510000268C7E90466C7E906663E627B6004F0AC
:102520000BFC08B172B6FEE73146384604F05EFC9B
:10253000F0B172B6FEE700BF001002400004004890
:10254000506C00200038014080BF0008C8B100086E
:10255000B06E0020000180214C6E0020006400401D
:10256000F86D002000780040400020198000501DC8
:102570007248002104F064FC08B172B6FEE7704FA7
:10258000704BB8604FF4827BC7E90800C7E90C00C4
:10259000C7E9003B38613823B8624FF4706A3846A7
:1025A0004FF001094FF400780726FB61C7E9059851
:1025B000C7F80CA0FE6205F05BFB034608B172B6DB
:1025C000FEE76148C0E90833C0E90C33836003616A
:1025D00083625E4B03601823C662C0E90598C0F8A9
:1025E00004B0C0F80CA0C36105F042FB064608B178
:1025F00072B6FEE7DFF85C8123901F90C4E901000A
:10260000C5E90100C4E90300C4E90500CDE91D00E6
:10261000E8601C90014634222BA807F059F84C4B77
:10262000C8F80030404640F6EF23C8E90166C8E923
:102630000466C8F81860C8F80C3005F0F5FF08B15A
:1026400072B6FEE74FF48053294640461F9305F0CB
:10265000D7FE08B172B6FEE7404606F017F808B19B
:1026600072B6FEE71C901E904FF4E0031CA9404692
:102670001D9306F09FF9024608B172B6FEE7CDE958
:102680002500CDE9270029906023322621464046C7
:10269000CDE9233606F0A8F808B172B6FEE724901B
:1026A00004222146404606F09FF808B172B6FEE7C4
:1026B000404608222146249606F096F808B172B6E4
:1026C000FEE74FF0700A40F69F2322480C22214675
:1026D000CDE923A306F050F808B172B6FEE70B234C
:1026E0002E934FF40053CDE92B00CDE93100CDE915
:1026F00035002D902F9033903790309315484FF040
:1027000000732BA9349306F0A7F9064608B172B6F8
:10271000FEE7104802F040F80F48104B03604FF0FE
:1027200002084FF40273C6728380C0F8078004F079
:10273000B1FB0646A0B172B6FEE700BFF86D0020FF
:10274000946D002000300140306D0020003C0040BE
:10275000002C0140E46C002074690020005C004003
:10276000BA49BB4BD1F8FC2042F08072C1F8FC2082
:1027700058601A6842F001021A60B64A536C23F49A
:1027800000435364136A23F4AA6323F0050313621E
:10279000FDF78CFFB04B1E70B04B1E70B04B1E701F
:1027A000B04B1E70B04B1E60B04B1E80B04B1E7005
:1027B000B04B1E70B04B1E70B04B1E70B04B1E70F5
:1027C000B04B1E70B04B1E70B04B1E60B04B40F251
:1027D000011130461E60FFF747F802F079F9AD4B62
:1027E0006438186001220521AB4806F02BFE40F248
:1027F000812C40F28113CDE9013C40F2012300938A
:10280000812240F201133146A44806F01BFE4FF42A
:10281000AF73A349009301224FF47A63A14806F0F5
:1028200011FE41F28833009342F6E06242F21073E7
:1028300041F270719C4806F005FE01224FF4004100
:102840004FF09040CDE92B66CDE92D662F9604F030
:1028500063FA4FF4004E01232BA94FF09040CDE9CD
:102860002D68CDE92BE304F053F9214643F6FF70C0
:10287000ADF88C60ADF8AC60FEF780F900B32BA921
:1028800043F6FD70FEF77AF9D0B1BDF88C10874B96
:10289000C1F30D0EAEFB03309A0B42EA80424FF4B7
:1028A0007A708C46B2FBF0F300FB1320BCF1000FF2
:1028B00000F014810CF0010256404FEA5C0CF5E781
:1028C0007B4805F0A5FB0646794805F0A5FB314697
:1028D0000246784806F0B6FD3A681368002623F0F1
:1028E0004003CDE92B66CDE92D662F9610211360AC
:1028F0004FF09040012204F00FFA324620214FF0B1
:10290000904004F009FA324640214FF0904004F024
:1029100003FA4FF00108302302272BA94FF0904013
:10292000CDE92B382D962E9704F0F2F840232BA9F1
:102930004FF090402B93CDE92C862E9704F0E8F8C9
:1029400080232BA94FF090402B93CDE92C682E9734
:1029500004F0DEF83E49584B48681B68574AB3FB01
:10296000F2F303EB83034A68121A9342FBD8012265
:1029700002214FF0904004F0CFF90A2002F0AEF8A7
:102980004F495048DFF85091DFF830A106F05AFD6A
:1029900002214FF0904004F0B9F9102106464FF0A3
:1029A000904004F0B3F9012107464FF0904004F045
:1029B000ADF9802180464FF0904004F0A7F9421E07
:1029C0005042504108F1FF314B42009007F1FF3077
:1029D0004B41013E42424241714271413A483B4EB5
:1029E0003B4FDFF86C8006F02DFD4FF0000B49EAFD
:1029F000CB2292B210460592FDF78AFE2E4AD8F8F5
:102A000004C01168059AB1FBFAF10346D8F8040036
:102A1000A0EB0C008142F9D832803B80C3F30A035B
:102A2000009332883B882B48594692B29BB20BF1F7
:102A3000010B06F007FDBBF1080FD8D1FDF7E8FF49
:102A400000285ED1FDF732FE72B6FEE700ED00E031
:102A5000001000E0002C0140986800209A680020D7
:102A6000996800209668002088680020846800200B
:102A70008268002081680020806800207F68002034
:102A80007E6800207C680020716800208C6800202F
:102A90005868002090680020DCB100081CB20008D3
:102AA00020BF02008CB20008ECB20008407E050096
:102AB000306D00203CB300082400002040420F008D
:102AC000CCB30008E8B3000808B400082C69002063
:102AD0002A6900206CB400080080FFFFDFF8C0C244
:102AE00000909948012E18BF60460190BDF8AC00D7
:102AF0000390C1F3803002907246944806F0A2FC25
:102B0000EAE6934806F006FDFFF7E2FA914A002351
:102B1000ADF87C30ADF88C30ADF8AC30536C23F4AC
:102B200000435364136A23F4AA6323F005031420BB
:102B3000136201F0D3FF88487F2102F081FE002854
:102B400040F0EC8029460620FDF778FEF0B12146E2
:102B50000720FDF773FEC8B1BDF88C80C8F30A0AE0
:102B60004AF4605040F00100FDF7D2FD2BA9072088
:102B7000FDF764FE18B1BDF8AC30DB070AD4774826
:102B800006F0C8FCFDF792FD72B6FEE7744806F049
:102B9000C1FCF7E7BDF87C60C6F30A0343F440507C
:102BA00040F01C000693FDF7B3FD2BA90620FDF7AE
:102BB00045FE074628B1BDF8AC2002F01C031C2BD3
:102BC00007D0684806F0A6FC4AF46050FDF7A0FD67
:102BD000D8E748F0010331466348DFF8C891DFF8D1
:102BE000C8B106F02FFC012001F078FF5F484FF4D8
:102BF000007106F027FCCDE9078A5D4B05934FF085
:102C00001008DBF800603046FEF716F9B8F101084D
:102C1000F7D1B2464FF6FF714FF400760997CDF821
:102C200028B04746CB46C146B0460E465046FEF752
:102C300003F9864228BF0646874238BF0746B8F1E7
:102C400001088144B6B2BFB2F0D131463A46464699
:102C5000C8460192D94608F58073521A009192B283
:102C6000C3F34F21029229F8021B0A46A1F5007115
:102C70001FFA81F83F48404940F6E443B8F5406FF9
:102C800028BF01460598039102FB03F340F6FF714C
:102C900003F2FF73B3FBF1F310F8011B0590DDE9BC
:102CA000097B364806F0CEFB354BB8F5406F2CBF9C
:102CB000002707F001074B450BF1040B9FD1069B42
:102CC00043F44050DDE9078AFDF722FD2BA90620D9
:102CD000FDF7B4FD20B1BDF8AC3003F01C031BB10F
:102CE000284806F017FC00274AF46050FDF710FD55
:102CF0002BA90720FDF7A2FD30B1BDF8AC3088EA62
:102D0000030818F001080DD01F4806F003FC1F4807
:102D100006F000FC1E4806F0FDFB33E71D4806F0F8
:102D2000F9FB2FE7194806F0F5FB002FF2D01A4BFC
:102D30001A48198806F086FBFDF76AFEB0BBFDF75E
:102D4000B5FC72B6FEE700BFB0B1000874B300086E
:102D5000A0B40008002C0140B06E00205CB5000853
:102D600024B5000888B50008B8B5000800B600080A
:102D700070BF0008B4B1000874B1000844B6000880
:102D80001A00002084B60008C4B60008FCB600088B
:102D90003CB70008E8B400082000002084B7000811
:102DA000ACB100081400002074BF0008FEF718FD45
:102DB0000521CB48DFF800B4DFF80094C94FDFF8F5
:102DC00000A406F03FFBC84806F0A4FBC74AC84869
:102DD0008BF80080382100231170C64A89F80080E2
:102DE0003B60037812788AF800800E920BBB9846FD
:102DF000C14BDFEDC28A9FEDC28A05961E4607EEE3
:102E0000908AB8EEE70A08F1010820EE280A20EEC1
:102E1000080A07F045FAB8F5806FB548B64BA6EC3E
:102E2000010AECD11A68059E03F580531A6001234C
:102E30000370FEF76DFCDFEDB30AB0EE600AFDF73C
:102E4000F1FEFEF735FC0146AF4806F0FBFA42F210
:102E5000DA325021AD4806F0F5FAAD4806F05AFBDB
:102E60009FEDA80AFFF792F8002800F0A6871CA89B
:102E7000FDF712FF002800F0A087A64806F04AFBE5
:102E80009FEDA50AFFF782F8002800F092872846F8
:102E9000FDF702FF002800F08C87BDF87C10BDF81C
:102EA0007030C91AB1F5005FC0F27C87A1F580418E
:102EB00001F13F037E2B40F26F870029C0F2ED84C1
:102EC0000A469649964801230B70964906F0BAFACD
:102ED000954806F01FFB9FED8B0AFFF757F8002877
:102EE00000F09B842046FDF7D7FE002800F0958473
:102EF000DFED848A2024B0EE688AB0EE689AF0EEA6
:102F0000689A2BA8FDF7C0FF9DF8E83001209BB11F
:102F10009DF8EA3083B19DED2B6ADDED2C6A9DEDC5
:102F20002E7ADDED2D7A79EE869A39EE269A38EEF4
:102F3000078A78EEA78A064401F0D0FD013CE0D173
:102F4000002E00F04C8707EE906AF8EE677AB1EE3B
:102F5000047A89EE27AA88EE279A89EEA78AC8EE16
:102F6000A79A79EE4A7AC7ED007AD7ED007AF5EEA6
:102F7000C07AF1EE10FA48BFF1EE677AF4EEC77A44
:102F8000F1EE10FA00F31D87B5EEC08AF1EE10FAEB
:102F900000F12987F5EE007AB4EEE78AF1EE10FA37
:102FA000C0F2E9860123614C2370DFED618A02964D
:102FB00069EEA87A2AEE28AAFDEEE77A94F90010C5
:102FC000584BCDED017A28EE288AFDEECA7A29EE1B
:102FD000289A584A5848594EDFF8E8819FED58BA68
:102FE000DFED469A0029C8BF1A46BDEEC99A17EE12
:102FF000903AFDEEC87A11468DED009A17EE902AB0
:1030000006F020FAD7ED007A4E489FED3E8A4E4FEB
:1030100067EEA87A0125FDEEE77A002417EE901AF4
:1030200006F010FA494A8AF80050536C23F4004322
:103030005364136A23F4AA6323F00503F0EE480AED
:10304000B0EE480A1362FDF7EDFD414A414B82EDB7
:10305000008A414A414982ED008A414A414882ED55
:10306000008ABDF88C201A8008923F4A49680160A6
:1030700014603E483E4A80ED008A82ED008A3D4859
:103080003D4A80ED008A14603C483D4A80ED008A4C
:1030900082ED008A3B483C4A80ED008A14703B4830
:1030A0003B4A80ED008A82ED008A3A483A4A3A600B
:1030B0003A4A80ED008A326039483A4A80ED008A07
:1030C00082ED008A3848394A80ED008A82ED008A14
:1030D0003748384A80ED008A82ED008A74E000BFEC
:1030E000D8B70008EC6800200CB8000812000020D7
:1030F000505800208268002054580020DB0FC9403F
:103100000000803A0000000070B800089CB8000879
:10311000E8B8000850B90008DB0FC93F11000020D3
:1031200070BA0008C0B10008B8BA0008100000204A
:1031300000007A44C4B10008F0BB00080800002079
:10314000CDCCCC3D64BC00080C000020002C01401C
:1031500024690020F068002008690020001000E0C9
:103160000469002000690020FC680020F868002045
:1031700020690020F4680020C0680020D868002082
:103180001C690020D4680020BC680020D0680020A2
:10319000E4680020CC68002000004041000020418D
:1031A000C8680020B0680020C4680020AC68002017
:1031B000B8680020A868002029690020286900203C
:1031C000E8680020E0680020CA48CB4A80ED008A09
:1031D000CA4BCB4882ED008ACA4A80ED008AC8F803
:1031E000004014601C70C84AC84BC94814601C7069
:1031F00006F090F9D7ED007A96ED007AC54867EEB3
:10320000A87A27EE287AFDEEE77ABDEEC77A41F27A
:10321000883617EE103A17EE902A41F27071009638
:1032200006F010F94FF4AF7300933222C823FA214D
:10323000B94806F007F964221146B84806F002F9C9
:1032400004F08EFA4FF4FA510309C822B44806F08C
:10325000F9F8FDF72BFAB34BB34A1C70B34B1C7053
:10326000B34B1D70B34B1D70137843F020031370E4
:1032700001F02EFCB04B64381860B04806F04AF9F3
:1032800001F026FCAE4BAF491B68059307EE903A60
:10329000B8EE677AF7EE006AC6EE877A4B68AA4AFC
:1032A0008BF80040A4468646059C0C93C8207D21DF
:1032B000CDE90ACECDE905C3C2ED007AA34AB4FB3D
:1032C000F2F200FB123001FB02F106FB02F2B0EE5B
:1032D000489AF0EE488AB0EE48AAF0EE48AA099063
:1032E00010911192CDF81CC0E246CDF834E0CDF833
:1032F00058E0CDF83CC001F0EBFB924B05465C6812
:1033000099F80000FEF744FB8A4B1E78032E00F06C
:10331000CF838F4A00231370CDE90A358D4A079376
:10332000B0EE489AF0EE488A13708B4B0E9A1B78D9
:103330001293934236D0D8ED007A9FED885ADFED94
:10334000886A884B9FED886A814A0B95F8EEE77A88
:10335000F2EE065A67EE857AB2EE047A67EEA67A46
:10336000B0EE489AC7EEA56AF0EE488AC3ED006A4F
:103370007E4B1B6807EE903AF8EEE77A604BC7EE9B
:10338000866AC3ED006A7A4B1B8807EE903AF8EE26
:10339000677A002387EE87BA13700793754B764AD6
:1033A0001B7813700C9B109AE31A9A4240F2FF822A
:1033B0009BF80030002B40F0EA820D9BEB1AC72BE4
:1033C00040F228829BF80030002B00F023824F4B04
:1033D000169A1E78AB1A8B2E179300F2FE81EFF32C
:1033E000108472B6654944222BA806F0ECF984F3E8
:1033F00010889DF8E82013929DF8E92015929DF819
:10340000EA209DED2B6A9DED2C2A9DED2D5A9DED18
:103410002E7ADDED2F4ADDED307ADDED345A359C24
:10342000BDF8D8000E92EFF3108172B6544E554A93
:10343000554FD6ED00DA92ED00DAD7ED00CA2E4FE7
:10344000134697ED00CA304A2E4F3F68126886ED4A
:10345000008A4D4E83ED008A86ED008A264E149236
:1034600086ED008A284A274E4FF0000CC6F800C0AF
:10347000C2F800C081F31088444A4549D2ED002AC1
:10348000444A224B92ED003A434A77EE066AD2ED67
:10349000003A424A76EEA76ADFED337AD2ED001A9F
:1034A0003F4A27EE277A26EE276A22EE272A64EE85
:1034B000A74A25EE275A65EEA75A66EEA76ABDEE23
:1034C000C74A62EEA72A9FED377A23EE273A63EECA
:1034D000A73A61EEA71AD2ED007A67EE877ABDEEC1
:1034E000C66AFDEEE77ABDEEC22A17EE902AD1ED4C
:1034F000007A59E0B4680020A46800209B6800208E
:10350000DC680020A06800209C680020CC0000201F
:10351000B8BC000824BD000880BD0008F0BD00084C
:1035200084BE0008996800209868002096680020F2
:10353000816800209A68002090680020D0BE0008B2
:1035400024000020001000E00400002040420F0092
:103550007F6800205C680020826800200000B4437F
:1035600000008038D868002000007A448868002075
:10357000846800207D6800207E680020306900207B
:10358000B0680020AC680020A868002018690020FE
:10359000D4680020146900202469002004690020F8
:1035A000E46800200000C842BE4967EE877AFDEE5D
:1035B000E22AFDEEE77ABDEEC33A17EE906AD1ED4E
:1035C000007A19780B46A02103FB01F10D93B64B4D
:1035D0005C501C1F179B635063180D99D8F800406E
:1035E0001881C3E90F6267EE877A4E1C2AEE877A4C
:1035F000AE49AF4A83ED036AF6B2FDEEE33AFDEE63
:10360000E11AFDEEE77ABDEEC77AFDEEE44ABDEEC3
:10361000C55AFDEEE55AFDEEE66A0E7084FB022106
:10362000614583ED042A83ED054AC3ED0A2A83ED43
:103630000B3AC3ED0C3AC3ED0D1A83ED0E7AC3EDD0
:10364000117AC3ED064A83ED075AC3ED085AC3ED5C
:10365000096A04DA43F6FF70121841F1000107EE1F
:10366000904ADFED946A9FED947A9448DFED94BA26
:10367000F8EEE77A920B67EEA67AF2EE066A67EE4C
:10368000877A42EA814287EEA67A8E499A64A0241C
:10369000D0ED007A8C4867EEAB7A90ED006A8B48EB
:1036A000FDEEE77AD0ED006A0D9817EE903AFDEE48
:1036B000C77A91ED007A864917EE902AD1ED007A0B
:1036C000844904FB0014C4E9132326EE2B6A66EE3A
:1036D000AB6A27EE2B7A67EEAB7A7F4B7F4A1B688B
:1036E000E365BDEEC66AFDEEE66ABDEEC77AFDEEA5
:1036F000E77A7B4B84ED156AC4ED166A84ED187A7F
:10370000C4ED197A5B68126876489B1AA3FB000126
:10371000754B1A680023FCF7D3FD744BDFED745A28
:1037200093ED006A734BA066D3ED006A724B93ED84
:10373000007A724BD3ED007A714B67EEA57A26EED4
:103740002B6AFDEEE77A66EEAB6AC4ED1F7AD3ED25
:10375000007A6C4B67EEAB7A27EE2B7AFDEEE77AB8
:10376000BDEEC66AC4ED1E7AD3ED007A84ED1B6A05
:1037700067EEA57AFDEEE66ABDEEC77AFDEEE77A62
:10378000C4ED1C6A84ED1D7AC4ED207A002F40F050
:10379000D580C4E9217738463C46139B0D99002219
:1037A00063F30702159B63F30F220E9B63F317422B
:1037B000A02303FB01F10B465349097861F31F6213
:1037C00044491944C1E923401498C1F89470C1F8E0
:1037D000980098333449CA50DEB13E49A022731E86
:1037E00002FB0313D3F8942040F6B7339A4210D863
:1037F000062389F80030454A00238BF80030536CCB
:1038000023F400435364136A23F4AA6323F00503EB
:1038100013620D95129B0E936DE53D4805F07AFEFF
:10382000DFED3C0A314A334B00248BF80040C2EDF7
:10383000000AC3ED000A384BC3ED000A374B93ED85
:10384000000AFDF7B9F93148436C23F4004343649F
:10385000036A23F4AA6323F0050303623048314B63
:103860001C70037823F024030370022122464FF0DA
:10387000904003F051FA224602212B4803F04CFA03
:103880002A4802F0ADF8FCF711FF294805F042FE86
:1038900099F80000FEF77CF8FAE7264A264805F07A
:1038A000D1FDBDE7D0680020D4000020CC0000206E
:1038B000407E050000C8AF4800008038D86800206E
:1038C00000007A44C8680020CC680020DC68002032
:1038D000C4680020D0000020C068002000690020DB
:1038E000001000E040420F0024000020206900206A
:1038F00000401C461C690020B868002010690020A8
:10390000B46800200C690020BC680020002C014035
:10391000E0BA000800000000E468002024690020EC
:10392000986800208168002000040048B06E0020E4
:1039300018BF0008C0B1000810BA000807EE907A5E
:10394000F8EE676AB0EE086A8DEEA67ACDEE267ABA
:1039500027EE2B7A67EEAB7A66EE866ABDEEC77A03
:10396000FDEEE77A8CEEA60A84ED217AC4ED227A88
:1039700006F03CFC2CEE2BCA60EE2B7ABDEECC7A26
:10398000FDEEE77A17EE100A17EE904A05E70121DF
:103990004FF0904003F0BAF900287FF40EAD0522F5
:1039A00089F800208BF80000FCF780FE05E5A74BA6
:1039B0002BA85E68FDF770F9002842D10AF1010AD0
:1039C0005FFA8AFABAF1090F0FD9A14A032189F8DF
:1039D00000108BF80000536C23F400435364136A07
:1039E00023F4AA6323F005031362DDE908679BF85B
:1039F000003013B3B5EEC0AAF1EE10FA9FED957A40
:103A00004CBFF1EE4A7AF0EE4A7AF4EEC77AF1EE64
:103A100010FA12DD042389F800308D4A00238BF858
:103A20000030536C23F400435364136A23F4AA63F5
:103A300023F00503F0EE4AAA136209970C94089646
:103A4000B6E4824B089A5B6883499B1B06EB5303E1
:103A5000BDF8AC6008688149B0FBF1F1B21AC82723
:103A6000B2F5005F07FB11374FDBA2F58042099BDF
:103A7000FB1A07EE103A07EE900AB8EE477AF8EE16
:103A8000677A304687EE275AFCF7B0FD744BD3EDCA
:103A9000006A744BD3ED007AE5EE267AB0EE407AF8
:103AA000F4EEE97AF1EE10FA27DB77EEE97AF7E740
:103AB0009BF80030002B7FF438AC6B4B1B78002B4D
:103AC0003FF433AC0A9B002B00F091800F9BEB1A64
:103AD000092B7FF62AAC01214FF0904003F016F934
:103AE0000A9020BB052389F80030FCF7DFFD5F4B0F
:103AF0001B78032B7FF40DAC17E4F5EEC07AF1EEE2
:103B000010FA08D577EEA97AF7E712F5005FB8BF8B
:103B100002F58042ABE737EE677ADFED556AB4EE27
:103B2000E67AF1EE10FA7CDD37EE697AF7E7474B7B
:103B30002BA85F68FDF7B0F8002800F08280434BA7
:103B4000BDF8AC405B68089A0C93D91B424B434DBF
:103B50001B68B3FBF5F3A21A07EB5101C82000FB69
:103B60001313B2F5005F099365DBA2F5804241496A
:103B70002046FCF73BFD91F90010D8F8003002FB1D
:103B80000133B0EE40AAC8F8003000F0A1FF3A4B74
:103B90000D90B0EE4A0A0546F0EE480A099883ED0A
:103BA00000AAFCF763FD2A4B0894012159611A6AA7
:103BB0009FED32AA42F4AA6242F005021A625A6CE0
:103BC00042F400425A641A680A431A602C4A8BF87D
:103BD0000010137843F0040313700C9B06931C46EB
:103BE0000023F0EE4AAA059300230A937FE7254BB2
:103BF00083ED008A244B83ED008A244B83ED008AF9
:103C0000234B012202214FF0904083ED008A03F004
:103C100083F80123B0EE489AF0EE488A0F950A9394
:103C200065E7DFED1C6AB4EEE67AF1EE10FA35D501
:103C300037EE297AF7E712F5005FB8BF02F5804248
:103C400095E789F80060FCF731FDCDE7001000E052
:103C5000002C014000409C452400002040420F0001
:103C60000469002008690020816800209A6800200B
:103C7000DB0F4940110000202469002000000000F3
:103C80009868002020690020F8680020F46800206F
:103C90001C690020DB0F49C0CDCC4C3E5FED026AB1
:103CA000564BB5EEC07AF1EE10FA67EE266A83ED58
:103CB000007A50D49FED527AF4EEC76AF1EE10FA12
:103CC000D8BFB0EE667A4F4BDFED5E6A93ED004AE7
:103CD0004D4BDFED4E4A93F9003002FB03F30E2209
:103CE00002FB03F205EE902AF8EEE55A25EE265A7D
:103CF00065EEA95ADFED466A85EE856A36EE446ABE
:103D000026EE246AB4EEE66AF1EE10FA08D4DFED8E
:103D1000416AB4EEE66AF1EE10FAD8BFF0EE466AF8
:103D2000384AD2ED000A3C4A82ED007A059A1A44DC
:103D30000592D8F8002037EE870A03EB020A70EEEE
:103D4000A60AC8F800A0B4EEE90AF1EE10FA0ADB00
:103D500030EE690AF7E79FED317AF4EEC76AF1EECB
:103D600010FAA7D5AFE7B5EEC00AF1EE10FA6DD59F
:103D700030EE290AF7E7DFED347A294C294A2A4840
:103D800068EE277A0123FDEEE77A237017EE901A8A
:103D900005F058FBFFF709B94FF49272234805F07C
:103DA00051FB3DE511F5005FB8BF01F58041FFF71C
:103DB0007FB81F4805F0AEFB32E51E4805F0AAFBB0
:103DC0002EE5D7ED007A9FED207A1B4867EE877AC3
:103DD000FDEEE77A17EE901A05F034FB20E5174860
:103DE00005F098FB1CE5FDEE007AB4EEE78AF1EEF3
:103DF00010FAC0D84FF0FF33FFF7D5B8C8680020DD
:103E00000AD7A33C0469002011000020CDCCCC3C93
:103E1000000048C300004843C46800200AD7A3BC80
:103E200010000020C0B10008A0BB0008C0B9000805
:103E30008CB900081CB900085CBB000820BB000856
:103E40000000B4430000804600007A443846FCF786
:103E50000DFC069B119AE31A9A4200F2D5829DED61
:103E6000057A1FED096A5FED094A1FED095A07EE51
:103E7000903ACC4BF8EE676A83ED007A07EE90AA91
:103E8000C94BF8EEE77A1B680593F8EEC75A67EE60
:103E9000867A9FEDC67A06EE103A65EE875AB8EE3E
:103EA000466A66EEA44A65EE865A9FEDC17AC14B1A
:103EB00085EEA4AAF6EE003A7AEE6A5A67EE877AA1
:103EC000E5EEA3AAB2EE064AC7EE84CA8AEE84DA09
:103ED0002CEE855AB2EE047ADFEDB77ABDEEC55A04
:103EE0002DEE077A83ED005AB4EEE77AB34BF1EE8C
:103EF00010FA83ED00AA08D4DFEDB17AB4EEE77AC8
:103F0000F1EE10FAD8BFF0EE477ABDEEE77AAD4A8F
:103F1000DFEDAD5ADFEDA87A17EE103A1BB2138031
:103F2000AA4B93ED007A27EE257AB4EEE77AF1EE0C
:103F300010FA08D4DFEDA27AB4EEE77AF1EE10FAC7
:103F4000D8BFF0EE477ABDEEE77AA14ADFED9E5A80
:103F5000DFED997A17EE103A1BB213809D4B93ED6B
:103F6000007A27EE257AB4EEE77AF1EE10FA08D45B
:103F7000DFED937AB4EEE77AF1EE10FAD8BFF0EE07
:103F8000477A954B9FED907AD3ED00BA934B9449C5
:103F900093F800A0934BFDEEE77A3BEEECEA1A783B
:103FA00017EE903A2EEE077A1BB20B80BDEEC77A61
:103FB0008D4B83ED007A8D4BC6EE86EA1A70BAF10E
:103FC000000F00F01D829BF8003003F0FF0A002B69
:103FD00000F01682864B93ED00CADFED867A7BEE09
:103FE000CCDAB0EE080AF5EEC0DAF1EE10FA00F124
:103FF0000F826DEEA77A87EE800A06F0F7F8F5EEED
:10400000C0DAF1EE10FAF0EE407A40F3F481F5EE0A
:10401000C07AF1EE10FA00F1EE81F4EECB7AF1EE17
:1040200010FAC8BFF0EE4B7AB0EE6DFA9FED717AE0
:10403000F4EEE78AF1EE10FA2EEE877A40F1D081A5
:1040400038EE877AB4EEE77AF1EE10FAD8BFF0EEE8
:10405000477A38EEA77AF6EE006A27EE267AF1EE76
:10406000086A27EE267AF5EEC0DAF1EE10FAAEEE27
:1040700087CA40F39381F4EECCBAF1EE10FA00F265
:104080009481B0EE6BCAF0EE488A594B7CEE6CCA54
:1040900083ED00CA584BF2EE067A68EEA77AC3EDBC
:1040A00000CA564B7BEECCBA37EEEA7AC3ED007A03
:1040B000534BF5EEC0BAF1EE10FA83ED007A9FEDA6
:1040C000517A48BFF1EE6BBAF4EEC7BAF1EE10FACE
:1040D00078EECD7A40F13681F5EEC08AF1EE10FA35
:1040E000DFED486A4CBFB1EE687AB0EE687AB4EEA4
:1040F000E67AF1EE10FA40F12581B5EEC0EAF1EE74
:1041000010FA48BFB1EE4EEAB5EE007AB4EEC7EA57
:10411000F1EE10FA00F21681B5EEC0DAF1EE10FA07
:104120009FED397A48BFB1EE4DDAB4EEC7DAF1EE61
:1041300010FA00F20781079B002B00F0BC80EB1AFD
:10414000B3F5967F05D3314A137813B90123137061
:104150000B959BF8003003F0FF0A002B00F0508114
:104160009FED2B6A9FED287A2CEE866A67EE875AC0
:1041700026EE2E6AFFEE007A36EE097AF5EE006A38
:10418000B4EEE77AF1EE10FAECEEA65A42D4F7EE6E
:10419000007AB4EEE77AF1EE10FAD8BFF0EE477A83
:1041A00038E000BFC06800202400002000007042FA
:1041B000000080386C680020000000C7D468002030
:1041C00000FEFF466868002000007A441469002061
:1041D000666800201C690020DC68002080680020E0
:1041E00064680020BC680020606800205C680020D3
:1041F000D86800200000C842CC680020E468002095
:10420000D06800200AD7233CCDCC4C3E7F680020EC
:10421000CDCC4C3D35EEA77AF9EE086AB4EEE67ADD
:10422000F1EE10FA7BD4F1EE084AB4EEE47AF1EE46
:1042300010FAD4BFB0EE475AB0EE645AB4EE457AE5
:10424000F1EE10FA52D0B4EEE45AF1EE10FA43DB7C
:10425000B5EEC06AF1EE10FA48D47D4B35EE897A9E
:1042600083ED009AB5EEC07A7A4BF1EE10FA83ED49
:10427000008A22D4F0EE497AF1EE086AB4EEE67ACA
:10428000F1EE10FA744AACBF01230023B0EE679A36
:104290001370F1EE087AB4EEE77AF1EE10FAC8BFC7
:1042A000B0EE677A6D4B4FF0000ACDE905A483EDBF
:1042B000007AFFF79CBB07954BE7F9EE087AB4EE5E
:1042C000E77AF1EE10FA644A94BF012300231370D9
:1042D000DFD5B0EE677AE5E7B4EEE65AF1EE10FA14
:1042E000BBD8B5EEC06AF1EE10FAB6DD584BB5EEAC
:1042F000C07AC3ED007A574BF1EE10FA83ED008AD5
:10430000BAD5F9EE086AB4EEE67AF1EE10FA524A3E
:1043100094BF01230023B0EE679A1370B9E7B5EE9E
:10432000C06AF1EE10FA98DD494B4B4AC3ED007AB2
:10433000484B83ED008A0123B0EE679AB0EE667AAF
:104340001370AFE7464B1B7813BB0B9AA91A43F6C1
:104350009722914219D9434A1278032A15D10A218A
:1043600089F800104049414A81ED008A3B4981EDBE
:10437000008A8BF80030536C23F400435364136AB3
:1043800023F4AA6323F00503136200230793E0E6F6
:10439000334A0B95002313700793DAE605D5F4EE44
:1043A000CCBAF1EE10FABFF66CAE9FED317AB4EEF6
:1043B000C7FAF1EE10FA10D5F5EEC07AF1EE10FA68
:1043C000DFED2C6A4CBFB1EE677AB0EE677AB4EEDF
:1043D000E67AF1EE10FA3FF554AEF0EE678A54E655
:1043E0002FDD38EEC77AF4EEC77AF1EE10FAD8BFB7
:1043F000F0EE477A2DE6B0EE6DFAF0EE487A15E66B
:10440000CDE905A4FFF7F3BA4FF0000AFFF7EFBAC2
:104410006DEEE77AB1EE6DFA87EE800A05F0E6FE02
:10442000B5EEC00AF1EE10FAF0EE407A0CD4B4EE1C
:10443000CB0AF1EE10FAC8BFF0EE4B7AF1EE677AD4
:10444000F4E5F0EE687A04E6F0EE487AF6E700BFAD
:10445000B8680020B4680020BC6800201C690020F7
:104460007F6800209A680020E4680020002C01404A
:104470006F12833A0AD7233C72B6FEE70B4B1A6ED3
:1044800042F0010282B01A661A6E02F00102009236
:10449000009A9A6D42F080529A659B6D03F08053AA
:1044A0000193019B02B002F0CFBD00BF001002409B
:1044B00010B5044698B00021442207A8CDE90211A6
:1044C000CDE90411069105F003F92368B3F1A04F7B
:1044D00001D018B010BD4FF400424FF0005307A8B0
:1044E0000792169303F082F930BB174B1748DA6C2A
:1044F00042F40052DA64DA6C02F400520092009A3C
:10450000DA6C42F00402DA64DB6C9FED0D7B03F0A1
:10451000040302A9019300248DED027B019B049406
:1045200002F0F6FA22460121122001F0DFFD1220EE
:1045300001F016FE18B010BDFFF79EFFD5E700BFD3
:1045400007000000030000000010024000080048BF
:1045500010B5044698B00021442207A8CDE9021105
:10456000CDE90411069105F0B3F81F4B22689A4279
:1045700001D018B010BD4FF480524FF0007307A85F
:104580000792139303F032F910BB184B18489A6D39
:1045900042F000729A659A6D02F000720092009AE1
:1045A000DA6C9FED0D7B42F00202DA64DB6C8DED7C
:1045B000027B9FED0B7B03F00203019302A9092309
:1045C0008DED047B019A069302F0A2FA18B010BD9B
:1045D000FFF752FFD9E700BF000300000200000010
:1045E00000000000030000000064004000100240D2
:1045F000000400480000000010B5044698B00021F7
:10460000442207A8CDE90211CDE90411069105F075
:104610005FF81B4B22689A4201D018B010BD4FF4CE
:10462000807307A8079303F0E1F810BB154C1648F8
:10463000E36C43F00403E364E36C9FED0F7B03F052
:10464000040300930823009A06930022002302A982
:10465000CDE904238DED027B02F05AFAA36D43F0FD
:104660008043A365A36D03F080430193019B18B0C1
:1046700010BDFFF701FFD9E70003000012000000A2
:1046800000780040001002400008004800000000D0
:1046900010B5026832498CB000238A42CDE9063356
:1046A000CDE908330A9304D02E4B9A4226D00CB0A1
:1046B00010BD03F1804303F504339FED257B1A6E93
:1046C00042F480521A661A6E02F480520192019AE4
:1046D000DA6C42F00102DA64DB6C03F0010302934E
:1046E0000322052306A94FF090408DED067BCDE90E
:1046F0000923029C02F00CFA0CB010BD03F5EA335A
:104700009FED157B9A6D184842F400429A659A6DA8
:1047100002F400420392039ADA6C42F00102DA6476
:10472000DA6C02F001020492049ADA6C42F004029C
:10473000DA64DB6C03F00403059306A906238DED10
:10474000067B059A0A9302F0E3F90CB010BD00BF96
:10475000E000000002000000001C00000200000059
:1047600000300140003C004000080048094B02684E
:104770009A4200D0704703F5644382B01A6E42F447
:1047800000621A661B6E03F400630193019B02B082
:10479000704700BF002C014070B5234B026888B001
:1047A00000249A42CDE90244CDE90444069401D0A4
:1047B00008B070BD03F564430625DA6C1B4842F06F
:1047C0000202DA64DA6C02F002020092009ADA6CF9
:1047D00042F00102DA64DB6C069503F001034FF44A
:1047E000C042019302A90223CDE902230226019BC4
:1047F00002F08EF94FF40043CDE9023602A90423FA
:104800000A480693CDE9044402F082F94FF4E063CC
:1048100002A94FF09040CDE90364CDE9054502932C
:1048200002F076F908B070BD002C01400004004889
:1048300010B5044698B00021442207A8CDE9021122
:10484000CDE90411069104F043FF1D4B22689A4202
:1048500001D018B010BD012307A8079302F0C6FFCE
:1048600010BB184B18481A6E42F480421A661A6E32
:1048700002F480420092009ADA6C9FED0D7B42F0C8
:104880000402DA64DB6C8DED027B9FED0B7B03F0A1
:104890000403019302A907238DED047B019A06937B
:1048A00002F036F918B010BDFFF7E6FDD9E700BFFA
:1048B00030000000020000000000000000000000C6
:1048C00000380140001002400008004810B50446BE
:1048D00092B04422002101A804F0FAFE0D4B226898
:1048E0009A4201D012B010BD4FF4005301A80193B9
:1048F00002F07CFF58B9084B9A6D42F400029A65A9
:104900009B6D03F400030093009B12B010BDFFF7F2
:10491000B3FDF0E7005C004000100240FEE700BF7E
:10492000FEE700BFFEE700BFFEE700BFFEE700BFF7
:10493000704700BF704700BF704700BF00F0BCB8B1
:10494000014800F059BA00BFB06E002070B5161EC5
:1049500007DD0C468D19AFF3008004F8010BA5426A
:10496000F9D1304670BD00BF70B5161E07DD0C468C
:104970008D1914F8010BFDF79BFBA542F9D13046C8
:1049800070BD00BF4FF0FF30704700BF4FF40053C1
:104990004B600020704700BF012070470020704727
:1049A0000C490D4A0B6810B50C4C121B2BB1184466
:1049B000904207D80860184610BD094B0B60184498
:1049C0009042F7D904F0D2FE0C2303604FF0FF337E
:1049D000184610BD1C6F002000800020000400005D
:1049E00070700020034AD2F8883043F47003C2F894
:1049F0008830704700ED00E00D488546FFF7F2FF74
:104A00000C480D490D4A002302E0D458C450043329
:104A1000C4188C42F9D30A4A0A4C002301E01360FF
:104A20000432A242FBD304F0A7FEFDF7E1FBFEE750
:104A30000080002000000020AC0000201CC4000802
:104A4000AC00002070700020FEE7000038B50F4B6E
:104A50001B680BB9012038BD0D494FF47A72054629
:104A6000B2FBF3F30868B0FBF3F001F087FB0446F8
:104A70000028EFD10F2DEDD8024629464FF0FF3028
:104A800001F034FB034B20461D6038BD2800002098
:104A9000240000202C00002010B5032001F014FB9E
:104AA0000F20FFF7D3FF10B10124204610BD0446AC
:104AB000FFF7E4FC204610BD034A04491368096867
:104AC0000B441360704700BF206F002028000020B7
:104AD000014B1868704700BF206F002038B50446AE
:104AE000FFF7F6FF631C054602D0044B1B681C440D
:104AF000FFF7EEFF401BA042FAD338BD280000208C
:104B000030B583B000230193002800F0B180C56D5B
:104B10000446002D00F0AF80226893689D0005D503
:104B2000936823F0204323F03F0393609368D800F9
:104B300019D46B4B6B481B6891689B09A0FB03035E
:104B400021F010419B0921F03F0101335B0041F04E
:104B5000805191600193019B2BB1019B013B01931B
:104B6000019B002BF9D19368D90076D4E36D43F013
:104B70001003E365236E012003432366936813F05B
:104B8000040FE36D70D1DB066ED4E36D23F4817303
:104B900043F00203E3659368DD0709D44FF0A043B7
:104BA0009B6813F0010F504B9B6801D1D9077FD54B
:104BB000E568E36B94F824102B43A5682B43657FCD
:104BC000012943EA453343EA01435AD0E16A21B15E
:104BD000256B01F4787129430B43D568434929407B
:104BE0001943D1601369616B23F040630B43136178
:104BF00093681B0722D4D16894F83830257F21F4BC
:104C000080415B0021F0020143EA85330B432169B7
:104C1000D3601369002941D043F480331361D2F883
:104C2000C0306FF30D030B43C2F8C03094F840302E
:104C3000012B45D0136923F0010313616369012B34
:104C400024D0136B23F00F031363E36D23F00303EE
:104C500043F00103E36503B030BD936813F0040F24
:104C60004FF00000E36D8ED0E36D43F01003E36579
:104C7000012003B030BDFFF71BFC256684F85850B7
:104C80004AE7A16A013943EA41439FE7116B236A6E
:104C900021F00F01013B0B431363D6E723F480336C
:104CA0001361D2F8C0306FF30D03C2F8C030BDE716
:104CB0000F4965688B6823F47C132B438B6077E77F
:104CC0001169636CA56C6FF38A012B430B43E16C94
:104CD0000B43216D0B4343F001031361AEE700BFAB
:104CE00024000020632D3E05000100500740F0FF26
:104CF00000030050394A2DE9F04184699768082C77
:104D000005460E4607F01F0714D040F22123FB4052
:104D1000D9070AD4936813F4604F0AD0EB6D43F0BF
:104D20002003EB650120BDE8F0810368DB68DA074A
:104D3000F4D40424FFF7CCFE2A6813681C42804692
:104D400004D1731C2ED113682342FCD0EB6D43F4C5
:104D50000073EB65D36813F4406F0FD16B7F6BB9B1
:104D600013681E070AD5EB6D23F48073EB65EB6DBA
:104D7000D80403D4EB6D43F00103EB65184B9A4262
:104D800018D0082CD3681FD05B0401D40C23136007
:104D90000020BDE8F08116B91368234016D01368CF
:104DA0001C42D3D1FFF794FEA0EB0803B3422A685C
:104DB000F2D8F0E740F22123FB40D907E1D44FF0CD
:104DC000A043082CDB68DFD11460E1E7EA6D85F8C9
:104DD000583042F00402EA650320DAE7000300508D
:104DE000000100500368186C704700BF704700BF97
:104DF000704700BF704700BFF8B503688D4A1D6853
:104E00005E689768A907044607F01F0702D5B20736
:104E100000F19F80690779D5720777D5E26DD206D8
:104E200003D4E26D42F40072E265DA6812F4406F76
:104E30001CD1814A934200F0DD80DA68910415D4D8
:104E40001A68120712D59A68500700F1E1805A6873
:104E500022F00C025A60E36D23F48073E365E36D86
:104E6000D90403D4E36D43F00103E3652046FFF763
:104E7000BDFF23680C221A60AA064DD5B0064BD59B
:104E8000E26DD00603D4E26D42F40052E2656A4955
:104E9000DA6CD8688B4202F4C07268D0D968D2B993
:104EA0008A0100F19F801A68500614D5890212D435
:104EB0009A68120700F1B5805A6822F060025A60C1
:104EC000E36D23F48053E365E36DD80503D4E36D0C
:104ED00043F00103E3652046FBF7E6FF2368602209
:104EE0001A60290601D5320655D4E80501D5F10529
:104EF0005CD4AA0501D5B00541D4E90601D5F20676
:104F00000FD4690501D572055CD4F8BD2807B3D567
:104F1000310783D4AA06B1D46906E2D57206E0D57A
:104F2000AEE7E26B32B1002F6ED0424A926812F4C3
:104F3000604F0BD0E36D43F48063E365236E43F071
:104F4000020323662046FFF755FF236810221A60EC
:104F5000D7E7C36DD80603D4E36D43F40063E3657C
:104F6000204600F073FD236802221A6052E7C12137
:104F7000F940C90792D44FF0A041C9688FE7E36DAB
:104F800043F48023E365204600F05EFD23684FF480
:104F900000721A60B1E7E36D43F48033E3652046A5
:104FA000FFF726FF236880221A609EE7E36D43F433
:104FB0000033E365204600F045FD23684FF480721E
:104FC0001A6096E7E26D42F48042E265226E4FF489
:104FD000806142F00802226620461960BDE8F84070
:104FE00000F02EBD00F4406001F4005202437FF453
:104FF00072AF58E740F22122FA40D0073FF51DAFCB
:105000004FF0A042D26819E7DA68D0079ED591E741
:10501000E36D43F01003E365236E43F00103236661
:1050200024E7E36D43F01003E365236E43F00103CF
:10503000236650E70003005000010050F0B590F8DF
:10504000582083B00346012A4FF00000019000F081
:105050005E811A68012083F858009468640708D5B7
:10506000DA6D42F02002DA65002283F8582003B09E
:10507000F0BD48684FEA901E00F01F0C0EF00C0EB9
:10508000086802F13004C0F3846054F80E501F2603
:1050900000FA0CF006FA0CFC25EA0C0C40EA0C00B5
:1050A00044F80E00906810F0040F906840F09D8066
:1050B00010F0080F08684AD18D68C0F30456072421
:1050C000C00DB440B5F1004F00F004006FEA0404D5
:1050D00000F0408102F11407B5403E5834402C43A3
:1050E0003C50506920F0004050610F69D468086856
:1050F000042F48D0C4F3C104650002F16004B54E2A
:1051000054F827C000F0F8400CEA06060643486948
:10511000A840304340F0004044F827000D698E69F4
:1051200054F8250020F08070304344F825000E69C3
:105130000D7F54F82600A5F10105B5FA85F56D0936
:1051400020F0007040EA456044F826000868946842
:10515000E707064612D4CF689F4CD2F8B05007F04C
:10516000180C24FA0CF4C0F3120C044025EA0C05C8
:105170002C43C2F8B040994CA74279D098490E42CE
:1051800035D1002070E7146E146EC0F31205C4F31D
:105190008464002D40F0E880C0F38466B44200F0DF
:1051A0006681546E556E02F16004C5F3846502F1A8
:1051B000640CB54200F07081A568A56804F1080789
:1051C000C5F38465C0F38466AE4200F03E81E568B5
:1051D000E56804F10C06C5F38464C0F38465A54258
:1051E000B5D1306820F0004030600868AFE77D48F6
:1051F0007D4C8168A64201F0E07516D07B4CA6423A
:1052000013D07B4CA64200F085807A4CA642B8D1E0
:105210004902B6D478498A42B3D0826822F0E0725B
:105220002A4342F480028260ABE70E02A9D4B2F1B5
:10523000A04FA6D16B4971488A6822F0E0722A43D8
:1052400042F400028A6002686D499209A1FB0212D1
:105250009209013202EB420292000192019A002A65
:105260008FD0019A013A0192019A002AF9D188E778
:10527000BCF1000F5DD090FAA0F4002C00F0C280C9
:10528000B4FA84F4013404F01F04092C40F2BA800B
:1052900090FAA0F4002C00F01781B4FA84F40134E1
:1052A000A40604F0F84490FAA0F5002D00F00A815D
:1052B000B5FA85F5013505F01F05012606FA05F555
:1052C0002C4390FAA0F0002800F0FA80B0FA80F0A9
:1052D000013000F01F0000EB40001E38000540F0D8
:1052E00000700443E50D886802F1140605F004051A
:1052F000C4F3045400FA04F74FF0070C70590CFA89
:1053000004F420EA0400384370510E6836E70220A6
:1053100003B0F0BDCC013FF534AF37498A423FF4CA
:1053200030AF826822F0E0722A4342F080728260DD
:1053300027E7800E013000F01F050124800600F0F1
:10534000F840AC40092D44EA000405EB4500C4D800
:105350000005C6E702F1140635582C403450506958
:1053600040F000405061C0E690FAA0F51DB1B5FADA
:1053700085F5AC427BD0546E556E02F16004C5F3E6
:10538000846502F1640C90FAA0F604F10807BE46A9
:1053900026B1B6FA86F6AE4200F08080A568A56810
:1053A000C5F3846590FAA0FC04F10C06B646BCF186
:1053B000000F03D0BCFA8CFCAC4548D0E568E4682B
:1053C000C4F3846490FAA0F5002D3FF4C0AEB5FAA2
:1053D00085F504E700F0FF03FFFF070000007F40B2
:1053E0000000088000030050000021C31000C0909E
:1053F000000052C7000084CB0001005024000020B0
:10540000632D3E0590FAA0F4002C65D0B4FA84F424
:105410000134A40604F0F84490FAA0F5002D59D008
:10542000B5FA85F5013505F01F05012606FA05F5E3
:105430002C4390FAA0F0002849D0B0FA80F0013057
:1054400000F01F0000EB400082E704F10C0E38680A
:1054500020F000403860E0680868E468C0F3120596
:105460007646C4F38464002D3FF4B7AEAAE7106E0D
:10547000144620F0004044F8600F506E0868556EE6
:10548000C0F3120602F1640CC5F38465002E7FF4AC
:105490007AAFC0F384668CE604F1080EDCF80000F5
:1054A00020F00040CCF80000A0680868A568C0F3B0
:1054B00012067746C5F38465002E3FF483AE71E78C
:1054C00007480EE70225FBE64FF08064EBE64FF459
:1054D000401006E70225ABE74FF080649CE700BF71
:1054E000000050FE03689A6812F0040F70B59A68C5
:1054F000044601D116073CD5DA68950104D5A08B86
:1055000040F20112904245D002299A6833D05007E8
:1055100002D59A68920759D5012955D09A68100783
:105520000AD59A68920707D49A6822F0004222F0BE
:105530003F0242F020029A60032945D10C25FFF773
:10554000C7FA236806469B681D4212D0FFF7C0FACF
:10555000801B05282368F6D99A682A42F3D0E36DA8
:1055600043F01003E365236E43F00103236601203B
:1055700070BD002070BD16070AD59A68950707D43C
:105580009A6822F0004222F03F0242F020029A6024
:105590000825D4E71A68500606D4114A01E0013AFA
:1055A000DDD019684906FAD540221A609A68560774
:1055B0000AD59A68950707D49A6822F0004222F02B
:1055C0003F0242F010029A600425B8E79A6822F080
:1055D000004222F03F0242F010029A609CE700BFB6
:1055E000000040A370B582B00022036801929A685F
:1055F000D2072CD49968284A114205462AD19A68C4
:10560000264922F0004222F03F0242F001029A6055
:105610008B681E0229D4FFF75BFA2B681A68D4073F
:10562000064614D41E4C9A68D00704D49A682240C7
:1056300042F001029A60FFF74BFA821B022A2B68A4
:1056400002D91A68D10705D51A68D207EBD5002010
:1056500002B070BDEB6D43F01003EB652B6E0120C3
:1056600043F001032B6602B070BD0E4B0E4A1B685F
:105670009B09A2FB03239B09013303EB43039B001C
:105680000193019B002BC6D0019B013B0193019B21
:10569000002BF9D1BFE700BF3F000080000300509E
:1056A000C0FFFF7F24000020632D3E05324A0368BF
:1056B00070B596689D6815F0040541D190F8583092
:1056C000012B04463CD0012380F85830FFF78AFFB5
:1056D000002837D1E36D226823F4706323F00103BF
:1056E00043F48073E365254B9A4206F01F062CD0E5
:1056F0001146E36D23F48013E365E36D13F48053E7
:105700001CBF236E23F0060323661C2313608A420A
:105710004FF0000384F858301CD040F22123F340AE
:10572000DD0717D4E36D43F48013E365CB689B0179
:1057300005D5E36D23F4405343F48053E36570BD16
:10574000022070BD84F8585070BD4FF0A041002E6B
:10575000D3D1CEE7D368990105D5E36D23F4405347
:1057600043F48053E365936823F0004323F03F0341
:1057700043F00403936070BD00030050000100502B
:1057800038B503689A68950702D59B68002038BD34
:105790009A68D407FAD59A6802F00D02012A0446E5
:1057A00009D0E36D43F01003E365236E43F001037A
:1057B0002366012038BD9A6822F0004222F03F02A1
:1057C000032142F002029A601960FFF781F9236811
:1057D0009B68D907054603D4D8E79B68DB07D5D576
:1057E000FFF776F9401B02282368F6D99A68D2079A
:1057F000F3D5D6E790F85830012B1ED0012310B511
:10580000032180F858300446FFF76CFE20B10023D6
:1058100084F85830012010BD2046FFF7B1FF002862
:10582000F5D1E36D23F4885323F0010343F0010322
:10583000E365002384F8583010BD0220704700BF94
:1058400030B590F8583083B00022012B01923FD040
:10585000012380F8583004460D46FFF791FFE36DB1
:10586000E8B923F4885323F00203226843F00203CB
:10587000E365936823F0404305F0804123F03F0344
:105880000B4343F00043936093681349002B0EDBF6
:10589000E36D23F0030343F00103E36502E043F00B
:1058A0001003E365002384F8583003B030BD019B3A
:1058B00001330193019B8B42E6D9E36D23F0120380
:1058C000002243F01003E36584F858200120ECE740
:1058D000022003B030BD00BF01DE040038B53E4AEF
:1058E000036895689A68140755D4DA68DB6C13F47A
:1058F000C07F044651D094F85830012B4BD001237F
:1059000084F858302046FFF76DFE00284DD1E36D36
:10591000D90549BF236E206623F008032366E26D94
:10592000236822F4405222F0010242F48052E265E0
:105930002A4A934205F01F053BD01946E26D22F436
:105940008012E26560221A60002284F85820DA682A
:10595000920203D55A6842F480625A60A269082A0A
:105960005A6830D022F040025A605A6842F0200251
:105970005A608B4203D0C122EA40D1071ED5DA68B3
:10598000920107D49A6822F0004222F03F0242F0CE
:1059900008029A6038BD022038BD002AABDBC36D17
:1059A00043F020030120E36538BD002384F858301C
:1059B00038BD4FF0A041002DC4D1BFE7E36D43F4E3
:1059C0008013E36538BD22F020025A605A6842F025
:1059D00040025A60CDE700BF0003005000010050B4
:1059E00090F85830012B20D0012310B5022180F807
:1059F00058300446FFF776FD98B923685A6822F4B8
:105A00008C625A609B685B0711D42046FFF7B8FE92
:105A100038B9E36D23F4885323F0010343F0010305
:105A2000E365002384F8583010BD02207047E36D11
:105A300023F48053E365002384F8583010BD00BF81
:105A4000704700BF704700BF704700BF704700BF7E
:105A50002DE9F04190F8583082B00022012B0192DC
:105A600000F0A8818446012380F85830DCF8144007
:105A7000DCF80030D1E90020002C72D00C6A012C37
:105A80006FD0DCF8686000F01F00C2F384658540C9
:105A9000002E40F01581886A013C002800F0138236
:105AA000CE6A00F07C00204330432843CCE919043F
:105AB0009868070710D491F8260091F82540400512
:105AC000002C40F0F280DC6891F8245024F440145B
:105AD00040EA05502043D860986810F0040057D081
