:020000040800F2
:1000000000800020291E00084D1D0008511D000819
:10001000551D0008591D00085D1D00080000000066
:10002000000000000000000000000000611D00084A
:10003000651D000800000000691D00086D1D000816
:10004000791E0008791E0008791E0008791E000834
:10005000791E0008791E0008791E0008791E000824
:10006000791E0008791E0008791E0008791E000814
:10007000791E0008791E0008791E0008791E000804
:10008000791E000800000000711D0008791E00089C
:10009000791E0008791E0008791E0008791E0008E4
:1000A000791E0008791E0008791E0008791E0008D4
:1000B000791E0008791E0008791E0008791E0008C4
:1000C000791E0008791E0008791E0008791E0008B4
:1000D000791E0008791E0008791E0008791E0008A4
:1000E000791E0008791E0008791E0008791E000894
:1000F000791E0008791E0008791E00080000000023
:1001000000000000791E000800000000791E0008B1
:10011000791E000800000000791E0008791E000802
:10012000791E0008791E0008791E0008791E000853
:10013000791E00080000000000000000791E000881
:10014000791E0008791E0008000000000000000071
:10015000000000000000000000000000000000009F
:10016000000000000000000000000000791E0008F0
:10017000791E0008000000000000000000000000E0
:1001800000000000791E00080000000000000000D0
:10019000000000000000000000000000000000005F
:1001A0000000000000000000791E0008791E000811
:1001B000791E0008791E0008791E00080000000062
:1001C00000000000791E0008000000000000000090
:0801D000791E0008791E0008E9
:1001E00010B5054C237833B9044B13B10448AFF371
:1001F00000800123237010BD940000200000000047
:10020000E868000808B5034B1BB103490348AFF386
:10021000008008BD0000000098000020E868000889
:1002200001F0FF01102A2BDB10F0070F08D010F8A7
:10023000013B013A8B422DD010F0070F42B3F6D1AB
:10024000F0B441EA012141EA014122F007047FF0C4
:1002500000070023F0E80256083C85EA010586EA1B
:10026000010685FA47F5A3FA87F586FA47F6A5FA57
:1002700087F68EB9EED1F0BC01F0FF0102F0070263
:1002800032B110F8013B013A83EA010313B1F8D10E
:100290000020704701387047002D06BF35460338EF
:1002A000073815F0010F07D1013015F4807F02BF28
:1002B000013015F4C03F0130F0BC0138704700BF79
:1002C00053B94AB9002908BF00281CBF4FF0FF31BD
:1002D0004FF0FF3000F088B9ADF1080C6DE904CEA5
:1002E00000F006F8DDF804E0DDE9022304B0704711
:1002F0002DE9F047089D0F4604468C46002B48D157
:100300008A42164661D9B2FA82F34BB1C3F1200298
:1003100001FA03FC20FA02F29E4042EA0C0C9C40D7
:100320004FEA164EB7B2BCFBFEF1220C0EFB11CC0D
:1003300042EA0C4201FB07F0904209D9B21801F1E0
:10034000FF3C80F0EE80904240F2EB800239324474
:10035000121AA4B2B2FBFEF00EFB102244EA0244D1
:1003600000FB07F7A74209D9341900F1FF3280F0EA
:10037000DA80A74240F2D7803444023840EA014094
:10038000E41B00211DB1DC400023C5E90043BDE8AA
:10039000F0878B4206D90DB1C5E90001002108465E
:1003A000BDE8F087B3FA83F1002948D1BB4202D3FC
:1003B000824200F20781841A67EB0302012094460F
:1003C000002DE4D0C5E9004CE1E7002A00F092805E
:1003D000B2FA82F3002B40F0A8808A1A4FEA164E38
:1003E0001FFA86FC0121200CB2FBFEF70EFB172240
:1003F00040EA02420CFB07F0904207D9B21807F11D
:10040000FF3802D2904200F2E2804746121AA4B2AC
:10041000B2FBFEF00EFB102244EA02440CFB00FC8F
:10042000A44507D9341900F1FF3202D2A44500F2E5
:10043000CB801046A4EB0C0440EA0740A2E7C1F1D0
:1004400020068B4022FA06FC4CEA030C07FA01F462
:1004500020FA06F3F7404FEA1C49234300FA01F85B
:100460001FFA8CFEB7FBF9F01C0C09FB107744EA6D
:10047000074400FB0EF7A74202FA01F20AD91CEB6F
:10048000040400F1FF3A80F09B80A74240F298807C
:1004900002386444E41B9FB2B4FBF9F309FB134434
:1004A00047EA044403FB0EFEA64509D91CEB0404ED
:1004B00003F1FF3780F08280A6457FD9023B644478
:1004C00043EA0040A4EB0E04A0FB02E7BC427346E3
:1004D000B94663D360D05DB1B8EB030264EB0904A5
:1004E00004FA06F622FA01F31E43CC40C5E9006483
:1004F00000214CE76208480842EAC1710B0C43EA4C
:1005000000438AB242EA0342B3FBF6F1E407B44681
:100510003746B6461F23B0FBF6F0D21B41EA004136
:1005200061E7614614E7104628E7C3F1200120FA8D
:1005300001F29E4027FA01F19F403A434FEA164EDE
:100540001FFA86FCB1FBFEF70EFB1710110C41EAF7
:10055000004107FB0CF8884504FA03F43AD97118F6
:1005600007F1FF3001D288451FD8A1EB0801B1FB8C
:10057000FEF808FB0CF70EFB181192B242EA01429A
:10058000BA422FD2B21808F1FF31C6D2BA42C4D251
:10059000A8F102013244C0E7F0459CD2BEEB020351
:1005A00067EB0C070138B94695E7A6EB080841440C
:1005B000B81EB1FBFEF808FB0CF7DCE73B467FE713
:1005C000504667E70846FBE63444023832E7023F0C
:1005D00032441BE7A1EB08013846B1FBFEF808FBEB
:1005E0000CF7C8E7414698E7704700BF38B50F4998
:1005F0000F4D104C1048002300222A7023600B601E
:10060000436C23F400434364036A23F4AA6323F096
:100610000503036202214FF0904003F065FA074A98
:10062000137823F00403137038BD00BF08010020C5
:10063000150100200C010020002C014000000020CA
:10064000DFED577A574B60EEA70ABEEE006AB0EEB8
:10065000607AA0EE067A1B68D0EE060A10B5B4EEFA
:10066000C07AF1EE10FAB4EEC70AD4BFF0EE407AC9
:10067000F0EE477AF1EE10FAD4BFF0EE406AF0EEF9
:10068000476AF4EEE06AF1EE10FAF4EEE70AC8BF4A
:10069000F0EE606AF1EE10FAC8BFF0EE607A76EE26
:1006A000A76AF6EE005A30EE250A66EE866AD3EDAA
:1006B0000B7A30EE260AB5EEC00AF1EE10FA6CD4D1
:1006C000F7EE005AB4EEE50AF1EE10FAD8BFF0EEFC
:1006D000405AB6EE006A37EE067A37EE267AB5EE65
:1006E000C07AF1EE10FA55D4B7EE006AB4EEC67ACD
:1006F000F1EE10FAC8BFB0EE467AB6EE006A70EEC0
:10070000860A70EEA60AF5EEC00AF1EE10FA3ED4A3
:10071000B7EE006AF4EEC60AF1EE10FAD8BFB0EEFA
:10072000606AF8EE677ADB6A1F4867EEA56A27EE13
:10073000877AFCEEE66A67EE867ABCEEC77A16EE3A
:10074000901AFCEEE77A17EE102A994217EE904ABB
:1007500028BF19469A4228BF1A469C42416328BFC7
:100760001C4612498263C4630B7803B110BD104C60
:1007700001F0C6FB2268821AB2F5FA7F0346F5D370
:1007800023600C48BDE81040022103F0B3B99FED8F
:100790000A6AC6E79FED087AAFE7DFED075A98E7E8
:1007A000D7B35D3FCC040020002C01401501002090
:1007B000B000002000040048000000002DE9F04FC8
:1007C00004682DED068BB4F1A04F97B004D017B09C
:1007D000BDEC068BBDE8F08FA24BA3495B68039389
:1007E000A24B442205A81E7805F06BFBD4F88010BC
:1007F0009F48D4F88420D4F888300478DFED9D7ABF
:100800009DED0B4ADDED0C4A9DED0D5ADDED126AB2
:10081000DDF84CC088B2A0F5006008EE900A90B2F6
:10082000A0F5006009EE100AF8EEE88AB8EEC99A61
:1008300068EEA78A29EE279AF6B289B292B21FFA19
:1008400083FA002C3AD08C48D0ED007A79EE677AA2
:100850008A4D9BB2A3F5006307EE103A2B6C686BD0
:10086000AC6BED6B96349C4200F1960005F1960955
:100870008CBF002401249842B8EEC78A8CBF4FF089
:1008800000084FF001089FED7B7A99458CBF002549
:10089000012508EB040E984228EE078AAE4410D8D2
:1008A000994500F2E18178EE889A012538EEE97ADF
:1008B000B0EE48AAF1EE699AA84613E0F0EE497A44
:1008C000C6E7BEF1020F00F0DE81BEF1010F38EE87
:1008D000A77AB0EE48AAF0EE679A40F2D0810125DF
:1008E0002C46A846A1F10909A2F109001FFA89F7CF
:1008F00080B2AAF10909029000971FFA89F70197BF
:10090000029F40F6ED708742009F94BF4FF0000BAE
:100910004FF0010B00238742019F68F307034FF05C
:1009200000096BF3070964F30F2394BF4FF0000B2A
:100930004FF0010B874265F3174394BF002001205D
:1009400037EE0A7A6BF31F6360F30F29002E44D150
:10095000BCF1000F00F0A781BEF1010F0DD99FED92
:10096000486A38EEC43A79EEE43A7AEE455AA3EE94
:10097000064AE3EE864AA5EE865AF5EEC08AF1EE07
:1009800010FAF5EEC09A4CBFB1EE686AB0EE686A34
:10099000F1EE10FA4CBFF1EE695AF0EE695AF4EE3E
:1009A000C65AF1EE10FAB5EEC0AAD8BFF0EE465A1C
:1009B000F1EE10FA4CBFB1EE4A6AB0EE4A6AB4EEFC
:1009C000E56AF1EE10FAD8BFB0EE656AB4EEE66AF9
:1009D000F1EE10FAC8BFF0EE466A14930CF1010371
:1009E00013934FF00823ADF83C10ADF83E20CDF83E
:1009F00042301D48ADF840A04FF4006305A94422E1
:100A0000ADF84630ADF85490CDED058ACDED069A9F
:100A10008DED07AA8DED089ACDED097A8DED0A8A44
:100A20008DED0B4ACDED0C4A8DED0D5A8DED0E7A04
:100A3000CDED126A05F045FA0C4B1B7823BB002E56
:100A40003FF4C5AE074B0F4A5B68039811681B1A49
:100A50009942BFF4BCAE136017B0BDEC068BBDE885
:100A6000F08F00BF001000E01801002015010020E9
:100A7000D80000204F0A253DDC000020002C01405A
:100A80000000803DC0000020A14B1B689BB3A14A21
:100A9000A1495268A14B09681B68521AA049A1FBE1
:100AA00003139B0C4FF4966101FB03F39A4200F28F
:100AB0001B8107EE902A9B4B9FED9B7A93ED006A7A
:100AC0009A4BF8EEE76ADFED9A7A66EEA76AD3ED05
:100AD000007AE6EE867AF4EEC77AF1EE10FAC0F20A
:100AE000FD8077EEC77AF4EEC77AF1EE10FAF8DA05
:100AF000904BC3ED007A08EB04032B44012B40F22A
:100B0000D980B8F1000F05D0009A40F6ED739A42F3
:100B100000F2D0802CB1029A40F6ED739A4200F2B6
:100B2000C9802DB1019A40F6ED739A4200F2C2805D
:100B3000804A9FED7D7AD2ED007AF4EEC77AF1EE2D
:100B400010FAC0F2DC8077EEC77A9FED7B7ADFED9A
:100B50007B5A7B4B67EE877AF0EE006ABCEEE76A61
:100B6000B0EE687AB8EE466AA9EEA67A77EEC67A53
:100B7000DFED746AE7EEA66A27EE257A68EEA65ADC
:100B800067EE267A93ED007A35EEA76AB4EEC76A6F
:100B9000F1EE10FA00F3AD8093ED005A37EEE57AEE
:100BA000B4EEC75AF1EE10FA00F1A380F5EEC08A58
:100BB000F1EE10FAF5EEC09A4CBFF1EE685AF0EE85
:100BC000685AF1EE10FA4CBFF1EE697AF0EE697AEC
:100BD000F4EEE57AF1EE10FAB5EEC0AAD8BFF0EE69
:100BE000657AF1EE10FA4CBFB1EE4A5AB0EE4A5AAD
:100BF000B4EEE75AF1EE10FAD8BFB0EE675A002C07
:100C000000F04081B5EEC09AF1EE10FA48BFB1EEA7
:100C1000499AB4EEC59AF1EE10FAD8BFB0EE459AF3
:100C20006DB1B5EEC08AF1EE10FA48BFB1EE488A58
:100C3000B4EEC98AF1EE10FAC8BFB0EE489A424B42
:100C4000D3ED007AF4EEC97AF1EE10FA40F1868025
:100C50003E490B78FF2B01D001330B703C4B1268DF
:100C60003C4A0221197029E0BEF1020F7FF42DAE3B
:100C700038EEA77AF0EE679AB1EE47AA32E6002581
:100C80002C46A8462EE678EE278A994537EEE87A74
:100C9000F1EE688AECD8B0EE48AAF0EE679A01242B
:100CA0004FF000081EE6B0EE4A5AF0EE694AB0EE88
:100CB000684A62E6264B01221A70264A264900231A
:100CC0000B70536C23F400435364136A23F4AA6338
:100CD00023F005031362B2E677EE877AF5EEC07A69
:100CE000F1EE10FAF8D403E7194B08221A70194AEA
:100CF000E4E7174B1268174A09211970DEE7F5EE91
:100D0000C07AF1EE10FA48BF77EE877A1DE700BF90
:100D1000E8000020001000E0EC0000200C000020A3
:100D200083DE1B43F0000020DB0FC940F4000020ED
:100D3000466419321001002083F922433ACD133F53
:100D4000040000200000000008000020BE00002079
:100D500014010020002C0140150100206A4B6B4A51
:100D600093ED004ADFED6A5AD2ED007A694BDFED70
:100D70006A4AD3ED003A694B34EE464A0021E4EE6C
:100D8000257A197073EEC73AF4EEE47AF1EE10FAB0
:100D900008D4DFED634AF4EEE47AF1EE10FAD8BF3E
:100DA000F0EE674A5F4B9FED5A3AD3ED005ADFED04
:100DB0005A7AC2ED004AE3EE835AF4EEE75AF1EEB6
:100DC00010FA08D4DFED567AF4EEE75AF1EE10FA95
:100DD000D8BFF0EE657A9FED543ADFED542AC3EDAB
:100DE000007AB0EE670AA3EE830AF0EE645AE4EEEE
:100DF000035A20EE004AA5EEA54AB4EEE24AF1EE0F
:100E000010FA42DC4A4A4B4B82ED006A4A494B4A8F
:100E100083ED007A4A4BC1ED005A82ED000AD3ED12
:100E2000004A484A36EE246A69EEA97A83ED006AE0
:100E3000E8EEA87A444B92ED006A36EE077AEAEEC5
:100E40000A7A82ED007A93ED007A404A77EE877A4B
:100E500020EE260AC3ED007AD2ED007AB4EEE75A0E
:100E6000F1EE10FAC8BF82ED005A394A1368F0EE6D
:100E7000400A0133E5EEA60A136095EEA60AFFF7D5
:100E8000DFFBDCE5B0EE459ACAE6B1EEC43ADFED31
:100E9000243A83EE834A25EE843A20EE044A73EE28
:100EA000655A75EEA45ADFED1C4AF4EEE45AF1EEF1
:100EB00010FA23D4F4EEE35AF1EE10FAD8BFF0EEB4
:100EC000653A74EE404ADFED145AC2ED003A74EE12
:100ED000A74AF4EEE54AF1EE10FA12D4DFED107AEB
:100EE000F4EEE74AF1EE10FAD8BFF0EE647AB0EE15
:100EF000440AF0EE435AC3ED007A83E7F0EE643A19
:100F0000DFE7F0EE657AF2E70C010020E400002054
:100F100017B7513808010020D7A3F0BEBE0000204B
:100F2000D7A3F03EE0000020A69B443B9C33623EEA
:100F30000401002000010020FC000020F800002037
:100F4000D4000020D0000020CC000020C8000020E9
:100F5000C400002000B589B00A4606900121012096
:100F6000CDE9040100231048079202A9CDE902331C
:100F700002F0FAF808B172B6FEE7012302220A482D
:100F80000093114602F01CF908B172B6FEE706485C
:100F900002F038F908B172B6FEE7044A137843F05C
:100FA0000103137009B000BD3406002000000020CA
:100FB00070B58AB0044615460E462422002101A8C9
:100FC00004F004FFB4F5006F01D2082D02D900200F
:100FD0000AB070BD0C4802F033FA0028F7D00023A5
:100FE000324601A908480993CDE90143CDE903350B
:100FF000CDE90533CDE9073302F01CF9B0FA80F0F2
:1010000040090AB070BD00BF3406002070B58AB038
:101010001546064628220C466846002104F0D6FEF6
:101020000E48402102F002FA10B900200AB070BD4B
:101030000A4823466A46402102F05EF90028F4D1AE
:10104000DDE901321343F0D1039B009A3260082B93
:1010500028BF082301202B700AB070BD3406002081
:1010600000B583B04FF0FF330190012201A903487E
:1010700004F0F4F8019803B000BD00BF380400206C
:1010800000B595B03822002106A804F09FFE002389
:101090004FF40070CDE90133CDE90333059302F03D
:1010A00049FE22214FF480720691099240210122CB
:1010B00002230A910C921C21042206A8CDE90D33CB
:1010C000CDE90F31CDE91132139302F0ADFE08B135
:1010D00072B6FEE7034603210F2201A8CDE90121E4
:1010E000CDE90333059303F019F908B172B6FEE7B1
:1010F00015B000BD2DE98048A5B000F0E5FE342212
:10110000002115A804F062FE15A802F08FFB1B9BBE
:1011100003F04063B3F1006F22D002F097F908B1F9
:1011200072B6FEE702F0B2F920B102F0C3F902F0A4
:10113000A1F9F5E704214FF4C0424FF0006315A870
:10114000CDE91A23159102F0F7F90028EDD102F04C
:10115000E7F9044602F0AEF902F08CF9002CDFD179
:101160000024FFF78DFFCDE91544CDE91744AF4BBF
:101170001994D96C41F02001D964D96C01F0200197
:1011800002910299D96C41F00401D964D96C01F043
:10119000040103910399D96C41F00101D964D96C20
:1011A00001F0010104910499D96C41F00201D96464
:1011B000DB6C03F002032246059302214FF09040BE
:1011C000059B02F091FC012210214FF0904002F0AB
:1011D0008BFC22469648032102F086FC01254FF045
:1011E000904015A90227CDE91554179402F07EFB13
:1011F00015A94FF090401026CDE91575CDE917449B
:1012000002F074FB15A94FF09040CDE91565CDE9CA
:10121000174702F06BFB03238548159315A9CDE909
:101220001654189402F062FB8148179415A9CDE971
:10123000156402F05BFB7F497F4A0A604FF4165346
:101240004B6008460C23C1E90244C1E90443C1E9EB
:101250000644C1E908448C6204F0D2FA08B172B6BF
:10126000FEE70146734804F03DFB014608B172B643
:10127000FEE7704804F05CFB08B172B6FEE76D480B
:1012800004F012FB08B172B6FEE705256B49694808
:101290004FF47A73372203F0E1FF694965484FF450
:1012A0007A73112203F0DAFF013D4FF4FA7000F077
:1012B0002DFE15F0FF05E9D10DAC202229460DF1D8
:1012C000240820465F4E0995C8E9015504F07EFDCB
:1012D0003C22294615A804F079FD4FF400334FF065
:1012E000A04E0127C6E900E330460823C6E90255AF
:1012F000C6E90B553561B58386F82450F56386F849
:10130000405077613762B36186F8385000F010FEC4
:1013100008B172B6FEE741463046099501F05EFD20
:1013200008B172B6FEE7DFF834B10F957F220423CF
:101330004FF0060A21463046CDE91023CDE90DBA1B
:10134000129501F017F804237F2208B172B6FEE768
:10135000CDE918230223179303231D934FF0A00C0C
:101360008023CDE91FC315A909233046CDF854B019
:101370001A95ADF878508DF87A508DF88450169300
:1013800001F054FA08B172B6FEE72F4A40F20F138B
:1013900015A93046CDE9152301F048FA08B172B617
:1013A000FEE7DFF8BCB040F21523304615A9CDE9C1
:1013B00015B301F03BFA08B172B6FEE72348244B9F
:1013C00003600E23C0E90155C0E90877C0E90A7738
:1013D000C0E90C77C0E90E558574C0F81CA0C56043
:1013E00007828761436101F0D1FD08B172B6FEE763
:1013F000184E194B3360A3F1F953A3F56E23A3F2F2
:101400002B533046C6E90257C6E90455C6E90655CE
:101410003562736002F078FB08B172B6FEE72946C8
:10142000304602F0CBFBE8B172B6FEE70010024096
:10143000000400483804002000380140D06900084A
:1014400000690008980600208000501D3406002026
:1014500000640040E00500200078004040002019B2
:1014600000018021AE48002102F0D2FB034608B102
:1014700072B6FEE7AB48C0E90833C0E90C338360BD
:1014800003618362A84B4FF4827AC0E9003A4FF4BB
:101490007069382301274FF400760725C361C0E93E
:1014A0000576C0F80C90C56203F0B0F9034608B1A8
:1014B00072B6FEE79D48C0E90833C0E90C3383608B
:1014C000036183629A4B03601823C562C0E9057605
:1014D000C0F804A0C0F80C90C36103F097F905466A
:1014E00008B172B6FEE7934E0D900990C4E9010071
:1014F000C8E90100C4E90300C4E90500CDE907001B
:10150000C8F80C0006900146342215A804F05EFCD1
:10151000894B3360304640F6EF23C6E90155C6E9F2
:101520000455B561F36003F05FFC08B172B6FEE7E5
:101530004FF4805341463046099303F041FB08B114
:1015400072B6FEE7304603F081FC08B172B6FEE7E2
:10155000069008904FF4E00306A93046079303F085
:10156000A7FD024608B172B6FEE7CDE90F00CDE94E
:10157000110013906023322521463046CDE90D3508
:1015800003F012FD08B172B6FEE70E900422214668
:10159000304603F009FD08B172B6FEE73046082276
:1015A00021460E9503F000FD08B172B6FEE77025E6
:1015B00040F69F235F480C222146CDE90D5303F0EE
:1015C000BBFC08B172B6FEE7382318934FF4005302
:1015D000CDE91500CDE91B00CDE91F00179019904A
:1015E0001D9021901A9353484FF0007315A91E9334
:1015F00003F0B0FD054608B172B6FEE74D4800F0B5
:10160000E3FA4E484E4B03604FF40273838002238B
:10161000C572C0F8073002F025FB054608B172B666
:10162000FEE74849484BD1F8FC20484E484FDFF8C8
:101630003CB142F08072C1F8FC2058601A6842F058
:1016400001021A603C4A536C23F400435364136A4A
:1016500023F4AA6323F005031362FEF7C7FF4FF0DC
:10166000010940F2011128463D708BF8005086F8C0
:101670000090FFF76FFC00F043FC364B64381860B5
:101680004A4649463448DFF8E89004F059FA2946BA
:1016900040F2011381223148314D04F051FA3148B2
:1016A00004F0B6FA304B1B7803F0FF0201925BB1F5
:1016B00097F90030002B07DBFEF798FF019A04230F
:1016C000337062F07F033B704FF0010A06AA214697
:1016D0004046FFF79BFC00285AD0099B002B49D0BD
:1016E00040F20112934207D099F80030FF2BEDD061
:1016F000013389F80030E9E72A789DF8183042F084
:101700000201022B297077D099F8003042F00A02CA
:101710002A70FF2B4FF002028BF80020E8D1D5E7AA
:10172000E00500207C050020003001401805002065
:10173000003C0040CC040020002C01405C01002053
:10174000005C004000ED00E0001000E0BD00002063
:10175000BC000020B4000020146900085069000893
:10176000000000209469000814010020BA00002045
:10177000B8000020FEF73AFF2B7887F800A043F06E
:1017800012032B700423337006238BF800309DE77F
:1017900000F0B6FB404B1A68821A632A82D918609F
:1017A00033788DF855303B788DF856302B788DF89E
:1017B00057303A4B3A4A1B788DF858309BF8003036
:1017C0008DF8593013788DF85A3099F800308DF82B
:1017D0005B300822012315A981208DF85430FFF7D2
:1017E000E7FB00287FF45EAF2D4A1378FF2B3FF410
:1017F00059AF0133137055E79DF8343027489DF8F1
:1018000035100170013B032B44D8DFE803F0022FB1
:1018100029103378042B0DD0FEF7E8FE86F800A0DF
:101820002B788BF800A023F008032B704EE7019B68
:101830005BB105238BF8003099F8003042F00A02C2
:10184000FF2B2A707FF454AF40E7FEF7CFFE019BD9
:101850003B702B7886F800A023F010032B70DFE795
:101860003378023B012B0DD90423E3E73378013BA6
:10187000012BF9D83B78002BF6D1FEF7B7FE0223F7
:101880003370CDE73B78002BEED1FEF7AFFE03239C
:101890003370C5E70323CDE7B4000020BB00002070
:1018A000B900002072B6FEE70B4B1A6E42F001023F
:1018B00082B01A661A6E02F001020092009A9A6DC6
:1018C00042F080529A659B6D03F080530193019B17
:1018D00002B002F0A1BA00BF0010024000000000F8
:1018E00010B5044698B00021442207A8CDE90211A2
:1018F000CDE90411069104F069FA2368B3F1A04F11
:1019000001D018B010BD4FF400424FF0005307A8AB
:101910000792169302F02AFE30BB174B1748DA6C79
:1019200042F40052DA64DA6C02F400520092009A37
:10193000DA6C42F00402DA64DB6C9FED0D7B03F09D
:10194000040302A9019300248DED027B019B049402
:1019500001F0CCFF22460121122001F0B5FA12203D
:1019600001F0ECFA18B010BDFFF79CFFD5E700BFFF
:1019700007000000030000000010024000080048BB
:1019800010B5044698B00021442207A8CDE9021101
:10199000CDE90411069104F019FA1F4B22689A420E
:1019A00001D018B010BD4FF480524FF0007307A85B
:1019B0000792139302F0DAFD10BB184B18489A6D8A
:1019C00042F000729A659A6D02F000720092009ADD
:1019D000DA6C9FED0D7B42F00202DA64DB6C8DED78
:1019E000027B9FED0B7B03F00203019302A9092305
:1019F0008DED047B019A069301F078FF18B010BDBD
:101A0000FFF750FFD9E700BF00030000020000000D
:101A100000000000030000000064004000100240CD
:101A2000000400480000000010B5044698B00021F2
:101A3000442207A8CDE90211CDE90411069104F072
:101A4000C5F91B4B22689A4201D018B010BD4FF463
:101A5000807307A8079302F089FD10BB154C164848
:101A6000E36C43F00403E364E36C9FED0F7B03F04E
:101A7000040300930823009A06930022002302A97E
:101A8000CDE904238DED027B01F030FFA36D43F01F
:101A90008043A365A36D03F080430193019B18B0BD
:101AA00010BDFFF7FFFED9E70003000012000000A1
:101AB00000780040001002400008004800000000CC
:101AC00010B5026832498CB000238A42CDE9063352
:101AD000CDE908330A9304D02E4B9A4226D00CB09D
:101AE00010BD03F1804303F504339FED257B1A6E8F
:101AF00042F480521A661A6E02F480520192019AE0
:101B0000DA6C42F00102DA64DB6C03F00103029349
:101B10000322052306A94FF090408DED067BCDE909
:101B20000923029C01F0E2FE0CB010BD03F5EA337C
:101B30009FED157B9A6D184842F400429A659A6DA4
:101B400002F400420392039ADA6C42F00102DA6472
:101B5000DA6C02F001020492049ADA6C42F0040298
:101B6000DA64DB6C03F00403059306A906238DED0C
:101B7000067B059A0A9301F0B9FE0CB010BD00BFB8
:101B8000E000000002000000001C00000200000055
:101B900000300140003C004000080048094B02684A
:101BA0009A4200D0704703F5644382B01A6E42F443
:101BB00000621A661B6E03F400630193019B02B07E
:101BC000704700BF002C014070B5234B026888B0FD
:101BD00000249A42CDE90244CDE90444069401D0A0
:101BE00008B070BD03F564430625DA6C1B4842F06B
:101BF0000202DA64DA6C02F002020092009ADA6CF5
:101C000042F00102DA64DB6C069503F001034FF445
:101C1000C042019302A90223CDE902230226019BBF
:101C200001F064FE4FF40043CDE9023602A904231B
:101C30000A480693CDE9044401F058FE4FF4E063EE
:101C400002A94FF09040CDE90364CDE90545029328
:101C500001F04CFE08B070BD002C014000040048AB
:101C600010B5044698B00021442207A8CDE902111E
:101C7000CDE90411069104F0A9F81D4B22689A429F
:101C800001D018B010BD012307A8079302F06EFC25
:101C900010BB184B18481A6E42F480421A661A6E2E
:101CA00002F480420092009ADA6C9FED0D7B42F0C4
:101CB0000402DA64DB6C8DED027B9FED0B7B03F09D
:101CC0000403019302A907238DED047B019A069377
:101CD00001F00CFE18B010BDFFF7E4FDD9E700BF1E
:101CE00030000000020000000000000000000000C2
:101CF00000380140001002400008004810B50446BA
:101D000092B04422002101A804F060F80D4B226833
:101D10009A4201D012B010BD4FF4005301A80193B4
:101D200002F024FC58B9084B9A6D42F400029A65FF
:101D30009B6D03F400030093009B12B010BDFFF7EE
:101D4000B1FDF0E7005C004000100240FEE700BF7C
:101D5000FEE700BFFEE700BFFEE700BFFEE700BFF3
:101D6000704700BF704700BF704700BF00F0BCB8AD
:101D7000014800F0DDB900BF9806002070B5161EBE
:101D800007DD0C468D19AFF3008004F8010BA54266
:101D9000F9D1304670BD00BF70B5161E07DD0C4688
:101DA0008D1914F8010BFFF75BF9A542F9D1304604
:101DB00070BD00BF4FF0FF30704700BF4FF40053BD
:101DC0004B600020704700BF012070470020704723
:101DD0000C490D4A0B6810B50C4C121B2BB1184462
:101DE000904207D80860184610BD094B0B60184494
:101DF0009042F7D904F038F80C2303604FF0FF331A
:101E0000184610BD040700200080002000040000D8
:101E100058080020034AD2F8883043F47003C2F80F
:101E20008830704700ED00E00D488546FFF7F2FF6F
:101E30000C480D490D4A002302E0D458C450043325
:101E4000C4188C42F9D30A4A0A4C002301E01360FB
:101E50000432A242FBD304F00DF8FFF74BF9FEE782
:101E60000080002000000020940000209C6A0008F0
:101E70009400002058080020FEE7000038B50F4B02
:101E80001B680BB9012038BD0D494FF47A72054625
:101E9000B2FBF3F30868B0FBF3F001F05DF8044621
:101EA0000028EFD10F2DEDD8024629464FF0FF3024
:101EB00001F00AF8034B20461D6038BD10000020D9
:101EC0000C0000201400002010B5032000F0EAFFF1
:101ED0000F20FFF7D3FF10B10124204610BD0446A8
:101EE000FFF7E2FC204610BD034A04491368096865
:101EF0000B441360704700BF08070020100000204B
:101F0000014B1868704700BF0807002038B5044629
:101F1000FFF7F6FF631C054602D0044B1B681C4408
:101F2000FFF7EEFF401BA042FAD338BD100000209F
:101F300030B583B000230193002800F0B180C56D57
:101F40000446002D00F0AF80226893689D0005D5FF
:101F5000936823F0204323F03F0393609368D800F5
:101F600019D46B4B6B481B6891689B09A0FB03035A
:101F700021F010419B0921F03F0101335B0041F04A
:101F8000805191600193019B2BB1019B013B019317
:101F9000019B002BF9D19368D90076D4E36D43F00F
:101FA0001003E365236E012003432366936813F057
:101FB000040FE36D70D1DB066ED4E36D23F48173FF
:101FC00043F00203E3659368DD0709D44FF0A043B3
:101FD0009B6813F0010F504B9B6801D1D9077FD547
:101FE000E568E36B94F824102B43A5682B43657FC9
:101FF000012943EA453343EA01435AD0E16A21B15A
:10200000256B01F4787129430B43D5684349294076
:102010001943D1601369616B23F040630B43136173
:1020200093681B0722D4D16894F83830257F21F4B7
:1020300080415B0021F0020143EA85330B432169B3
:10204000D3601369002941D043F480331361D2F87F
:10205000C0306FF30D030B43C2F8C03094F840302A
:10206000012B45D0136923F0010313616369012B30
:1020700024D0136B23F00F031363E36D23F00303EA
:1020800043F00103E36503B030BD936813F0040F20
:102090004FF00000E36D8ED0E36D43F01003E36575
:1020A000012003B030BDFFF71BFC256684F85850B3
:1020B0004AE7A16A013943EA41439FE7116B236A6A
:1020C00021F00F01013B0B431363D6E723F4803368
:1020D0001361D2F8C0306FF30D03C2F8C030BDE712
:1020E0000F4965688B6823F47C132B438B6077E77B
:1020F0001169636CA56C6FF38A012B430B43E16C90
:102100000B43216D0B4343F001031361AEE700BFA6
:102110000C000020632D3E05000100500740F0FF39
:1021200000030050704700BF704700BF704700BFFA
:10213000F8B503688D4A1D685E689768A90704466C
:1021400007F01F0702D5B20700F19F80690779D514
:10215000720777D5E26DD20603D4E26D42F40072C5
:10216000E265DA6812F4406F1CD1814A934200F0B4
:10217000DD80DA68910415D41A68120712D59A68BE
:10218000500700F1E1805A6822F00C025A60E36DBA
:1021900023F48073E365E36DD90403D4E36D43F066
:1021A0000103E3652046FFF7BDFF23680C221A6098
:1021B000AA064DD5B0064BD5E26DD00603D4E26D2C
:1021C00042F40052E2656A49DA6CD8688B4202F444
:1021D000C07268D0D968D2B98A0100F19F801A68AC
:1021E000500614D5890212D49A68120700F1B580FE
:1021F0005A6822F060025A60E36D23F48053E3656D
:10220000E36DD80503D4E36D43F00103E365204695
:10221000FEF7D4FA236860221A60290601D5320637
:1022200055D4E80501D5F1055CD4AA0501D5B00562
:1022300041D4E90601D5F2060FD4690501D572052E
:102240005CD4F8BD2807B3D5310783D4AA06B1D42E
:102250006906E2D57206E0D5AEE7E26B32B1002F37
:102260006ED0424A926812F4604F0BD0E36D43F493
:102270008063E365236E43F0020323662046FFF785
:1022800055FF236810221A60D7E7C36DD80603D420
:10229000E36D43F40063E365204600F0C5FA23686C
:1022A00002221A6052E7C121F940C90792D44FF0C7
:1022B000A041C9688FE7E36D43F48023E3652046BE
:1022C00000F0B0FA23684FF400721A60B1E7E36DD2
:1022D00043F48033E3652046FFF726FF236880221E
:1022E0001A609EE7E36D43F40033E365204600F097
:1022F00097FA23684FF480721A6096E7E26D42F411
:102300008042E265226E4FF4806142F0080222664C
:1023100020461960BDE8F84000F080BA00F4406043
:1023200001F4005202437FF472AF58E740F22122D9
:10233000FA40D0073FF51DAF4FF0A042D26819E731
:10234000DA68D0079ED591E7E36D43F01003E365AB
:10235000236E43F00103236624E7E36D43F010038B
:10236000E365236E43F00103236650E7000300504A
:1023700000010050F0B590F8582083B00346012AC0
:102380004FF00000019000F05E811A68012083F890
:1023900058009468640708D5DA6D42F02002DA65C7
:1023A000002283F8582003B0F0BD48684FEA901E21
:1023B00000F01F0C0EF00C0E086802F13004C0F3A0
:1023C000846054F80E501F2600FA0CF006FA0CFC3C
:1023D00025EA0C0C40EA0C0044F80E00906810F05E
:1023E000040F906840F09D8010F0080F08684AD1F3
:1023F0008D68C0F304560724C00DB440B5F1004FFA
:1024000000F004006FEA040400F0408102F11407B8
:10241000B5403E5834402C433C50506920F00040B9
:1024200050610F69D4680868042F48D0C4F3C10410
:10243000650002F16004B54E54F827C000F0F84082
:102440000CEA060606434869A840304340F00040C5
:1024500044F827000D698E6954F8250020F080703B
:10246000304344F825000E690D7F54F82600A5F18D
:102470000105B5FA85F56D0920F0007040EA456068
:1024800044F8260008689468E707064612D4CF6827
:102490009F4CD2F8B05007F0180C24FA0CF4C0F39B
:1024A000120C044025EA0C052C43C2F8B040994CAC
:1024B000A74279D098490E4235D1002070E7146EBA
:1024C000146EC0F31205C4F38464002D40F0E8805C
:1024D000C0F38466B44200F06681546E556E02F11A
:1024E0006004C5F3846502F1640CB54200F07081AC
:1024F000A568A56804F10807C5F38465C0F3846680
:10250000AE4200F03E81E568E56804F10C06C5F3D3
:102510008464C0F38465A542B5D1306820F00040E2
:1025200030600868AFE77D487D4C8168A64201F0C5
:10253000E07516D07B4CA64213D07B4CA64200F02F
:1025400085807A4CA642B8D14902B6D478498A42ED
:10255000B3D0826822F0E0722A4342F480028260A3
:10256000ABE70E02A9D4B2F1A04FA6D16B497148D6
:102570008A6822F0E0722A4342F400028A6002680C
:102580006D499209A1FB02129209013202EB42024B
:1025900092000192019A002A8FD0019A013A019289
:1025A000019A002AF9D188E7BCF1000F5DD090FABA
:1025B000A0F4002C00F0C280B4FA84F4013404F0DA
:1025C0001F04092C40F2BA8090FAA0F4002C00F00D
:1025D0001781B4FA84F40134A40604F0F84490FAA4
:1025E000A0F5002D00F00A81B5FA85F5013505F05A
:1025F0001F05012606FA05F52C4390FAA0F00028E5
:1026000000F0FA80B0FA80F0013000F01F0000EB1B
:1026100040001E38000540F000700443E50D886856
:1026200002F1140605F00405C4F3045400FA04F79B
:102630004FF0070C70590CFA04F420EA04003843F8
:1026400070510E6836E7022003B0F0BDCC013FF5B3
:1026500034AF37498A423FF430AF826822F0E072EB
:102660002A4342F08072826027E7800E013000F03A
:102670001F050124800600F0F840AC40092D44EA13
:10268000000405EB4500C4D80005C6E702F11406B6
:1026900035582C403450506940F000405061C0E63D
:1026A00090FAA0F51DB1B5FA85F5AC427BD0546E19
:1026B000556E02F16004C5F3846502F1640C90FA72
:1026C000A0F604F10807BE4626B1B6FA86F6AE4279
:1026D00000F08080A568A568C5F3846590FAA0FC29
:1026E00004F10C06B646BCF1000F03D0BCFA8CFC1A
:1026F000AC4548D0E568E468C4F3846490FAA0F57A
:10270000002D3FF4C0AEB5FA85F504E700F0FF03F5
:10271000FFFF070000007F4000000880000300501A
:10272000000021C31000C090000052C7000084CBFD
:10273000000100500C000020632D3E0590FAA0F42B
:10274000002C65D0B4FA84F40134A40604F0F844F3
:1027500090FAA0F5002D59D0B5FA85F5013505F0B0
:102760001F05012606FA05F52C4390FAA0F0002873
:1027700049D0B0FA80F0013000F01F0000EB4000BB
:1027800082E704F10C0E386820F000403860E06801
:102790000868E468C0F312057646C4F38464002D2B
:1027A0003FF4B7AEAAE7106E144620F0004044F89C
:1027B000600F506E0868556EC0F3120602F1640C8B
:1027C000C5F38465002E7FF47AAFC0F384668CE68F
:1027D00004F1080EDCF8000020F00040CCF8000006
:1027E000A0680868A568C0F312067746C5F384653B
:1027F000002E3FF483AE71E707480EE70225FBE6A3
:102800004FF08064EBE64FF4401006E70225ABE79B
:102810004FF080649CE700BF000050FE704700BF8F
:10282000704700BF704700BF704700BF2DE9F041FF
:1028300090F8583082B00022012B019200F0A8815C
:102840008446012380F85830DCF81440DCF800306E
:10285000D1E90020002C72D00C6A012C6FD0DCF87A
:10286000686000F01F00C2F384658540002E40F0D0
:102870001581886A013C002800F01382CE6A00F0BE
:102880007C00204330432843CCE9190498680707AB
:1028900010D491F8260091F825404005002C40F016
:1028A000F280DC6891F8245024F4401440EA05508A
:1028B0002043D860986810F0040057D09868002032
:1028C0009C68E50713D4CE68B34CD3F8B05006F03B
:1028D0001807FC40C2F31207144025EA070E44EA29
:1028E0000E04C3F8B040AD4CA64200F0F580AC49F0
:1028F0000A421ED0AB4DAC4CA968A24201F0E07672
:1029000000F09B80A94CA24200F09780A84CA24204
:1029100000F05C81A74CA2420BD14A0209D4A64A1E
:10292000934206D0AB6823F0E073334343F4800353
:10293000AB6000238CF8583002B0BDE8F081092864
:10294000A4D1886A540C04F4785420B1CD6A00F004
:102950007C0028430443D86C984D28402043D86419
:102960009868CCF864400707A4D492E79C682607CF
:10297000A6D48C6A91F82500002C40F0A480012890
:10298000D86800F0908120F00070D860002091F8A5
:102990003040012C00F07A811C6924F002041C6193
:1029A0008D68C2F304560724D20DB440B5F1004F30
:1029B00002F004026FEA040400F05E8103F11407E0
:1029C000B540BE5834402C43BC505A6922F00042F6
:1029D0005A610F69DC680A68042F00F00681C4F3AD
:1029E000C104660003F16004754D54F827E002F05D
:1029F000F8420EEA05052A434D69B540154345F0F6
:102A0000004544F827500E698D6954F8262022F0BD
:102A100080722A4344F826200E690D7F54F8262040
:102A2000A5F10105B5FA85F56D0922F0007242EABB
:102A3000456244F826200A6842E70C023FF579AF68
:102A4000B3F1A04F7FF475AF564A5E49936823F007
:102A5000E073334343F4000393600B685A4A9B09C5
:102A6000A2FB03239B0903EB43039B001833019351
:102A7000019B002B3FF45DAF019B013B0193019B48
:102A8000002BF9D155E7DC6824F440142043D860CA
:102A9000986810F004003FF469AF0FE7DCF8644079
:102AA000013E2C43CCF86860CCF86440002E7FF4E3
:102AB000EDAED86C414D28402043D8649868070794
:102AC0003FF5F8AEE5E6CC6A002C3FF458AF01289C
:102AD00000F03181D86856E747BB940E013404F00A
:102AE0001F050122A406AA4004F0F844092D44EA77
:102AF000020405EB450249D91E3A120542F0007264
:102B00001443E50D8A6805F0040503F11406C4F3C7
:102B1000045402FA04F74FF0070E72590EFA04F447
:102B200022EA04023A4372510A68E0E692FAA2F4F9
:102B30003CB1B4FA84F4013404F01F04092C00F20F
:102B4000D78092FAA2F4002C00F04181B4FA84F408
:102B50000134A40604F0F84492FAA2F5002D00F026
:102B60003481B5FA85F5013505F01F05012606FA11
:102B700005F52C4392FAA2F2002A00F02381B2FA62
:102B800082F2013202F01F0202EB42021205B7E7A5
:102B9000022002B0BDE8F081FFFF070000007F4087
:102BA0000000088000030050000021C31000C09006
:102BB000000052C7000084CB000100500040100408
:102BC00000F0FF030C000020632D3E05C9013FF516
:102BD000B0AE804A93423FF4ACAEAB6823F0E073F2
:102BE000334343F08073AB60A3E61C6E1C6EC2F3EC
:102BF0001205C4F38464002D59D092FAA2F525B1D0
:102C0000B5FA85F5AC4200F0AE805C6E5D6E03F106
:102C10006004C5F3846503F1640E92FAA2F604F130
:102C20000807B84626B1B6FA86F6AE4200F0B28082
:102C3000A568A568C5F3846592FAA2FE04F10C06A6
:102C4000B046BEF1000F03D0BEFA8EFEAE457BD07B
:102C5000E568E468C4F3846492FAA2F5002D3FF4B9
:102C60002FAEB5FA85F5A5427FF42AAE326822F080
:102C7000004232600A6823E603F11406B5582C407E
:102C8000B4505A6942F000425A61A2E6D1E90D46B9
:102C90001D69344325F4FF752C4344F002041C6184
:102CA0007EE62046EFE540F00070D8606EE6C2F3A5
:102CB0008466B44257D05C6E5D6E03F16004C5F368
:102CC000846503F1640EB54262D0A568A56804F17D
:102CD0000807C5F38465C2F38466AE4232D0E56866
:102CE000E56804F10C06C5F38464C2F38465BAE7B1
:102CF00092FAA2F4002C60D0B4FA84F40134A40651
:102D000004F0F84492FAA2F5002D54D0B5FA85F5F6
:102D1000013505F01F05012606FA05F52C4392FA48
:102D2000A2F2002A4CD0B2FA82F2013202F01F0263
:102D300002EB4202E0E6DCF85C4044F02004CCF810
:102D40005C4024E604F10C083A6822F000423A6044
:102D5000E2680A68E468C2F312054646C4F3846474
:102D6000002DC2D078E71A6E1C4622F0004244F8CB
:102D7000602F5A6E0A685D6EC2F31206C5F3846551
:102D800003F1640E002E7FF448AFC2F384669AE725
:102D900004F10808DEF8002022F00042CEF80020FE
:102DA000A2680A68A568C2F312064746C5F384659F
:102DB000002E90D040E70225B0E74FF08064A1E7F5
:102DC000054A9DE64FF440129AE60225D1E64FF0FF
:102DD0008064C1E600010050000050FE90F85820C9
:102DE000012A46D0F0B404689CB0034600220120BA
:102DF000B4F1A04F189283F85800199208D0D96DF9
:102E000083F8582041F02001D9651CB0F0BC704710
:102E1000224A906840070BD5A268DA6D42F0200282
:102E20000120DA65002283F858201CB0F0BC7047FE
:102E3000A0684507F1D40D68EDB1194E4F68B06830
:102E400093F838C020F46040384340EA4C30B0601A
:102E5000A0689268C0070AD4D70708D4B268896806
:102E600022F471620D4322F00F021543B560002079
:102E7000D8E7022070470A48816821F460418160E8
:102E8000A1689268CD07F2D4D407F0D4826822F406
:102E9000716222F00F028260E9E700BF000100507A
:102EA000000300500749CA6803024FF6FF0003F40D
:102EB000E0630240134343F0BF6343F40033CB604D
:102EC000704700BF00ED00E01A4BDB68C3F302233C
:102ED00000B5C3F1070EBEF1040F03F1040C28BFC7
:102EE0004FF0040EBCF1060F1BD9A3F1030C4FF0F9
:102EF000FF3303FA0CF322EA03024FF0FF3303FA25
:102F00000EF321EA030303FA0CF313431B01002819
:102F1000DBB209DB00F1604000F5614080F800336E
:102F200000BD00229446E8E7034A00F00F00024487
:102F3000137600BD00ED00E0FCEC00E0002807DBAC
:102F4000044A4109012300F01F00834042F8213068
:102F5000704700BF00E100E00138B0F1807F01D38D
:102F60000120704710B44FF0E023074C58614FF038
:102F7000F00C84F823C00022072110469A615DF806
:102F8000044B1961704700BF00ED00E0002800F01D
:102F9000D98038B590F85C30044603F0FF02002B6E
:102FA00071D02268936923F010039361FEF7A8FFA4
:102FB000054604E0FEF7A4FF401B0A285AD8236800
:102FC0009A691107F6D49A6942F001029A61FEF7F4
:102FD00097FF054604E0FEF793FF401B0A2849D8F7
:102FE00023689A69D207F6D59A69594942F00202D4
:102FF0008B429A6100F0A180227C012A9A690CBF61
:1030000022F0400242F040029A61627C012A9A69F1
:103010000CBF42F4804222F480429A61A27C012AD1
:103020009A690CBF22F4805242F480529A619A69E4
:10303000A068E16822F4407202439A619A6922F022
:10304000A4029A611A69012922F010021A611FD0A4
:1030500011B302299A6977D042F080029A611A6905
:10306000032942F010021A6116D19A6942F0200237
:103070009A6111E0236E032243F00103236684F872
:103080005C20012038BD80F85D20FEF779FC88E7E0
:103090009A6942F004029A61D4E90612013A0139B0
:1030A000120242EA4162216A01390A436169013927
:1030B00042EA0142B0F5407FDA610ED1D4E90B0259
:1030C000A16A013A01381201013942EA00220A4399
:1030D000616A013942EA0142DA60D3F8C020E06B4C
:1030E000616BA56B0243C3F8C020D3F88020194858
:1030F000206422F4F81242EA0142C3F88020D3F897
:1031000080201549616422F0706242EA0562C3F8CA
:103110008020124B124A4031C4E91213F033C4E943
:10312000142300214FF4547202F050FE00200123BA
:10313000206684F85C30A06538BD0A4A6168C2F830
:10314000001559E70120704742F020029A61A3E779
:103150000064004000A4004070A4004088A5004026
:1031600060A600400060004090F85C20013A012A0F
:10317000034605D9026E42F0020201201A6670472A
:1031800070B48A684869D1E90354D1E900619207B3
:1031900056B942EAC56202431B6C42EA044200206F
:1031A00070BC43F8212070475B6C44EA457443F8D7
:1031B000314003EBC1031043586070BC00207047DE
:1031C000844690F85C00012807D0DCF8603043F0BA
:1031D00004030120CCF86030704710B40198DCF88B
:1031E000004040EA4303D4F8800043EA820242EA06
:1031F000011120F03F030B43C4F8803000205DF83C
:10320000044B704790F85C20012A034605D0026EFB
:1032100042F0040201201A6670470068022283F817
:103220005C208269002122F0010282610846196651
:10323000704700BFF0B590F85C30022B86460BD18A
:103240000568D5F8C43013F4001C0BD0036E43F4AA
:10325000007303660120F0BD036E43F008030366AC
:103260000120F0BDD5F8C4604B680F6988680C6810
:10327000C6F30146002B37D1074347EA8447D1E91B
:10328000060303434869CC680343086A43EA0063C2
:1032900043EA0443DEF8540006EBC60440F83470F9
:1032A00000EBC400134C4360CB68E35CA3B193789C
:1032B000D7781B0443EA076317783B43577843EA00
:1032C00007230CEB00070CF1040CBB60CB68E35C3C
:1032D0009C4502F10402EAD30123B340C5F8CC3087
:1032E0000020CEF85830F0BD2743074347F0804711
:1032F000C5E700BF206A00082DE9F04190F85C4066
:10330000022C64D1402905686DD0D5F89840270774
:1033100064D0D5F89870D5F89840E601C7F3012835
:1033200007D5D5F88040E40544BF08F1010707F050
:103330000308C46C08EBC80604EBC604266806F054
:1033400080465660D4F800C0002E66D1CCF38A4681
:103350001660266806F000569660266806F000465D
:103360001661A688D661B4F806C00CF00F0CC2F83E
:103370000CC0666806F480165661666806F400168E
:103380009661E67906F07F061662274E676816F8A2
:103390000CE04FEAD77CC2F824C0BEF1000F10D079
:1033A000013B04F1070EF4461EF8015F03F8015FCC
:1033B000D568ACF1060C755DACEB040C6545F2D834
:1033C000056840292CD0C5F89C80002004E0036EDD
:1033D00043F0080303660120BDE8F081036E43F467
:1033E00080730366F7E7D5F890402707F6D0D5F845
:1033F0009070D5F89040E601C7F3012807D5D5F8BD
:103400008040A40544BF08F1010707F00308846C5D
:1034100008EBC80604EBC60490E72CF0604697E77B
:10342000C5F89480D1E700BF206A000803684029EE
:103430000CBFD3F89000D3F8980000F00F0070474D
:103440000368D3F8C40000F007007047064B5A69C0
:10345000002A01DB002070470449054A99609A6000
:103460005869C00F704700BF002002402301674524
:10347000AB89EFCD044B5A6942F000425A6158695A
:10348000C043C00F704700BF00200240064B586980
:1034900010F0804006D00549054AD960DA605869C5
:1034A000C0F38070704700BF002002403B2A19081B
:1034B0007F6E5D4C054B5A6942F080425A615869F3
:1034C00080F08040C0F38070704700BF0020024051
:1034D00070B50546FEF714FD0F4E044604E0FEF7F6
:1034E0000FFD001BA8420ED83369DA03F7D4336905
:1034F0004CF2FA32134008D13369DB0744BF012391
:103500003361002070BD032070BD04494A681A432E
:103510004A600120336170BD002002401800002085
:10352000044A536943F000634FF47A705361FFF724
:10353000CFBF00BF002002402DE9F843A74E3378EB
:10354000012B00F06481012535700368002213EA25
:1035500005070446726040F002819D0700F1F68085
:1035600058076BD4190708D49A063BD4DB065BD402
:10357000002333703846BDE8F883D4E90885A845B0
:10358000F2D04FF47A70D4F81C90FFF7A1FF002816
:1035900040F00C8119F0010F0FD09149914A4B6A0C
:1035A00008F17848134043EAD8034B628B6A05F16F
:1035B0007845134043EAD5038B62894A916A4B46AA
:1035C00061F31E039362536943F4003353614FF474
:1035D0007A70FFF77DFF2368002818BF47F00107C6
:1035E0009A06C3D54FF47A70D4E90B58FFF770FFF1
:1035F000002840F0D880012D06D1794A136F23F0BE
:103600007F0343EA08031367754A536943F40033A1
:1036100053614FF47A70FFF75BFF2368002818BFEF
:1036200047F00107DB06A3D54FF47A70A46AFFF7D1
:103630004FFF002800F0D880012799E74FF47A70F7
:10364000D4E90558FFF744FF002840F0A98015F0A1
:1036500001031ABF08F4E0634FF4E0621A46A907B9
:1036600004D508F4805142F480520B43680704D516
:1036700008F4005142F400520B43E90404D508F465
:10368000804142F480420B43280704D508F480317E
:1036900042F480320B43E90604D508F4003142F4C9
:1036A00000320B43A80604D508F4802142F480229E
:1036B0000B43690604D508F4002142F400220B43B1
:1036C000A80504D508F4000142F400020B43690583
:1036D00004D508F0807142F080720B43280504D5B0
:1036E00008F0007142F000720B43A90404D508F001
:1036F000806142F080620B43680404D508F00061E9
:1037000042F000620B43290404D508F0405142F016
:1037100040520B43E80305D508F0804843EA08030C
:1037200042F080422E4D296A21EA020213432B62A5
:103730006B6943F400336B614FF47A70FFF7C8FE96
:103740002368002818BF47F001070BE74FF47A7091
:103750002569FFF7BDFE60B32368012700E7D0E9C4
:1037600001874FF47A70D4F80C90FFF7B1FEA0B93E
:10377000B8F1000F4FD11A4B47EA0947DF62184AE8
:10378000536943F4003353614FF47A70FFF7A0FE9E
:10379000071E236818BF0127DFE623682F46DCE6F3
:1037A00023680127DEE623680127DFE62368012777
:1037B000DAE60B4A136A23F0FF032B4313625369C3
:1037C00043F4003353614FF47A70FFF781FE2368AE
:1037D000002818BF47F00107C2E600BF180000200C
:1037E0000020024000C0FFFF0F4A136F23F4803314
:1037F00023431367536943F400334FF47A705361E2
:10380000FFF766FE002818BF47F00107B0E6022761
:103810003846BDE8F883B8F1010FB0D1024B47EA52
:1038200009471F63ABE700BF002002404268062340
:10383000012A10B4036027D91A462A4B1B6ADBB24F
:10384000AA2B03D0CC2B0CBFCC23BB23254903616F
:103850000B6A23F0FF038361C369012B22D042F07E
:103860001003204903600B6F03F480338362C36A43
:10387000012B06D142F0300202600B6F03F07F0390
:1038800003635DF8044B70470723036002BB154ACE
:10389000D36A03F03F038360D36AC3F30543C36075
:1038A0000722CAE74C6A104B03EAC40404F100641F
:1038B00004628C6A03EAC40303F1006343628B6A07
:1038C00003F0004343F0010342F00802C361C6E77E
:1038D000044A136B03F03F038360136BC3F3054388
:1038E000C360DDE700200240F8FF01002DE9F04F42
:1038F0000C6885B0002C00F09080744F002389463E
:10390000012202FA03F515EA040800F08180D9F8D3
:10391000041001F0030E032603FA02F20EF1FF3A3F
:1039200006FA02FCBAF1010FD9F808606FEA0C0C34
:1039300076D9BEF1030F01D1012E05D0C56896409E
:1039400005EA0C052E43C66005680EFA02F205EA88
:103950000C052A4311F4403F026059D05C4D2A6E99
:1039600042F001022A662A6E02F001020392039AD3
:1039700023F0030202F1804202F5803203F00306D5
:103980009568B6004FF00F0C0CFA06FCB0F1904FA2
:1039900025EA0C0E1CD04F4DA84200F082804E4DFF
:1039A000A84200F08580DFF834C1604572D0DFF8AE
:1039B00030C1604500F08380DFF828C160450CBF4E
:1039C0004FF0050C4FF0060C0CFA06F64EEA060E08
:1039D000C2F808E0BA686FEA0805CE0254BF2A4070
:1039E00048EA0202BA60FA688E0254BF2A4048EAE6
:1039F0000202FA607A688E0354BF2A4048EA020243
:103A00007A603A68C90354BF2A4048EA02023A6021
:103A1000013334FA03F27FF473AF05B0BDE8F08FE1
:103A20009640D0F808B00196D9F80C600BEA0C0B60
:103A300006FA02FA4AEA0B0AC0F808A0D0F804A075
:103A4000019E2AEA050AC1F300159D4045EA0A05D0
:103A50004560C56805EA0C052E43BEF1020FC6603D
:103A60007FF472AFD9F810504FEAD30A03F007067B
:103A700000EB8A0AB600B540DAF820B001950F25B0
:103A800005FA06F6019D2BEA060B45EA0B05CAF876
:103A9000205059E74FF0030C0CFA06F64EEA060EDA
:103AA00096E74FF0010C0CFA06F64EEA060E8FE789
:103AB0004FF0020C0CFA06F64EEA060E88E74FF0BD
:103AC000040C0CFA06F64EEA060E81E700040140EB
:103AD000001002400004004800080048000C0048A4
:103AE00000100048001400480AB1816170478162EB
:103AF000704700BF436901EA030221EA030141EA7A
:103B000002418161704700BF002854D010B590F881
:103B10004130044603F0FF02002B47D023682422E3
:103B200084F841201968626821F0010122F0706276
:103B300019601A619A68E16822F4004201299A60CA
:103B4000A26809D042F4044202299A6007D15A6857
:103B500042F400625A6006E042F400429A605A68F9
:103B600022F400625A605968226941F0007141F400
:103B7000004159606169D8680A43A16920F4004096
:103B800042EA0122E169D860206ADA6001431960E3
:103B9000196841F00101196000222023626484F851
:103BA0004130226384F84220104610BD80F8402046
:103BB000FDF73AFFB2E70120704700BF90F84120BF
:103BC000202A22D15FFA82FC90F84020012A034685
:103BD0001BD00268242000B583F84100106820F053
:103BE00001001060106820F48050106010680143DC
:103BF000116011684FF0000E41F00101116083F86F
:103C000041C083F840E0704600BD0220704700BF0D
:103C100090F84120202A21D100B55FFA82FE90F869
:103C20004020012A03461BD00268242083F841006B
:103C3000106820F001001060106820F4706040EA05
:103C40000121116011684FF0000C41F00101116079
:103C500083F841E083F840C0604600BD0220704711
:103C6000022000BD002844D070B590F8913206467D
:103C700003F0FF02C3B30323306886F8913201F0EA
:103C80007DFE3579FDB100213346324601200C46D8
:103C900011740131A942C2E908445074D47442F845
:103CA000284FF5D100210A4683F850110131A9426D
:103CB000C3E9582283F8512183F85321C3F86821BE
:103CC00003F12803F0D1334653F8040B93E80600C0
:103CD00001F05EFEB37A012200219342317386F82F
:103CE000912208D0002070BD80F89022FEF706F8DF
:103CF000C1E701207047304600F002F8002070BD97
:103D000002460020116810B482F8C802B1F854309D
:103D100001249BB22343C2F8D042A1F85430B1F839
:103D200054305DF8044B9BB243F00203A1F85430C9
:103D3000704700BF354A136860B903F4C063B3F538
:103D4000806FD2F880301CD023F48073C2F88030AA
:103D500000207047B0F5007F06D023F4C06343F421
:103D6000806313600020704703F4C063B3F5806F75
:103D7000D2F880302AD043F48073C2F8803000201B
:103D8000704723F48073C2F88030136820482149BB
:103D900023F4C06343F4007313600368322000FB14
:103DA00003F35069A1FB03139B0C400503F10103CE
:103DB00006D55169490503F1FF3301D5002BF8D130
:103DC000124B5B695B05CDD50320704743F48073CC
:103DD000C2F8803013680E480E4923F4C06343F4E0
:103DE000007313600368322000FB03F35069A1FBEA
:103DF00003139B0C400503F10103E1D5516949050B
:103E000003F1FF33DCD5002BF8D1D9E70070004077
:103E10000C00002083DE1B43024A936843F4804376
:103E20009360704700700040002800F039822DE94F
:103E3000F0410368D90782B004462DD5A5498A68A8
:103E4000C96802F00C020C2A00F00281082A00F076
:103E500004816368B3F5803F00F02981B3F5A02F9A
:103E600000F092819B4D2A6822F480322A602A68F1
:103E700022F480222A60002B40F01E81FEF740F8D9
:103E8000064605E0FEF73CF8801B642800F2398105
:103E90002B689903F6D423689A0728D58D4A93682E
:103EA000D26803F00C030C2B00F0E280042B00F02E
:103EB000E480E368874D002B00F014812B6843F405
:103EC00080732B60FEF71CF8064605E0FEF718F835
:103ED000801B022800F215812B685F05F6D56B6800
:103EE000226923F0FE4343EA02636B6023681A07EA
:103EF00019D56369774D002B00F09680D5F8943082
:103F000043F00103C5F89430FDF7FAFF064605E0DB
:103F1000FDF7F6FF801B022800F2F380D5F89430FD
:103F20009B07F5D523685D0741D56A4B9A6DD00094
:103F300000F1EB809A6D42F080529A659B6D03F020
:103F400080530193019B0125634E3368D90540F1ED
:103F50000A81A368012B00F0DA80052B00F05E8156
:103F60005C4ED6F8902022F00102C6F89020D6F8D8
:103F7000902022F00402C6F89020002B40F0CE8062
:103F8000FDF7BEFF41F28838074605E0FDF7B8FFB0
:103F9000C01B404500F2B580D6F890309907F5D4A3
:103FA00025B14C4A936D23F08053936523689A069C
:103FB00018D5A369474D002B00F0C180D5F8983083
:103FC00043F00103C5F89830FDF79AFF064605E077
:103FD000FDF796FF801B022800F29380D5F89830F9
:103FE0009B07F5D5E369EBB13A4DAA6802F00C02E4
:103FF0000C2A00F02181022B2B6823F080732B60A8
:1040000000F0CF80FDF77CFF044604E0FDF778FF69
:10401000001B022875D82B689B01F7D4EA682F4B48
:104020001340EB6000206DE0D5F8943023F00103DD
:10403000C5F89430FDF764FF064604E0FDF760FF25
:10404000801B02285DD8D5F894309F07F6D469E725
:1040500001F0030103297FF4FCAE1E4A12689203AB
:104060007FF51AAF6268002A7FF416AF012049E09D
:1040700002F00302022A7FF41CAF164B1B685B059B
:1040800002D5E368002BF1D0124A20695368144925
:1040900023F0FE4343EA006353600868FDF7EEFE39
:1040A0000028E3D123681A077FF53DAF21E7094ACD
:1040B000136843F480331360FDF722FF054E054675
:1040C00004E0FDF71DFF401B64281AD833689F03E6
:1040D000F7D5E0E60010024000700040FCFFEEFE65
:1040E000140000202B6823F480732B60FDF708FF79
:1040F00006462B685905D5D5FDF702FF801B02281F
:10410000F7D9032002B0BDE8F08100251CE7654A1D
:10411000D2F8903043F00103C2F89030FDF7F0FE82
:10412000604F064641F2883804E0FDF7E9FE801B47
:104130004045E6D8D7F890309B07F6D530E7D5F85C
:10414000983023F00103C5F89830FDF7D9FE0646F4
:1041500004E0FDF7D5FE801B0228D2D8D5F89830B0
:104160009F07F6D43EE7336843F480733360FDF76E
:10417000C7FE07463368DA053FF5EBAEFDF7C0FE34
:10418000C01B0228F6D9BCE703F18043A3F53C33FA
:104190001A6842F480221A601A6842F480321A6067
:1041A0008AE7FDF7ADFE064604E0FDF7A9FE801B99
:1041B0000228A6D82B689901F7D4E9683A4B226AFD
:1041C000606A0B401343D4E90A1243EA012343EA2D
:1041D000C263D4E90C120138490843EA00130139DB
:1041E000520843EA4153013A43EA4263EB602B68C9
:1041F00043F080732B60EB6843F08073EB60FDF756
:104200007FFE284D044605E0FDF77AFE001B0228DC
:104210003FF677AF2B689A01F6D503E7214BD3F829
:10422000902042F00402C3F89020D3F8902042F08E
:104230000102C3F8902071E7012B3FF417AFEB6840
:10424000226A03F0030191427FF410AF616A03F028
:10425000F0020139B2EB011F7FF408AFA16A03F449
:10426000FE42B2EB012F7FF401AFE16A03F0784226
:10427000B2EBC16F7FF4FAAE226B520803F4C001B7
:10428000013AB1EB425F7FF4F1AE626B520803F08A
:10429000C063013AB3EB426F14BF0120002031E745
:1042A00001207047001002400C809F01184B9A6853
:1042B00002F00C02042A26D09A6802F00C02082AA6
:1042C00023D09A6802F00C020C2A01D0002070471B
:1042D000D968DA68D86801F003010329C2F3031230
:1042E000C0F306200CBF0B4B0B4B0132B3FBF2F3B8
:1042F00003FB00F0064BDB68C3F3416301335B0053
:10430000B0FBF3F07047044870470248704700BFA5
:104310000010024000127A000024F400002800F08F
:10432000EE80784A2DE9F843136803F00F038B42BF
:104330000D4604460CD2136823F00F030B431360A1
:10434000136803F00F038B4202D00120BDE8F8830D
:104350002368DF0769D56768032F00F0A0806A4BE8
:10436000022F1B6800F097805B05EED5FFF79EFFDC
:10437000664B984240F2C080634A936823F0F00392
:1043800043F0800393604FF080095F4EB36823F0E1
:1043900003033B43B360FDF7B3FD41F288380746A2
:1043A00004E0FDF7ADFDC01B404571D8B3686268FD
:1043B00003F00C03B3EB820FF3D123689F0736D4CD
:1043C000B9F1000F03D0B36823F0F003B3604D4E92
:1043D000336803F00F03AB4246D823685A0706D56B
:1043E0004949E0688A6822F4E06202438A601B0758
:1043F00007D5454A2169936823F4605343EAC10312
:104400009360FFF753FF404A414C92684149C2F321
:1044100003120346A25C404802F01F02D3400B6027
:104420000068BDE8F843FDF729BD9E07CFD55807C2
:1044300004D535498A6842F4E0628A60190706D5D6
:10444000314A936823F47C5343F4E06393602E4A2B
:10445000A16893682B4E23F0F0030B4393603368FD
:1044600003F00F03AB42B8D9336823F00F032B439B
:104470003360FDF745FD41F288380746336803F0A5
:104480000F03AB42A9D0FDF73BFDC01B4045F5D95A
:104490000320BDE8F8839A033FF568AF55E71A4A51
:1044A000116888017FF551AFD068D168D268174E86
:1044B00000F003000328C1F303110CBF174818488C
:1044C0000131B0FBF1F11048C2F3062201FB02F208
:1044D000C168C1F3416101314900B2FBF1F2B2425E
:1044E0000AD9826812F0F00F3FF446AF990703D55E
:1044F000A368002B3FF440AF4FF0000945E70120CF
:10450000704700BF002002400010024000B4C40405
:10451000106A00080C0000201400002000127A002D
:104520000024F400054B064A9B680649C3F30223A6
:104530000868D35C03F01F03D840704700100240A6
:10454000086A00080C000020054B064A9B680649D3
:10455000C3F3C2230868D35C03F01F03D84070473D
:1045600000100240086A00080C0000202DE9F0410C
:104570000368044613F4002082B042D0A14B9A6D28
:10458000D50040F1F88000279F4D2B6843F48073DD
:104590002B60FDF7B5FC064605E0FDF7B1FC831B7B
:1045A000022B00F2F3802B68D805F6D5954D226CCE
:1045B000D5F8903013F4407316D0934214D0D5F848
:1045C0009010D5F8903043F48033C5F89030D5F88A
:1045D000903023F48033C5F8903021F44073C9073C
:1045E000C5F8903000F1FD808649D1F8903023F471
:1045F00040731343C1F8903023680020002F40F02F
:10460000CA80DE0708D57F496568D1F8882022F086
:1046100003022A43C1F888209D0708D57949A56877
:10462000D1F8882022F00C022A43C1F888205907CB
:1046300008D57449E568D1F8882022F030022A4371
:10464000C1F888201A0708D56E492569D1F8882055
:1046500022F0C0022A43C1F888209F0608D5694984
:104660006569D1F8882022F440622A43C1F8882085
:104670005E0608D56349A569D1F8882022F4405226
:104680002A43C1F888201D0608D55E49E569D1F89E
:10469000882022F440422A43C1F88820D90508D551
:1046A0005849256AD1F8882022F440322A43C1F8BB
:1046B00088209A0508D55349656AD1F8882022F4E4
:1046C00040222A43C1F888205F050BD54D49A56AD1
:1046D000D1F8882022F440122A43B5F5801FC1F892
:1046E00088205ED01E050BD54649E56AD1F88820A2
:1046F00022F440022A43B5F5800FC1F8882055D036
:10470000DD040BD53F49256BD1F8882022F040729B
:104710002A43B5F1807FC1F888204CD099040BD58D
:104720003849656BD1F8882022F040622A43B5F100
:10473000006FC1F8882043D05A040BD53149A56BCE
:10474000D1F8882022F040622A43B5F1006FC1F809
:1047500088203AD01B040BD52A4AE16BD2F8883066
:1047600023F040530B43B1F1805FC2F8883031D061
:1047700002B0BDE8F0819A6D42F080529A659B6D5F
:1047800003F080530193019B0127FDE6236803207A
:10479000002F3FF436AF1B498A6D22F080528A65A4
:1047A0002FE7CA6842F48012CA609BE7CA6842F4E5
:1047B0008012CA60A4E7CA6842F48012CA60ADE7FA
:1047C000CA6842F48012CA60B6E7CA6842F480122E
:1047D000CA60BFE7D36843F48033D36002B0BDE85A
:1047E000F081FDF78DFB41F28838064604E0FDF7C5
:1047F00087FB801B4045C9D8D5F890309B07F6D57C
:10480000226CF1E60010024000700040002877D0D2
:10481000426A2DE9F0410446002A56D00023C0E93F
:10482000043394F85D300021A16203F0FF01002BF6
:1048300059D02168E768022384F85D300B68B7F52A
:10484000E06F23F040030B6045D853D04FF4805005
:104850000025A562A368A66902F0100C626803F443
:10486000044302F482721A43236903F002031343E0
:10487000626902F001021A43636B07F4706703F088
:10488000080343EA070EE36903F03808236A03F0DC
:10489000800706F40073134343EA08033B43360CD6
:1048A0002B4306F004060B604EEA060343EA0C03B2
:1048B00003434B60CB69002023F400630122CB61EA
:1048C000206684F85D20BDE8F0814368B3F5827FFF
:1048D000A7D0C261A5E7B7F5706F13D1A56A002014
:1048E00005F40055B6E784F85C102046FDF7E8F8BB
:1048F000626A9EE7A56A4FF4805005F40055A9E767
:10490000012070470020A3E7036A026A22F0010237
:1049100070B40262446882690D6822F4803222F029
:1049200073022A438D6823F002032B43144DA842DF
:104930000FD005F50065A8420BD005F54065A842EB
:1049400007D005F58065A84203D005F58065A8422B
:104950000FD1056A25F004050562CD6823F0080330
:104960002B43D1E9056524F4407446EA050C4CEA72
:10497000040449684460826170BC4163036270470B
:10498000002C0140036A026A22F4807270B4026251
:104990004468C2690D6822F4803222F073022A430F
:1049A0008D6823F4007343EA0523154DA8420FD008
:1049B00005F50065A8420BD0124DA84211D005F5AF
:1049C0008065A8420DD005F58065A84211D108E0A8
:1049D000056A25F480650562CD6823F4006343EA27
:1049E0000523D1E9056524F4405446EA050C44EA60
:1049F0000C1449684460C26170BCC16303627047B3
:104A0000002C014000400140036A026A22F48052F7
:104A100070B402624468C2690D6822F0807222F4A8
:104A2000E64242EA05228D6823F4005343EA053347
:104A3000154DA8420FD005F50065A8420BD0134DC7
:104A4000A84211D005F58065A8420DD005F5806516
:104A5000A84211D108E0056A25F480450562CD68B9
:104A600023F4004343EA0533D1E9056524F44044C7
:104A700046EA050C44EA8C1449684460C26170BC83
:104A800001640362704700BF002C014000400140F8
:104A9000036A026A22F4803230B402624468026D12
:104AA0000D6822F4803222F070022A438D6823F4CC
:104AB000003343EA05430F4DA8420FD005F50065CA
:104AC000A8420BD005F54065A84207D005F58065E2
:104AD000A84203D005F58065A84204D14D6924F4AD
:104AE000803444EA052449684460026530BC81642E
:104AF00003627047002C0140036A026A22F48012AC
:104B000030B402624468026D0D6822F0807222F4B3
:104B1000E04242EA05228D6823F4001343EA05537C
:104B20000F4DA8420FD005F50065A8420BD005F542
:104B30004065A84207D005F58065A84203D005F579
:104B40008065A84204D14D6924F4802444EA852478
:104B500049684460026530BCC1640362704700BFAD
:104B6000002C014010B4036A046A24F001040462BA
:104B7000114CA0420FD004F50064A0420BD004F504
:104B80004064A04207D004F58064A04203D004F53D
:104B90008064A04203D1046A24F00404046284699E
:104BA00023F00A0324F0F00C4CEA0212194382614C
:104BB0005DF8044B01627047002C0140704700BF54
:104BC00038B590F83C30012B62D0044602220068D0
:104BD00084F83D20012384F83C308568554A2A40FA
:104BE00082600A68702A72D019D8502A62D01FD801
:104BF000402A40F08C80CA684968FFF7B3FF836899
:104C000023F4401323F0700343F047038360002034
:104C10000122002384F83D2084F83C3038BDB2F5F1
:104C2000005F37D028D8B2F5805018BF0120EFE7D9
:104C3000602A79D1036A026A4D68C96822F01002BD
:104C400002623D4A90426AD002F50062904266D00C
:104C5000826923F0A00322F4704243EA051342EA7A
:104C6000013282610362836823F4401323F07003EE
:104C700043F067038360CAE730498A423DD036D8A3
:104C8000B2F1101F39D010398A4236D00120BFE767
:104C9000022038BDD1E901538268C9682B4322F450
:104CA0007F4243EA012313438360836843F48043D4
:104CB0008360ACE7CA684968FFF754FF836823F450
:104CC000401323F0700343F0570383609FE7D1E95B
:104CD00001538268C9682B4322F47F4243EA0123CF
:104CE00013438360836843F0770383608FE714493D
:104CF0008A4202D030318A4216D1836823F44013AD
:104D000023F07003134343F0070383607FE70BD85E
:104D1000202AF2D00AD832F01003B7D1EDE7026AA8
:104D200022F04002026293E7184671E7302AE4D08D
:104D3000ACE700BF8800CEFF002C0140300010001F
:104D40004000100070B4264E4A6903688D680C68F4
:104D5000B04235D0B0F1804F1CD0A6F59436B042A9
:104D600018D006F58066B04214D006F59636B042EB
:104D700026D01C4EB04227D006F58066B04223D024
:104D800006F58066B0421FD023F08003C5621A4347
:104D900084620CE04E68C968C56223F07003334337
:104DA00023F440730B4323F080031A4384620368A7
:104DB000012143F00403036070BC4161026070474D
:104DC0004E6823F070033343CE68C56223F440730A
:104DD000334323F0800384621A430B690363E6E7DD
:104DE000002C01400040014070B310B590F83D30F8
:104DF000044603F0FF0213B32146022384F83D303A
:104E000051F8040BFFF79EFF012384F8483084F823
:104E10003E3084F83F3084F8403084F8413084F8E4
:104E2000423084F8433084F8443084F8453084F8C4
:104E3000463084F8473084F83D30002010BD80F8BB
:104E40003C20FCF7ABFED7E70120704770B310B5EC
:104E500090F83D30044603F0FF0213B321460223CD
:104E600084F83D3051F8040BFFF76CFF012384F800
:104E7000483084F83E3084F83F3084F8403084F87D
:104E8000413084F8423084F8433084F8443084F868
:104E9000453084F8463084F8473084F83D300020AF
:104EA00010BD80F83C20FFF789FED7E7012070474E
:104EB000036A026A22F0100270B4026244688269D6
:104EC0000D6822F0807222F4E64242EA05228D68E3
:104ED00023F0200343EA0513154DA8420FD005F532
:104EE0000065A8420BD0134DA84211D005F580658E
:104EF000A8420DD005F58065A84211D108E0056AE9
:104F000025F040050562CD6823F0800343EA0513D0
:104F1000D1E9056524F4406446EA050C44EA8C04B2
:104F200049684460826170BC81630362704700BF5E
:104F3000002C01400040014090F83C30012B31D062
:104F400010B50446142A0CD8DFE802F0180B0B0B3E
:104F50001C0B0B0B200B0B0B240B0B0B280B0B0B45
:104F60001000002384F83C30012010BD0068FFF7DA
:104F7000C3FD002384F83C30002010BD0068FFF71B
:104F8000C3FCF6E70068FFF793FFF2E70068FFF75E
:104F9000F9FCEEE70068FFF737FDEAE70068FFF786
:104FA00077FDE6E70220704738B590F83C30012BDA
:104FB0007CD0012304460D4680F83C30142A0CD8DE
:104FC000DFE802F0220B0B0B320B0B0B430B0B0B2E
:104FD000530B0B0B640B0B0B10000120002384F808
:104FE0003C3038BD0068FFF787FD036D2A6943F444
:104FF00000630365036D23F480630365036D43EA77
:10500000022303650020E9E70068FFF77DFC836960
:105010002A6943F008038361836923F004038361F1
:10502000836913438361EDE70068FFF741FF8369FC
:105030002A6943F400638361836923F48063836195
:10504000836943EA02238361DCE70068FFF79AFC87
:10505000C3692A6943F00803C361C36923F00403E9
:10506000C361C3691343C361CCE70068FFF7CCFC9D
:10507000C3692A6943F40063C361C36923F480638D
:10508000C361C36943EA0223C361BBE70068FFF75A
:10509000FFFC036D2A6943F008030365036D23F0E9
:1050A00004030365036D13430365ABE7022038BDBA
:1050B00090F83C30012B46D070B40246234E006875
:1050C000022382F83D30B04243680D68846824D0E2
:1050D00006F50066B0422BD023F0007323F0700376
:1050E0002B43B0F1804F43600AD0194B984207D050
:1050F00003F58063984203D003F59C33984204D1B2
:105100008B6824F080041C4384600020012382F813
:105110003D3082F83C0070BC70474E6823F4700349
:10512000334323F0007323F070032B434360E7E71E
:105130004E6823F47003334323F0007323F07003AD
:105140001D434560DCE70220704700BF002C014092
:105150000004004090F83C30012B45D010B4D1E958
:10516000024323F440730246234348680C6823F447
:105170008063034323F400630869234323F48053CB
:105180004C69034323F40053086B234323F4804307
:105190008C69034323F47023C86943EA044323F072
:1051A0008053124C03431068A0420BD004F50064F6
:1051B000A04207D00021436482F83C1008465DF805
:1051C000044B70478C6A23F4700343EA04530C6A5F
:1051D00023F0807323434C6AC96A23F0007323438E
:1051E00023F000530B43E5E702207047002C0140F9
:1051F00010B4026852E8003F23F4907342E8003193
:105200000029F7D1144C02F1080353E8003F234072
:1052100002F1080C4CE800310029F4D1C36E012BD7
:1052200008D000232022C0F88C205DF8044B43678F
:10523000C366704752E8003F23F0100342E8003194
:105240000029EED052E8003F23F0100342E800317D
:105250000029EFD1E5E700BFFEFFFFEF2DE9F8439E
:105260000446D0F8880020285ED1884609B1164649
:1052700012B90120BDE8F8831F464FF00009212331
:10528000C4F89090C4F88830FCF73AFEA368A4F8FC
:105290005460B3F5805F0546A4F8566047D0B4F873
:1052A0005620236892B2F2B1DA69120604D4791C4E
:1052B00026D1DA691606FCD5B8F1000F2ED018F801
:1052C000012B9A62D4F8882002F02102212AD0D141
:1052D000B4F85620013A92B2A4F85620B4F85620F9
:1052E00092B2002AE0D1DA69560604D47A1C24D19D
:1052F000DA695006FCD52023C4F888300020B9E7CD
:10530000FCF7FEFD401B874223D317B323681A68BE
:10531000DA691006F4D5B8F1000FD0D139F8022BB4
:10532000C2F308029A62CDE70220BDE8F883236940
:10533000002BB4D1C1469846B1E7FCF7E1FD431B11
:105340009F4206D32FB123681A68DB695906F4D54A
:10535000D1E72023C4F888300320BDE8F88300BFDC
:1053600070B5044603688268006961691D6802437C
:105370000A43E0698E49024329400A431A605A6889
:10538000E168656A22F440520A438A495A608B42B6
:105390009968A26921F06E4121F4306100F0B0807B
:1053A000266A32430A439A60DA6A22F00F022A43DD
:1053B000DA62814A934235D0804A93420DD0804AC6
:1053C000934255D07F4A934240D0012000234FF0B2
:1053D0000112C4E91D33A26670BD7B4BD3F888303F
:1053E00003F00C030C2BF0D801A252F823F000BFFD
:1053F000F5540008CB530008CB530008CB530008EA
:1054000063540008CB530008CB530008CB5300086B
:10541000B7540008CB530008CB530008CB53000807
:1054200085540008684BD3F8883003F00303022B3F
:1054300041D0032B26D0012B13D0B0F5004F00F044
:10544000AB80FFF781F8A0B3656A20E05E4BD3F82C
:10545000883003F0C003802B2DD000F28D80002B0C
:1054600048D0B0F5004F00F09D80FEF71FFFEAE73F
:10547000554BD3F8883003F03003202B1BD0EED9E6
:10548000302BA2D1B0F5004F19D04FF40040636823
:105490004E4A32F81510B0FBF1F04FF6EF7200EB08
:1054A0005300B0FBF3F0A0F1100393428DD82368B2
:1054B000D86000208AE7B0F5004F4548E7D1626820
:1054C000424B33F81510B0FBF1F0530803EB4003E7
:1054D0004FF6EF71B3FBF2F3A3F110028A423FF6ED
:1054E00074AF23F00F02216892B2C3F34203134357
:1054F000CB60DEE7B0F5004F48D0FFF713F8A2E726
:1055000011439960DA6A304922F00F022A43DA62C5
:10551000D1F8883003F44063B3F5006F45D02ED83E
:10552000002B3CD0FEF7C2FE0028C2D0656A666838
:10553000264B06EB460133F81520B0FBF2F39942F7
:105540003FF643AFB3EB063F3FF63FAF00231946AC
:10555000FAF7B6FE4FF48075034600217008324614
:10556000E3FB05010023FAF7ABFE1A4BA0F54072EE
:105570009A423FF62AAF9AE7C02B83D025E7B3F5CE
:10558000406F7FF422AF4FF40040D0E7FEF7CAFF30
:1055900000288ED0656A92E7FEF7D6FFF8E7FEF79F
:1055A000C1FFC1E7FEF782FEF2E70948BFE700BF8F
:1055B000F369FFCF00800040003801400044004004
:1055C00000480040004C004000100240306A0008D3
:1055D0000024F400FFFC0F00836A1A0710B406D5FC
:1055E0000168846B4A6822F4004222434A60DC0767
:1055F00006D50168C46A4A6822F4003222434A6030
:10560000990706D50168046B4A6822F48032224368
:105610004A605A0706D50168446B4A6822F4802222
:1056200022434A60DC0606D50168C46B8A6822F40E
:10563000805222438A60990606D50168046C8A6804
:1056400022F4005222438A605A0609D50168446C4C
:105650004A6822F480122243B4F5801F4A600BD0BE
:105660001B0606D50268C16C536823F400230B4364
:1056700053605DF8044B70474A68846C22F4C002A2
:1056800022434A60ECE700BF2DE9F041154602686D
:105690001F46D36931EA030382B00CBF0123002304
:1056A000AB42DDF820800DD1B8F1FF3F0C4618BFAA
:1056B00006461FD1D36934EA03030CBF012300233C
:1056C000AB42F7D00023184602B0BDE8F081802C31
:1056D00008D0402C06D0DA6912F0080226D1D96928
:1056E000090514D4DB6934EA03030CBF012300234A
:1056F000AB42E7D1FCF704FCC01B404514D8B8F11D
:10570000000F11D033681A685007EBD5DFE74FF46C
:105710000061196230460192FFF76AFD019A86F82E
:1057200084202023C6F890300323CCE708241C6291
:105730003046FFF75DFD00220123C6F8904086F851
:105740008420C0E770B50446002682B0C0F890609F
:10575000FCF7D6FB23681A681207054610D41B68AD
:105760005B0727D400232022C4F888201846C4F8F9
:105770008C20E3662367002384F8843002B070BD78
:105780006FF07E430093324603464FF400112046EB
:10579000FFF77AFF23680028E1D053E8002F22F0BA
:1057A000800243E800210029F7D12023C4F8883083
:1057B0000320E0E76FF07E43009300222B464FF476
:1057C00080012046FFF760FF0028CBD0236853E814
:1057D000002F22F4907243E800210029F7D103F151
:1057E000080252E8002F22F0010203F1080040E80D
:1057F00000210029F3D12023C4F88C30D8E700BF62
:1058000080B3D0F8883010B5044633B32268A16A5B
:105810002423C4F88830136823F001031360C1B94E
:105820002046FFF79DFD012811D023685A6822F415
:1058300090425A609A6822F02A029A601A6842F0EE
:10584000010220461A60BDE81040FFF77BBF01202F
:1058500010BD2046FFF7C0FEE2E780F88430FCF779
:10586000FFF9D3E701207047036899689B6830B45B
:105870004FEA537C0A4D0B4C15F80C20C1F34261E2
:10588000D2006B5C14F80C50615CB2FBF5F2DB00EB
:1058900030BCB3FBF1F3A0F86A20A0F86830704781
:1058A000506A0008486A000890F88430012B17D02D
:1058B0000268242310B4C0F88830116814680023EB
:1058C00024F0010421F0005114604366116080F857
:1058D00084302022C0F888205DF8044B18467047B9
:1058E0000220704790F88430012B1FD070B524231C
:1058F0000568C0F888302E682B6823F001032B6000
:10590000AB6823F060431943436EA96004464BB172
:10591000FFF7AAFF00202E60202384F88400C4F83B
:10592000883070BD4FF001138366F3E702207047A3
:1059300090F88430012B1FD070B524230568C0F87F
:1059400088302E682B6823F001032B60AB6823F0AE
:1059500060631943436EA96004464BB1FFF784FFAF
:1059600000202E60202384F88400C4F8883070BDA5
:105970004FF001138366F3E702207047B0F8401040
:10598000034644F27F020A400020A3F840207047FB
:10599000034682B04FF0010C0020A3F840C00DF187
:1059A000080CA3F840000CE90600A3F84400A3F893
:1059B000500002B0704700BF002310B50446C0E994
:1059C0000033C0E90433836081814366C28183610F
:1059D000194608225C3000F0F9F90D4B63620D4B5B
:1059E000A3620D4BE3620D4B23630D4B24629C427B
:1059F00006D003F16802944202D0D0339C4205D114
:105A000004F15800BDE8104000F058BA10BD00BFC6
:105A1000215C0008435C00087B5C0008A15C000876
:105A20000C070020024A0349034800F06BB800BF8E
:105A300038000020796700084800002041680C4BBE
:105A4000994210B5044601D000F096FEA168094BBA
:105A5000994202D0204600F08FFEE168064B994241
:105A600004D02046BDE8104000F086BE10BD00BF47
:105A70000C07002074070020DC0700200C4B0D4AA7
:105A80000D4810B504211A600022FFF795FF0A4B5C
:105A900001221C46092103F16800FFF78DFF04F184
:105AA000D0000222BDE810401221FFF785BF00BFE1
:105AB00044080020255A00080C070020014800F087
:105AC000FEB900BF4D080020014800F0F9B900BF41
:105AD0004D08002010B50446FFF7F0FF236A1BB104
